:0400000081EF00F09C
:100008001D451D451D451D4540001D4540001D451C
:10001800AA441D451D451D451D451D451D451D453C
:100028001D454000400040001D451D451D451D451E
:100038001D451D451D451D451D451D451D451444B2
:100048001D451D451D451D45400040001D451D45DC
:100058001D451D451D4540001D451D451D451D45AA
:10006800B0441D451D451D451D451D451D451D45E6
:10007800EC44F144FE42C44240001D451D451D4567
:100088001D451D451D451D451D451D451D451D4558
:100098001D451D451D451D4540001D4540004000AE
:1000A800B6441D451D451D451D451D451D451D45A0
:1000B8001D451D451D451D451D451D451D451D4528
:1000C8001D451D451D451D451D451D451D451D4518
:1000D8001D451D451D451D451D451D451D451D4508
:1000E80040001D451D451D454000400040004000A2
:0E00F8001D451D451D451D45FF00EEEF88F01E
:10FE7E00001411010000004A14015014010000008A
:10FE8E00000000000000000000000000E813010068
:10FE9E000000F60F0100000000000000000000004E
:10FEAE000000000000000000000000000000000044
:10FEBE00010000000100010001000100010001002D
:10FECE000100000000000000000001000100000021
:10FEDE00010001000000010001000000010001000E
:10FEEE0001000100000000000100010001000100FE
:10FEFE0001000100010000000000010001000000EF
:10FF0E0001000100010000000100010000000100DD
:10FF1E0001000100010001000100010000000100CC
:10FF2E0001000000000000000000010001000100BF
:10FF3E0001000100010001000100010001000100AB
:10FF4E00010001000100000001000100010001009C
:10FF5E00000000000100010001000100010001008D
:10FF6E000000000000000000000001000100000081
:10FF7E00000001000000010001000000010001006E
:10FF8E00000001000000000001000100010001005E
:10FF9E00000001000100000000000100010000004F
:10FFAE00000001000100000001000100000001003E
:10FFBE00000001000100010001000100000001002D
:10FFCE000000000000000000000001000100010020
:10FFDE00000001000100010001000100010001000C
:10FFEE0000000100010000000100010001000100FD
:01FFFE000002
:020000040001F9
:10000000010E3D6E05017F6B040E7E6F7D6B000E51
:100010007C6F796B640E786FCEA011EF80F013EFD8
:1000200080F04FEF80F07C4B7D2BD00E206ECA0EFF
:10003000E82EFED7202EFCD705017C51785D795142
:10004000800A206E7D51800A2058D8B02AEF80F0B7
:100050002CEF80F086EF80F037EF80F0D00E206E2E
:10006000CA0EE82EFED7202EFCD73F0EBF12CEB010
:100070003CEF80F03EEF80F02EEF80F03D6A090EFD
:10008000216E1E0E206EE40EE82EFED7202EFCD729
:10009000212EFAD700D025EC8AF0FBEF83F07DBF4C
:1000A0005BEF80F07D5109E1060E7C5DD8A05BEF2F
:1000B00080F05DEF80F07BEF80F078517C5D7D51CA
:1000C000800A206E7951800A2058D8B06AEF80F0FB
:1000D0006CEF80F07BEF80F0010E7E25186E000E35
:1000E0007F21196E1B6A060E1A6E5BEC86F018C52E
:1000F0007EF519C57FF505017D6B000E7C6FD00E76
:10010000206ECA0EE82EFED7202EFCD7CEA28BEF93
:1001100080F08DEF80F0C8EF81F0190E216E5A0E3D
:10012000206EB20EE82EFED7202EFCD7212EFAD755
:10013000A2EF81F01EC5D9F41FC5DAF4020EDF600C
:10014000A4EF80F0A6EF80F0B5EF80F01EC5D9F4E3
:100150001FC5DAF4DF50206E010E20240501606F08
:10016000616B000E6123B9EF80F00501616B000E39
:10017000606F1EC5D9F41FC5DAF460C5DFF4C8EF9F
:1001800081F020EE01F01E50D9261F50DA22090E10
:10019000DF60CDEF80F0CFEF80F0E0EF80F020EE79
:1001A00001F01E50D9261F50DA22DF50206E010EBA
:1001B00020240501626F636B000E6323E4EF80F07F
:1001C0000501636B000E626F20EE01F01E50D92610
:1001D0001F50DA2262C5DFF4C8EF81F020EE02F092
:1001E0001E50D9261F50DA22050EDF60FAEF80F08C
:1001F000FCEF80F00DEF81F020EE02F01E50D926CA
:100200001F50DA22DF50206E010E20240501646F9A
:10021000656B000E652311EF81F00501656B000E23
:10022000646F20EE02F01E50D9261F50DA2264C5FA
:10023000DFF4C8EF81F020EE03F01E50D9261F50E6
:10024000DA22090EDF6027EF81F029EF81F03AEF23
:1002500081F020EE03F01E50D9261F50DA22DF5025
:10026000206E010E20240501666F676B000E672368
:100270003EEF81F00501676B000E666F20EE03F024
:100280001E50D9261F50DA2266C5DFF4C8EF81F070
:1002900020EE04F01E50D9261F50DA22050EDF6032
:1002A00054EF81F056EF81F067EF81F020EE04F01B
:1002B0001E50D9261F50DA22DF50206E010E202456
:1002C0000501686F696B000E69236BEF81F0050112
:1002D000696B000E686F20EE04F01E50D9261F5087
:1002E000DA2268C5DFF4C8EF81F020EE05F01E5079
:1002F000D9261F50DA22090EDF6081EF81F083EFEB
:1003000081F094EF81F020EE05F01E50D9261F50A9
:10031000DA22DF50206E010E202405016A6F6B6B1C
:10032000000E6B2398EF81F005016B6B000E6A6F76
:1003300020EE05F01E50D9261F50DA226AC5DFF4E0
:10034000C8EF81F07EC520F57FC521F52150000A58
:10035000D8B4ADEF81F0C8EF81F02050000AD8B4D6
:100360009AEF80F0010AD8B4C1EF80F0030AD8B444
:10037000EEEF80F0010AD8B41BEF81F0070AD8B481
:1003800048EF81F0010AD8B475EF81F0C8EF81F031
:10039000CEA4CDEF81F0CFEF81F034EF83F0190ED2
:1003A000216E5A0E206EB20EE82EFED7202EFCD7FC
:1003B000212EFAD70EEF83F01EC5D9F41FC5DAF44B
:1003C000DF50206E216AFF0E2024FF0E2120800BBB
:1003D000D8A4EDEF81F0EFEF81F0FEEF81F01EC5C4
:1003E000D9F41FC5DAF4DF50206EFF0E202405017A
:1003F0006C6F6D6BFF0E6D2302EF82F005016D6B6C
:10040000020E6C6F1EC5D9F41FC5DAF46CC5DFF49B
:1004100034EF83F020EE01F01E50D9261F50DA226F
:10042000DF50206E216AFF0E2024FF0E2120800B5A
:10043000D8A41DEF82F01FEF82F030EF82F020EEA3
:1004400001F01E50D9261F50DA22DF50206EFF0E19
:10045000202405016E6F6F6BFF0E6F2334EF82F067
:1004600005016F6B090E6E6F20EE01F01E50D9264C
:100470001F50DA226EC5DFF434EF83F020EE02F075
:100480001E50D9261F50DA22DF50206E216AFF0E3F
:100490002024FF0E2120800BD8A451EF82F053EFCF
:1004A00082F064EF82F020EE02F01E50D9261F5039
:1004B000DA22DF50206EFF0E20240501706F716B71
:1004C000FF0E712368EF82F00501716B050E706FEE
:1004D00020EE02F01E50D9261F50DA2270C5DFF43C
:1004E00034EF83F020EE03F01E50D9261F50DA229D
:1004F000DF50206E216AFF0E2024FF0E2120800B8A
:10050000D8A485EF82F087EF82F098EF82F020EE9A
:1005100003F01E50D9261F50DA22DF50206EFF0E46
:1005200020240501726F736BFF0E73239CEF82F022
:100530000501736B090E726F20EE03F01E50D92671
:100540001F50DA2272C5DFF434EF83F020EE04F09E
:100550001E50D9261F50DA22DF50206E216AFF0E6E
:100560002024FF0E2120800BD8A4B9EF82F0BBEF2E
:1005700082F0CCEF82F020EE04F01E50D9261F50FE
:10058000DA22DF50206EFF0E20240501746F756B98
:10059000FF0E7523D0EF82F00501756B050E746FA9
:1005A00020EE04F01E50D9261F50DA2274C5DFF465
:1005B00034EF83F020EE05F01E50D9261F50DA22CA
:1005C000DF50206E216AFF0E2024FF0E2120800BB9
:1005D000D8A4EDEF82F0EFEF82F000EF83F020EE91
:1005E00005F01E50D9261F50DA22DF50206EFF0E74
:1005F00020240501766F776BFF0E772304EF83F0DD
:100600000501776B090E766F20EE05F01E50D92696
:100610001F50DA2276C5DFF434EF83F07EC520F573
:100620007FC521F52150000AD8B419EF83F034EFCB
:1006300083F02050000AD8B4DCEF81F0010AD8B46E
:100640000AEF82F0030AD8B43EEF82F0010AD8B470
:1006500072EF82F0070AD8B4A6EF82F0010AD8B48C
:10066000DAEF82F034EF83F005017B6B000E7A6FD6
:100670007BBF44EF83F07B5109E1060E7A5DD8A081
:1006800044EF83F046EF83F048EF83F00CEF80F007
:100690003F0EBF12D0EF83F01EC5D9F41FC5DAF4A8
:1006A000DF50206E2050100DBE0EF324186EFE0E8B
:1006B000F420196ECAEC84F0BF9A0B0E206E620E05
:1006C000E82EFED7202EFCD700D0F6EF83F020EEE8
:1006D00001F01E50D9261F50DA22DF50206E205024
:1006E000100DBE0EF324186EFE0EF420196ECAEC27
:1006F00084F0BF985DEF83F020EE02F01E50D92603
:100700001F50DA22DF50206E2050100DBE0EF32451
:10071000186EFE0EF420196ECAEC84F0BF965DEFE1
:1007200083F020EE03F01E50D9261F50DA22DF504E
:10073000206E2050100DBE0EF324186EFE0EF42015
:10074000196ECAEC84F0BF945DEF83F020EE04F0E4
:100750001E50D9261F50DA22DF50206E2050100D77
:10076000BE0EF324186EFE0EF420196ECAEC84F04F
:10077000BF925DEF83F020EE05F01E50D9261F508A
:10078000DA22DF50206E2050100DBE0EF324186EBA
:10079000FE0EF420196ECAEC84F0BF905DEF83F07A
:1007A0007EC520F57FC521F52150000AD8B4DBEFC6
:1007B00083F0F6EF83F02050000AD8B44CEF83F0BA
:1007C000010AD8B467EF83F0030AD8B47CEF83F052
:1007D000010AD8B491EF83F0070AD8B4A6EF83F0EA
:1007E000010AD8B4BBEF83F0F6EF83F005017A4B32
:1007F0007B2B38EF83F01200CEA001EF84F003EFE3
:1008000084F030EF84F028EC8AF0000E336E000E96
:10081000346E000E356E000E366E386A000E376E7E
:100820003F0EBF12090E236E1E0E226EE40EE82E3E
:10083000FED7222EFCD7232EFAD700D08C0E1E6EA8
:10084000050E1F6E00EC80F0090E236E1E0E226E48
:10085000E40EE82EFED7222EFCD7232EFAD700D0A6
:10086000256A000E246E3F0EBF1293EF84F005013F
:100870008C51100D5E0EF324186EFF0EF420196ECD
:10088000CAEC84F0BF9A0B0E226E620EE82EFED7E1
:10089000222EFCD700D0B9EF84F005018D51100D48
:1008A0005E0EF324186EFF0EF420196ECAEC84F06D
:1008B000BF9843EF84F005018E51100D5E0EF324B6
:1008C000186EFF0EF420196ECAEC84F0BF9643EF49
:1008D00084F005018F51100D5E0EF324186EFF0E8B
:1008E000F420196ECAEC84F0BF9443EF84F0050144
:1008F0009051100D5E0EF324186EFF0EF420196E49
:10090000CAEC84F0BF9243EF84F005019151100DC1
:100910005E0EF324186EFF0EF420196ECAEC84F0FC
:10092000BF9043EF84F024C522F525C523F523505D
:10093000000AD8B49EEF84F0B9EF84F02250000A88
:10094000D8B437EF84F0010AD8B44DEF84F0030A2D
:10095000D8B45BEF84F0010AD8B469EF84F0070AD9
:10096000D8B477EF84F0010AD8B485EF84F0B9EFFA
:1009700084F0244A252A25BEC7EF84F0255009E1DA
:10098000060E245CD8A0C7EF84F0C9EF84F033EFE3
:1009900084F0120018C5F6F419C5F7F4000EF86ECD
:1009A0000800F5C41AF5010E1A161A321A32C1508F
:1009B0001A187F0B1A18C16E020E18241A6E000E38
:1009C00019201B6E1AC5F6F41BC5F7F4000EF86E5D
:1009D0000800F5C41CF5010E1C161C3A1C461C46EA
:1009E000C1501C18BF0B1C18C16E040E18241A6EBF
:1009F000000E19201B6E1AC5F6F41BC5F7F4000E85
:100A0000F86E0800F5C41CF5010E1C161C3A1C46B5
:100A1000C1501C18DF0B1C18C16E060E18241A6E6C
:100A2000000E19201B6E1AC5F6F41BC5F7F4000E54
:100A3000F86E0800F5C41CF5010E1C161C3AC150D6
:100A40001C18EF0B1C18C16E080E18241A6E000E2D
:100A500019201B6E1AC5F6F41BC5F7F4000EF86ECC
:100A60000800F5C41CF5010E1C161C321C32C050C7
:100A70001C187F0B1C18C06E0A0E18241A6E000E6C
:100A800019201B6E1AC5F6F41BC5F7F4000EF86E9C
:100A90000800F5C41CF5010E1C161C3A1C461C4629
:100AA000C0501C18BF0B1C18C06E0C0E18241A6EF8
:100AB000000E19201B6E1AC5F6F41BC5F7F4000EC4
:100AC000F86E0800F5C41CF5010E1C161C3A1C46F5
:100AD000C0501C18DF0B1C18C06E0E0E18241A6EA6
:100AE000000E19201B6E1AC5F6F41BC5F7F4000E94
:100AF000F86E0800F5C41CF5010E1C161C461C46B9
:0E0B00001C46C1501C18F70B1C18C16E1200C9
:100B1000FAC409F5FBC40AF5F6C40BF5F7C40CF5E5
:100B2000F8C40DF5F5C40EF5A4EC89F00009D8B4AD
:100B30009CEF85F09EEF85F0A6EF85F0030E326EF8
:100B40000201979B4FEC88F0EEEF85F0AFEC89F057
:100B50000009D8B4AEEF85F0B0EF85F0C2EF85F0B4
:100B600083EC89F00009D8B4B8EF85F0BAEF85F0CE
:100B7000C2EF85F0010E326E020197991AEC89F0EE
:100B8000EEEF85F08EEC89F00009D8B4CAEF85F05D
:100B9000CCEF85F0DCEF85F083EC89F00009D8B468
:100BA000D4EF85F0D6EF85F0DCEF85F0020E326EE3
:100BB00002019799BEEF85F099EC89F00009D8B44D
:100BC000E4EF85F0E6EF85F0ECEF85F0030E326E92
:100BD0000201979DEEEF85F00201979932500EC504
:100BE000F5F40DC5F8F40CC5F7F40BC5F6F40AC519
:100BF000FBF409C5FAF41100FAC402F5FBC403F5CD
:100C0000F6C404F5F7C405F5F8C406F5F5C407F510
:100C100002019BA50EEF86F010EF86F01BEF86F029
:100C20009AA515EF86F017EF86F01BEF86F040ECE3
:100C300089F04EEF86F09BAF20EF86F022EF86F032
:100C40003CEF86F09AAF27EF86F029EF86F03CEF75
:100C500086F03150D8B42FEF86F031EF86F038EFC0
:100C600086F0316A9A919A9F2DEC89F04EEF86F0CA
:100C70001AEC89F017EF86F09BA341EF86F043EF63
:100C800086F04EEF86F09AA348EF86F04AEF86F0A2
:100C90004EEF86F02BEC8AF002019A9307C5F5F42B
:100CA00006C5F8F405C5F7F404C5F6F403C5FBF46E
:100CB00002C5FAF411001D6A19BE63EF86F061EFF8
:100CC00086F069EF86F0186C191ED8B0192A010E4B
:100CD0001D6E1BBE70EF86F06EEF86F074EF86F02F
:100CE0001A6C1B1ED8B01B2A1A501B10D8B47BEFED
:100CF00086F07DEF86F0A1EF86F0010E1C6E85EF89
:100D000086F0D8901A361B361C2A1BAE8AEF86F066
:100D10008CEF86F081EF86F01A50185C1B50195842
:100D2000D8A095EF86F097EF86F09BEF86F01A50EB
:100D3000185E1B50195AD8901B321A321C2E8CEF99
:100D400086F01D50D8B4A7EF86F0A9EF86F0ADEF7E
:100D500086F0186C191ED8B0192A18C518F519C5CF
:100D600019F512000501912B090E9165BAEF86F075
:100D7000BCEF86F0FAEF86F0916B902B050E906534
:100D8000C4EF86F0C6EF86F0FAEF86F0906B8F2BFB
:100D9000090E8F65CEEF86F0D0EF86F0FAEF86F081
:100DA0008F6B8E2B050E8E65D8EF86F0DAEF86F00E
:100DB000FAEF86F08E6B8D2B090E8D65E2EF86F0D3
:100DC000E4EF86F0FAEF86F08D6B8C2B010E8C65CC
:100DD000ECEF86F0EEEF86F0FAEF86F08C0E186EF0
:100DE000050E196E1B6A000E1A6E1D6A060E1C6E29
:100DF0006EEC88F01200BE6ABF6A180EC06EC16A3F
:100E0000C26A0401026B0A6B180E126F1A6B226B16
:100E1000C668C768E70EC86EC9680F0ECA6E00695B
:100E20000869E70E106F1869070E206F016B096BD8
:100E3000116B196B216B03690B6913691B69070E31
:100E4000236F04690C6914691C690F0E246F020179
:100E5000896B886B876B866B130E716F370E146FFF
:100E6000140E706F380E156F0401056B066B076B5F
:100E70000D6B0E6B0F6B156B166B176B256B266B63
:100E8000276B1200010E3326000E34223522362243
:100E9000374A382AE80E375C030E3858D8A053EF8B
:100EA00087F055EF87F062EF87F03D50D8A45BEFF5
:100EB00087F05DEF87F062EF87F0010E3C6E386AD5
:100EC000000E376E3D50D8A468EF87F06AEF87F0C8
:100ED00083EF87F036500DE1A00E335CBB0E345823
:100EE0000D0E3558D8A077EF87F079EF87F083EFB4
:100EF00087F0010E3B6E000E336E000E346E000E56
:100F0000356E000E366E1200D68A000ED6BE010E69
:100F10001B6ED69E550E0401596FAA0E596F59913A
:100F20005F6B5E6B080E5D6F550E596FAA0E596FA1
:100F300059811BB002D0D69E01D0D68E0301658F99
:100F40006981698369856987AF90D680760E186E4E
:100F5000140E196E010E1A6E09EC8AF0B490D68246
:100F6000780E186E140E196E010E1A6E02EC8AF0CD
:100F7000B890D6847A0E186E140E196E010E1A6E81
:100F8000FBEC89F0120078EC89F084EC87F0FBEC44
:100F900087F0FBEC87F004EC89F0840E186E0E0EDF
:100FA000196E010E1A6EF4EC89F025EC8AF03D50B2
:100FB000D8A4DDEF87F0DFEF87F0F5EF87F03C5046
:100FC000D8B4E5EF87F0E7EF87F0EAEF87F0B2EC0F
:100FD00086F03C6A3B50D8B4F0EF87F0F2EF87F030
:100FE000F5EF87F0D69ED68E3B6AFCEC83F0D7EF08
:100FF00087F081EF00F0040E0201946F800E956F70
:10100000280E966F020E9C6F9A6B9B6B976B8D6B85
:10101000510E876F510E866FBAEC89F002019B91D9
:101020009B95948F050EE82EFED70000000000006F
:10103000000000000000000002019A919A959B8533
:10104000000E0501896F000E8A6F000E8B6F120073
:10105000FAC416F5FBC417F53A500301196F39C5E8
:1010600018F30501925193119411D8B43AEF88F016
:101070003CEF88F049EF88F002D849EF88F005008E
:10108000FA6E9251FD6E9351FE6E9451FF6EFA50BE
:101090001200B19E17C5FBF416C5FAF4110034EC2A
:1010A0008AF010EC8AF0ECEC89F021EC8AF0020175
:1010B000949FCEEC89F002019B919B95948F050E35
:1010C000E82EFED700000000000000000000000035
:1010D000000002019A919A959B85120018C51EF591
:1010E00019C51FF57CEF88F01EC5D9F41FC5DAF4C9
:1010F0001AC5DFF41E4A1F2A1C06D8A01D061C288C
:1011000006E11D28D8A487EF88F089EF88F074EFF6
:1011100088F01200060E0301196F186B700E1B6F1A
:101120001951186E1851396E18C53AF57C0E050123
:10113000926F140E936F010E946FB19EA18E900E5C
:1011400003011A6F12000501865187118811D8B466
:10115000ACEF88F0AEEF88F0BBEF88F002D8BBEFC1
:1011600088F00500FA6E8651FD6E8751FE6E88513B
:10117000FF6EFA501200120005018351841185118F
:10118000D8B4C5EF88F0C7EF88F0D4EF88F002D864
:10119000D4EF88F00500FA6E8351FD6E8451FE6E27
:1011A0008551FF6EFA501200120005018051811125
:1011B0008211D8B4DEEF88F0E0EF88F0EDEF88F030
:1011C00002D8EDEF88F00500FA6E8051FD6E815176
:1011D000FE6E8251FF6EFA501200120001EE80F195
:1011E000120EEE6AE806FDE101EE26F1180EEE6A37
:1011F000E806FDE10401080E5D6F000E5E6F000E53
:101200005F6F0001C3EF87F00401006B086B106B88
:10121000186BC00EC716C99EC99CC99AC998C996B1
:10122000C89EC89CC89AC680C682C684D68AD68EF6
:10123000D68C12002BEC8AF02EEC8AF00009D8B480
:1012400024EF89F026EF89F02CEF89F0000E19ECDD
:101250008AF0000E15EC8AF012002F503010D8B42E
:1012600034EF89F036EF89F039EF89F02F5019EC1F
:101270008AF0D88027341DEC8AF031EC8AF0120015
:10128000266A000E286E2768000E296E000E2A6E50
:10129000000E2D6E000E2E6E34EC8AF010EC8AF0EB
:0612A00021EC8AF01200AF
:1012A800FAC410F5FBC411F5AF90A3EC88F011C592
:1012B800FBF410C5FAF41100FAC412F5FBC413F5D7
:1012C800B490BCEC88F013C5FBF412C5FAF4110015
:1012D800FAC414F5FBC415F5B890D5EC88F015C51B
:1012E800FBF414C5FAF41100C4EC89F0FBEC86F0A9
:1012F8008AEC88F0FBEC87F084EC87F0120002019E
:1013080095BB89EF89F08CEF89F0010E8DEF89F09C
:10131800000E1200020198B794EF89F097EF89F058
:10132800010E98EF89F0000E1200020197BD9FEFA1
:1013380089F0A2EF89F0010EA3EF89F0000E1200E8
:10134800020197BBAAEF89F0ADEF89F0010EAEEF6D
:1013580089F0000E1200020198A7B5EF89F0B8EFE6
:1013680089F0010EB9EF89F0000E1200A584A58658
:10137800A580A58202019B859B839B8F9781120084
:10138800600E0001AD6FAF6BB36B080EB16FB06B41
:10139800AC6B1200A584A586A580A58202019B8559
:1013A8009B839B8F9781120037EC8AF02DC5D9F467
:1013B8002EC5DAF4DF6E2D4A2E2A110029C5D9F47C
:1013C8002AC5DAF4294A2A2ADF5015EC8AF01100D6
:1013D800A594A596A590A59202019B6B976B120008
:1013E80018C592F519C593F51AC594F5120018C5D4
:1013F80080F519C581F51AC582F5120018C583F55F
:1014080019C584F51AC585F5120018C586F519C5DC
:1014180087F51AC588F512000201979B979D979941
:1014280012000F6E0FC58CF21200086E08C58DF2FF
:101438001200016E01C58FF212000201996B9985A5
:10144800120003011A8F120003011A9F12000201F1
:10145800949D120002018D5112000201948B12001A
:1014680002019A6B120002018B5112001100120046
:0614780012001200120038
:020000040030CA
:080000008CFFFFFF9FFFFFFFD3
:01000900FFF7
:00000001FF
