:04000000FEEFFFF020
:102600000000030E0001B16F0401106BC790C79268
:10261000C99EC99CC99AC998C996C89EC89CC89A9F
:10262000BF90BF9221EE41F111EE1BF10F0EDBC402
:10263000E3F4E806FCE221EE09F1110EDE6AE80699
:10264000FDE22E6A000E2D6E3EEF13F0C19E75EF77
:1026500013F0C19C75EF13F0C19A75EF13F0C19898
:1026600075EF13F0C19675EF13F0C09E75EF13F080
:10267000C09C75EF13F0C09A75EF13F0D8902D340D
:10268000D96E2E34DA6E1B0ED926050EDA22DEC480
:1026900007F5DDC408F50850000AD8B452EF13F06E
:1026A00075EF13F00750000AD8B426EF13F0010AB3
:1026B000D8B429EF13F0030AD8B42CEF13F0010AB1
:1026C000D8B42FEF13F0070AD8B432EF13F0010A91
:1026D000D8B435EF13F0030AD8B438EF13F0010A79
:1026E000D8B43BEF13F075EF13F02D4A2E2A2EBE0F
:1026F00083EF13F02E5009E1080E2D5CD8A083EF74
:1027000013F085EF13F03EEF13F02C6A000E2B6EE2
:10271000026A000E016E046A000E036E92EC13F062
:10272000FEEFFFF0C18E014A022A030E066E8A0EEA
:10273000056E560EE82EFED7052EFCD7062EFAD7CC
:10274000C19E030E066E8A0E056E560EE82EFED74B
:10275000052EFCD7062EFAD702BEB8EF13F00250B2
:1027600009E10A0E015CD8A0B8EF13F0BAEF13F03C
:10277000BFEF13F0026A000E016E034A042A04BE82
:10278000CBEF13F0045009E1180E035CD8A0CBEF97
:1027900013F0CDEF13F092EF13F002BED9EF13F068
:1027A000025009E10A0E015CD8A0D9EF13F0DBEF6B
:1027B00013F092EF13F0026A000E016E046A000E2D
:1027C000036E92EF13F01200FA0EF66E270EF76EFC
:1027D000000EF86E01EE41F110EE10F00900F5C4A4
:1027E000EEF4E550E150FAE101EE2FF1120EEE6A3F
:1027F000E806FDE1000101EF13F000000100020016
:0A28000003000400050006000700B5
:020000040001F9
:04FFFC00E4EF13F02B
:020000040030CA
:01000000EC13
:01000200FEFF
:010004009F5C
:00000001FF
