:040000000DEF00F010
:0400080013EF15F0ED
:06001800FF00CAEF15F025
:1026000000422B000000000000000000000000005D
:1026100000000000000000000000000000000000BA
:102620001BC5D9F41CC5DAF4DF501D6E010E1D1652
:102630001D321D32C1501D187F0B1D18C16E20EEBA
:1026400002F01B50D9261C50DA22DF501D6E010EFD
:102650001D161D3A1D461D46C1501D18BF0B1D18E5
:10266000C16E20EE04F01B50D9261C50DA22DF5038
:102670001D6E010E1D161D3A1D46C1501D18DF0BA3
:102680001D18C16E20EE06F01B50D9261C50DA2210
:10269000DF501D6E010E1D161D3AC1501D18EF0BA7
:1026A0001D18C16E20EE08F01B50D9261C50DA22EE
:1026B000DF501D6E010E1D161D321D32C0501D183B
:1026C0007F0B1D18C06E20EE0AF01B50D9261C503F
:1026D000DA22DF501D6E010E1D161D3A1D461D46E5
:1026E000C0501D18BF0B1D18C06E20EE0CF01B5003
:1026F000D9261C50DA22DF501D6E010E1D161D3A20
:102700001D46C0501D18DF0B1D18C06E20EE0EF0C8
:102710001B50D9261C50DA22DF501D6E010E1D16EB
:102720001D461D461D46C1501D18F70B1D18C16ED4
:1027300012000401106BC8EC16F0D68ED68CC79030
:10274000C792C794C796C798C79AC99EC99CC99A89
:10275000C998C996C89EC89CC89AC150C150C1505A
:10276000C150C050C050C050C15021EE60F111EEB8
:1027700000F29F0EDEC4E6F4E806FCE2A00ED95E8D
:10278000E15E0601A16B000EA06FBF80BF82BF8417
:10279000BF86BF88BF8AE5EF13F0BF9A000E1B6E9D
:1027A000000E1C6E10EC13F00BEF14F0BF98CEEF80
:1027B00013F0BF96CEEF13F0BF94CEEF13F0BF929D
:1027C000CEEF13F0BF90CEEF13F0A0C61EF5A1C65A
:1027D0001FF51F50000AD8B4F0EF13F00BEF14F000
:1027E0001E50000AD8B4CDEF13F0010AD8B4D6EFCA
:1027F00013F0030AD8B4D9EF13F0010AD8B4DCEF10
:1028000013F0070AD8B4DFEF13F0010AD8B4E2EFEF
:1028100013F00BEF14F00601A04BA12BA1BF1AEF90
:1028200014F0A15109E1060EA05DD8A01AEF14F032
:102830001CEF14F0C5EF13F0C1EF13F00DEF00F033
:1028400080EC16F00009D8B428EF14F02AEF14F049
:1028500032EF14F0030E0D6E0201979B0AEC16F096
:102860007AEF14F08BEC16F00009D8B43AEF14F0BC
:102870003CEF14F04EEF14F05FEC16F00009D8B402
:1028800044EF14F046EF14F04EEF14F0010E0D6E0D
:10289000020197994CEC16F07AEF14F06AEC16F0FE
:1028A0000009D8B456EF14F058EF14F068EF14F0A4
:1028B0005FEC16F00009D8B460EF14F062EF14F08A
:1028C00068EF14F0020E0D6E020197994AEF14F0B2
:1028D00075EC16F00009D8B470EF14F072EF14F034
:1028E00078EF14F0030E0D6E0201979D7AEF14F04D
:1028F000020197990D501200000000000100010034
:1029000001000100010001000000000000000000C3
:1029100000000100010000000000010000000100B3
:1029200001000000010001000000010000000000A3
:102930000100010001000100000001000100000091
:102940000000010001000000000001000100000083
:102950000100010000000100000001000100010071
:102960000100010000000100000000000000000064
:102970000000010001000100000001000100010051
:102980000100010001000100000001000100000041
:102990000100010001000100BE6ABF6A180EC06E8E
:1029A000C16AC26A0401026B0A6B180E126F1A6BBD
:1029B000226BC668C768E70EC86EC9680F0ECA6E7C
:1029C00000690869E70E106F1869070E206F016B28
:1029D000096B116B196B216B03690B6913691B6917
:1029E000070E236F04690C6914691C690F0E246FAC
:1029F0000201896B886B876B866B130E716F370EC4
:102A0000146F140E706F380E156F0401056B066B92
:102A1000076B0D6B0E6B0F6B156B166B176B256BC6
:102A2000266B276B1200A5A618EF15F01AEF15F00C
:102A300025EF15F0B5A61FEF15F021EF15F025EFE6
:102A400015F020EC14F059EF15F0A5A02AEF15F0C1
:102A50002CEF15F037EF15F0B5A031EF15F033EF8F
:102A600015F037EF15F0B4EC16F059EF15F0A5A4FA
:102A70003CEF15F03EEF15F049EF15F0B5A443EF2C
:102A800015F045EF15F049EF15F05AEC15F059EF38
:102A900015F0A5A24EEF15F050EF15F059EF15F017
:102AA000B5A255EF15F057EF15F059EF15F0AAEC58
:102AB00016F0110002019BA560EF15F062EF15F012
:102AC0006DEF15F09AA567EF15F069EF15F06DEF52
:102AD00015F039EC16F0A0EF15F09BAF72EF15F082
:102AE00074EF15F08EEF15F09AAF79EF15F07BEFDC
:102AF00015F08EEF15F00C50D8B481EF15F083EF80
:102B000015F08AEF15F00C6A9A919A9F26EC16F050
:102B1000A0EF15F04CEC16F069EF15F09BA393EFC6
:102B200015F095EF15F0A0EF15F09AA39AEF15F0B8
:102B30009CEF15F0A0EF15F009EC17F002019A9345
:102B40001200040E0201946F800E956F280E966F8E
:102B5000020E9C6F9A6B9B6B976B8D6B510E876F00
:102B6000510E866F96EC16F002019B919B95948F07
:102B700000D0000000000000000000000000020182
:102B80009A919A959B85000E176E000E186E000E96
:102B9000196E1200F80EF66E280EF76E000EF86E23
:102BA00001EE60F110EEA0F00900F5C4EEF4E5507E
:102BB000E150FAE101EE01F1190EEE6AE806FDE1DD
:102BC0000401080E5D6F000E5E6F000E5F6F000166
:102BD00099EF13F0D69AAF90D680000E1B6E000EC0
:102BE0001C6E000E1D6EE7EC16F0B490D682000E3F
:102BF0001B6E000E1C6E000E1D6EE0EC16F0B89001
:102C0000D684000E1B6E000E1C6E000E1D6ED9ECDD
:102C100016F012000FEC17F0EEEC16F0D1EC16F0F7
:102C2000FFEC16F00201949FBEEC16F002019B919E
:102C30009B95948F00D00000000000000000000071
:102C4000000002019A919A959B8512000A500B1080
:102C5000D8B42DEF16F02FEF16F032EF16F00A5021
:102C6000FBEC16F0D8800234F3EC16F006EC17F00B
:102C70001200016A000E036E0268000E046E000E60
:102C8000056E000E086E000E096E0FEC17F0EEECEC
:102C900016F0FFEC16F0120009EC17F00CEC17F030
:102CA0000009D8B456EF16F058EF16F05EEF16F0A4
:102CB000000EFBEC16F0000EF7EC16F0120002010D
:102CC00095BB65EF16F068EF16F0010E69EF16F090
:102CD000000E1200020198B770EF16F073EF16F0B5
:102CE000010E74EF16F0000E1200020197BD7BEF8B
:102CF00016F07EEF16F0010E7FEF16F0000E1200B8
:102D0000020197BB86EF16F089EF16F0010E8AEFED
:102D100016F0000E1200020198A791EF16F094EF42
:102D200016F0010E95EF16F0000E1200A584A58690
:102D3000A580A58202019B859B839B8F97811200B2
:102D4000630E0001AD6FAF6BB36B080EB16FB06B6C
:102D5000AC6B120004C5D9F405C5DAF4044A052A9F
:102D6000DF50F7EC16F0120003EC17F008C5D9F4A9
:102D700009C5DAF4DF6E084A092A1200A584A5867F
:102D8000A580A58202019B859B839B8F9781120062
:102D9000A0EC16F0CCEC14F0A1EC15F0EAEC15F078
:102DA0001200A594A596A590A59202019B6B976B26
:102DB00012001BC50EF51CC50FF51DC510F5120040
:102DC0001BC511F51CC512F51DC513F512001BC559
:102DD00014F51CC515F51DC516F512000201979BCB
:102DE000979D979912001A6E1AC58FF212001A6EEB
:102DF0001AC58CF212001A6E1AC58DF21200020169
:102E0000996B9985120002018B5112000201948B7B
:102E100012000201949D120002018D511200020164
:042E20009A6B120097
:020000040030CA
:080000008FFFF7FF9FFFFFFFD8
:01000900FFF7
:00000001FF
