:0400000081EF00F09C
:100008004E0F4E0F4E0F4E0F40004E0F40004E0F3A
:10001800D20E4E0F4E0F4E0F4E0F4E0F4E0F4E0F6D
:100028004E0F4000400040004E0F4E0F4E0F4E0F37
:100038004E0F4E0F4E0F4E0F4E0F4E0F4E0FCE0D52
:100048004E0F4E0F4E0F4E0F400040004E0F4E0FFA
:100058004E0F4E0F4E0F40004E0F4E0F4E0F4E0FCD
:10006800D80E4E0F4E0F4E0F4E0F4E0F4E0F4E0F17
:10007800140F190F530D6E0C40004E0F4E0F4E0FFC
:100088004E0F4E0F4E0F4E0F4E0F4E0F4E0F4E0F80
:100098004E0F4E0F4E0F4E0F40004E0F40004000C7
:1000A800DE0E4E0F4E0F4E0F4E0F4E0F4E0F4E0FD1
:1000B8004E0F4E0F4E0F4E0F4E0F4E0F4E0F4E0F50
:1000C8004E0F4E0F4E0F4E0F4E0F4E0F4E0F4E0F40
:1000D8004E0F4E0F4E0F4E0F4E0F4E0F4E0F4E0F30
:1000E80040004E0F4E0F4E0F4000400040004000B1
:0E00F8004E0F4E0F4E0F4E0FFF0018EF1DF073
:10260000003A3900000000FA3C00003D00000000E4
:10261000000000000000000000000000883C0000F6
:102620000000DE3600000000D237000000008637D0
:1026300000000000000000883A00243B0000000079
:102640000100010101010101010000000001010080
:10265000010100010100010101010000010101016E
:10266000010101000001010001010100010100015F
:10267000010101010101000101000000000101014F
:10268000010101010101010101010100010101013B
:102690000000010101010101000000000001010032
:1026A0000001000101000101000100000101010120
:1026B0000001010000010100000101000101000111
:1026C0000001010101010001000000000001010101
:1026D00000010101010101010001010001010101ED
:0126E00000F9
:1026E200010E4E6E3A6A040E396E386A000E376E6B
:1026F200346A640E336E1A6A000E196ECEA284EF2B
:1027020013F086EF13F0D5EF13F0374A382AD00EC4
:10271200176ECA0EE82EFED7172EFCD73750335C41
:102722003450800A176E3850800A1758D8B09CEF80
:1027320013F09EEF13F00BEF14F04D6A2CEC1CF02B
:10274200AEEF13F0D00E176ECA0EE82EFED7172E7C
:10275200FCD7194A1A2A3F0EBF124D50D8A4B4EF23
:1027620013F0B6EF13F0C4EF13F01ABEC2EF13F07A
:102772001A5009E1640E195CD8A0C2EF13F0C4EF3D
:1027820013F0A3EF13F04E6A090E186E1E0E176EA9
:10279200E40EE82EFED7172EFCD7182EFAD700D05B
:1027A2007DEC1EF06FEF17F038BEE1EF13F03850FA
:1027B20009E1060E375CD8A0E1EF13F0E3EF13F066
:1027C20001EF14F03350375C3850800A176E3450E2
:1027D200800A1758D8B0F0EF13F0F2EF13F001EFC0
:1027E20014F0010E39240E6E000E3A200F6E116A9B
:1027F200060E106EB4EC19F00EC539F50FC53AF598
:10280200386A000E376ED00E176ECA0EE82EFED74B
:10281200172EFCD7CEA010EF14F012EF14F041EFF8
:1028220015F0190E186E5A0E176EB20EE82EFED75C
:10283200172EFCD7182EFAD71BEF15F015C5D9F4B1
:1028420016C5DAF4020EDF6029EF14F02BEF14F054
:1028520039EF14F015C5D9F416C5DAF4DF50176E46
:10286200010E17241B6E1C6A000E1C223CEF14F092
:102872001C6A000E1B6E15C5D9F416C5DAF41BC509
:10288200DFF441EF15F020EE01F01550D926165075
:10289200DA22090EDF6050EF14F052EF14F062EF0B
:1028A20014F020EE01F01550D9261650DA22DF502E
:1028B200176E010E17241D6E1E6A000E1E2265EF92
:1028C20014F01E6A000E1D6E20EE01F01550D9267E
:1028D2001650DA221DC5DFF441EF15F020EE02F0AA
:1028E2001550D9261650DA22050EDF607BEF14F060
:1028F2007DEF14F08DEF14F020EE02F01550D92682
:102902001650DA22DF50176E010E17241F6E206A4E
:10291200000E202290EF14F0206A000E1F6E20EEAF
:1029220002F01550D9261650DA221FC5DFF441EF06
:1029320015F020EE03F01550D9261650DA22090EB2
:10294200DF60A6EF14F0A8EF14F0B8EF14F020EE59
:1029520003F01550D9261650DA22DF50176E010EF9
:102962001724216E226A000E2222BBEF14F0226A83
:10297200000E216E20EE03F01550D9261650DA22F1
:1029820021C5DFF441EF15F020EE04F01550D926F1
:102992001650DA22050EDF60D1EF14F0D3EF14F0F7
:1029A200E3EF14F020EE04F01550D9261650DA2287
:1029B200DF50176E010E1724236E246A000E2422A4
:1029C200E6EF14F0246A000E236E20EE04F0155098
:1029D200D9261650DA2223C5DFF441EF15F020EE96
:1029E20005F01550D9261650DA22090EDF60FCEFE9
:1029F20014F0FEEF14F00EEF15F020EE05F0155076
:102A0200D9261650DA22DF50176E010E1724256ED2
:102A1200266A000E262211EF15F0266A000E256E98
:102A220020EE05F01550D9261650DA2225C5DFF41E
:102A320041EF15F039C517F53AC518F51850000AD7
:102A4200D8B426EF15F041EF15F01750000AD8B4AC
:102A52001FEF14F0010AD8B444EF14F0030AD8B4FB
:102A62006FEF14F0010AD8B49AEF14F0070AD8B441
:102A7200C5EF14F0010AD8B4F0EF14F041EF15F0ED
:102A8200CEA446EF15F048EF15F0A1EF16F0190E9F
:102A9200186E5A0E176EB20EE82EFED7172EFCD7FE
:102AA200182EFAD77BEF16F015C5D9F416C5DAF44D
:102AB200DF50176E186AFF0E1724FF0E1820800BC6
:102AC200D8A466EF15F068EF15F076EF15F015C58E
:102AD200D9F416C5DAF4DF50176EFF0E1724276EED
:102AE200286AFF0E282279EF15F0286A020E276E57
:102AF20015C5D9F416C5DAF427C5DFF4A1EF16F02F
:102B020020EE01F01550D9261650DA22DF50176E4A
:102B1200186AFF0E1724FF0E1820800BD8A494EF1A
:102B220015F096EF15F0A6EF15F020EE01F0155016
:102B3200D9261650DA22DF50176EFF0E1724296E9F
:102B42002A6AFF0E2A22A9EF15F02A6A090E296EB7
:102B520020EE01F01550D9261650DA2229C5DFF4ED
:102B6200A1EF16F020EE02F01550D9261650DA2207
:102B7200DF50176E186AFF0E1724FF0E1820800B05
:102B8200D8A4C6EF15F0C8EF15F0D8EF15F020EE77
:102B920002F01550D9261650DA22DF50176EFF0EBA
:102BA20017242B6E2C6AFF0E2C22DBEF15F02C6AF9
:102BB200050E2B6E20EE02F01550D9261650DA22A1
:102BC2002BC5DFF4A1EF16F020EE03F01550D92645
:102BD2001650DA22DF50176E186AFF0E1724FF0E06
:102BE2001820800BD8A4F8EF15F0FAEF15F00AEFD1
:102BF20016F020EE03F01550D9261650DA22DF50D7
:102C0200176EFF0E17242D6E2E6AFF0E2E220DEF69
:102C120016F02E6A090E2D6E20EE03F01550D926FD
:102C22001650DA222DC5DFF4A1EF16F020EE04F0E3
:102C32001550D9261650DA22DF50176E186AFF0E89
:102C42001724FF0E1820800BD8A42AEF16F02CEFC1
:102C520016F03CEF16F020EE04F01550D92616506F
:102C6200DA22DF50176EFF0E17242F6E306AFF0E26
:102C720030223FEF16F0306A050E2F6E20EE04F080
:102C82001550D9261650DA222FC5DFF4A1EF16F01F
:102C920020EE05F01550D9261650DA22DF50176EB5
:102CA200186AFF0E1724FF0E1820800BD8A45CEFC1
:102CB20016F05EEF16F06EEF16F020EE05F01550EE
:102CC200D9261650DA22DF50176EFF0E1724316E06
:102CD200326AFF0E322271EF16F0326A090E316E3D
:102CE20020EE05F01550D9261650DA2231C5DFF450
:102CF200A1EF16F039C517F53AC518F51850000AB4
:102D0200D8B486EF16F0A1EF16F01750000AD8B427
:102D120055EF15F0010AD8B481EF15F0030AD8B4C3
:102D2200B3EF15F0010AD8B4E5EF15F0070AD8B4ED
:102D320017EF16F0010AD8B449EF16F0A1EF16F01A
:102D420015C5D9F416C5DAF4020EDE18D8A4ACEF14
:102D520016F0AEEF16F0C8EF16F020EE01F01550A7
:102D6200D9261650DA22030EDF64BAEF16F0BCEF52
:102D720016F0C8EF16F015C5D9F416C5DAF4DF6AF5
:102D820020EE01F01550D9261650DA22DF6A366A93
:102D9200000E356E36BED7EF16F0365009E1060E3C
:102DA200355CD8A0D7EF16F0D9EF16F0DBEF16F0AE
:102DB2007FEF13F03F0EBF1245EF17F015C5D9F4A0
:102DC20016C5DAF4DF50080DF350400F0E6E2CECEE
:102DD20018F0BF940B0E176E620EE82EFED7172E58
:102DE200FCD700D06BEF17F020EE01F01550D9267A
:102DF2001650DA22DF50080DF350400F0E6E2CEC05
:102E020018F0BF96EBEF16F020EE02F01550D9261F
:102E12001650DA22DF50080DF350400F0E6E2CECE4
:102E220018F0BF98EBEF16F020EE03F01550D926FC
:102E32001650DA22DF50080DF350400F0E6E2CECC4
:102E420018F0BF9AEBEF16F020EE04F01550D926D9
:102E52001650DA22DF50080DF350400F0E6E2CECA4
:102E620018F0BF92EBEF16F020EE05F01550D926C0
:102E72001650DA22DF50080DF350400F0E6E2CEC84
:102E820018F0BF90EBEF16F039C517F53AC518F5F3
:102E92001850000AD8B450EF17F06BEF17F0175024
:102EA200000AD8B4DFEF16F0010AD8B4F5EF16F035
:102EB200030AD8B405EF17F0010AD8B415EF17F0DA
:102EC200070AD8B425EF17F0010AD8B435EF17F086
:102ED2006BEF17F0354A362ACBEF16F01200CEA26E
:102EE20075EF17F077EF17F0A7EF17F080EC1EF0F1
:102EF200000E0501606F000E616F000E626F000E22
:102F0200636F756B000E746F3F0EBF12090E0501E1
:102F1200816F1E0E806FE40EE82EFED7802FFCD745
:102F2200812FFAD70000760E156E050E166E71EC23
:102F320013F0090E0501816F1E0E806FE40EE82E5C
:102F4200FED7802FFCD7812FFAD700000501836BB3
:102F5200000E826F3F0EBF12F4EF17F07651080D8C
:102F6200F350900F0E6E2CEC18F0BF940B0E05016F
:102F7200806F620EE82EFED7802FFCD700001AEF7A
:102F820018F07751080DF350900F0E6E2CEC18F0DC
:102F9200BF96B7EF17F07851080DF350900F0E6EF1
:102FA2002CEC18F0BF98B7EF17F07951080DF350D9
:102FB200900F0E6E2CEC18F0BF9AB7EF17F07A5103
:102FC200080DF350900F0E6E2CEC18F0BF92B7EF75
:102FD20017F07B51080DF350900F0E6E2CEC18F089
:102FE200BF90B7EF17F082C580F583C581F5815197
:102FF200000AD8B4FFEF17F01AEF18F08051000A58
:10300200D8B4AFEF17F0010AD8B4C2EF17F0030A31
:10301200D8B4CCEF17F0010AD8B4D6EF17F0070AEC
:10302200D8B4E0EF17F0010AD8B4EAEF17F01AEFBC
:1030320018F00501824B832B83BF29EF18F08351CF
:1030420009E1060E825DD8A029EF18F02BEF18F0E7
:10305200ABEF17F012000EC5F6F4260EF76E000E57
:10306200F86E0800F5C40FF5010E0F160F460F4655
:103072000F46C1500F18F70B0F18C16E0EC50FF592
:10308200010E0F260FC5F6F4260EF76E000EF86E2F
:103092000800F5C410F5010E101610321032C1509E
:1030A20010187F0B1018C16E0EC50FF5020E0F26F9
:1030B2000FC5F6F4260EF76E000EF86E0800F5C482
:1030C20010F5010E1016103A10461046C150101895
:1030D200BF0B1018C16E0EC50FF5030E0F260FC5DC
:1030E200F6F4260EF76E000EF86E0800F5C410F521
:1030F200010E1016103A1046C1501018DF0B1018AE
:10310200C16E0EC50FF5040E0F260FC5F6F4260E7E
:10311200F76E000EF86E0800F5C410F5010E1016D9
:10312200103AC1501018EF0B1018C16E0EC50FF5F2
:10313200050E0F260FC5F6F4260EF76E000EF86E7A
:103142000800F5C410F5010E101610321032C050EE
:1031520010187F0B1018C06E0EC50FF5060E0F2645
:103162000FC5F6F4260EF76E000EF86E0800F5C4D1
:1031720010F5010E1016103A10461046C0501018E5
:10318200BF0B1018C06E0EC50FF5070E0F260FC528
:10319200F6F4260EF76E000EF86E0800F5C410F570
:1031A200010E1016103A1046C0501018DF0B1018FE
:0431B200C06E1200D9
:1031B800FAC403F5FBC404F5F4EC1DF00009D8B417
:1031C800E8EF18F0EAEF18F0F2EF18F0030E476E88
:1031D8000201979B0DEC1CF03AEF19F0FFEC1DF083
:1031E8000009D8B4FAEF18F0FCEF18F00EEF19F058
:1031F800D3EC1DF00009D8B404EF19F006EF19F06C
:103208000EEF19F0010E476E0201979959EC1DF067
:103218003AEF19F0DEEC1DF00009D8B416EF19F0FA
:1032280018EF19F028EF19F0D3EC1DF00009D8B405
:1032380020EF19F022EF19F028EF19F0020E476E6F
:10324800020197990AEF19F0E9EC1DF00009D8B4CA
:1032580030EF19F032EF19F038EF19F0030E476E1E
:103268000201979D3AEF19F0020197994750D8B497
:1032780040EF19F042EF19F050EF19F002D850EF73
:1032880019F00500FA6E05017151FD6E7251FE6E5E
:103298007351FF6EFA50120004C5FBF403C5FAF42B
:1032A8001100C8EC1DF030EC1BF06FEC1BF06FEC5C
:1032B8001BF02EEC1DF02A0E0E6E3D0E0F6E000E4A
:1032C800106E92EC1DF0DA0E0E6E350E0F6E000EBB
:1032D800106E44EC1EF07DEC1EF0D68ED68C4E504F
:1032E800D8A479EF19F07BEF19F0AEEF19F04C5034
:1032F800D8B481EF19F083EF19F086EF19F00BECD1
:103308001AF04C6A4B50D8B48CEF19F08EEF19F0C4
:1033180093EF19F0D69ED68E01EC1DF04B6A4D50F6
:10332800D8A499EF19F09BEF19F09CEF19F04A6AAD
:103338004A50D8B4A2EF19F0A4EF19F0AEEF19F083
:103348004D50D8B4AAEF19F0ACEF19F0AEEF19F060
:1033580083EC1CF070EC17F073EF19F081EF00F0BC
:10336800136A0FBEBCEF19F0BAEF19F0C2EF19F0EB
:103378000E6C0F1ED8B00F2A010E136E11BEC9EFC6
:1033880019F0C7EF19F0CDEF19F0106C111ED8B075
:10339800112A10501110D8B4D4EF19F0D6EF19F043
:1033A800FAEF19F0010E126EDEEF19F0D890103610
:1033B8001136122A11AEE3EF19F0E5EF19F0DAEF42
:1033C80019F010500E5C11500F58D8A0EEEF19F0FC
:1033D800F0EF19F0F4EF19F010500E5E11500F5A7B
:1033E800D89011321032122EE5EF19F01350D8B4DC
:1033F80000EF1AF002EF1AF006EF1AF00E6C0F1E2B
:10340800D8B00F2A0EC50EF50FC50FF5120005012D
:103418007B2B090E7B6513EF1AF015EF1AF05EEFA0
:103428001AF07B6B7A2B050E7A651DEF1AF01FEFE9
:103438001AF05EEF1AF07A6B792B090E796527EF8F
:103448001AF029EF1AF05EEF1AF0796B782B050E57
:10345800786531EF1AF033EF1AF05EEF1AF0786BF7
:10346800772B020E7619D8A43CEF1AF03EEF1AF02B
:1034780054EF1AF0030E776544EF1AF046EF1AF08E
:1034880054EF1AF0760E0E6E050E0F6E116A000ECE
:10349800106E136A060E126E67EC1CF05EEF1AF0DF
:1034A800090E77655AEF1AF05CEF1AF05EEF1AF022
:1034B800776B762B1200BE6ABF6A180EC06EC16A9F
:1034C800C26A0401026B0A6B180E126F1A6B226B28
:1034D800C668C768E70EC86EC9680F0ECA6E00696D
:1034E8000869E70E106F1869070E206F016B096BEA
:1034F800116B196B216B03690B6913691B69070E43
:10350800236F04690C6914691C690F0E246F02018A
:10351800896B886B876B866B130E716F370E146F10
:10352800140E706F380E156F0401056B066B076B70
:103538000D6B0E6B0F6B156B166B176B256B266B74
:10354800276B120002019BA5ACEF1AF0AEEF1AF040
:10355800B9EF1AF09AA5B3EF1AF0B5EF1AF0B9EF70
:103568001AF07FEC1DF0ECEF1AF09BAFBEEF1AF0EB
:10357800C0EF1AF0DAEF1AF09AAFC5EF1AF0C7EFFA
:103588001AF0DAEF1AF04650D8B4CDEF1AF0CFEFB0
:103598001AF0D6EF1AF0466A9A919A9F6CEC1DF0D1
:1035A800ECEF1AF059EC1DF0B5EF1AF09BA3DFEF22
:1035B8001AF0E1EF1AF0ECEF1AF09AA3E6EF1AF01E
:1035C800E8EF1AF0ECEF1AF089EC1EF002019A937A
:1035D8001100010E05016027000E61236223632399
:1035E800744B752BE80E745D030E7559D8A0FFEF68
:1035F8001AF001EF1BF00EEF1BF04E50D8A407EFA6
:103608001BF009EF1BF00EEF1BF0010E4C6E756BF3
:10361800000E746F4E50D8A414EF1BF016EF1BF079
:103628002FEF1BF063510DE1A00E605DBB0E6159D9
:103638000D0E6259D8A023EF1BF025EF1BF02FEFDA
:103648001BF0010E4B6E000E606F000E616F000ED6
:10365800626F000E636F1200D68A000ED6BE010E8E
:10366800116ED69E550E0401596FAA0E596F5991C5
:103678005F6B5E6B080E5D6F550E596FAA0E596F22
:10368800598111B002D0D69E01D0D68E0301658F24
:103698006981698369856987AF90D6803A0E0E6E15
:1036A8003D0E0F6E000E106E59EC1EF0B490D682CF
:1036B8003C0E0E6E3D0E0F6E000E106E52EC1EF09C
:1036C800B890D6843E0E0E6E3D0E0F6E000E106E34
:1036D8004BEC1EF01200040E0201946F800E956FE1
:1036E800280E966F020E9C6F9A6B9B6B976B8D6B77
:1036F800510E876F510E866F0AEC1EF002019B91E6
:103708009B95948F050EE82EFED700000000000060
:10371800000000000000000002019A919A959B8524
:10372800000E0501716F000E726F000E736F1200AC
:10373800FAC40CF5FBC40DF549500301196F48C5CF
:1037480018F30501845185118611D8B4AEEF1BF02A
:10375800B0EF1BF0BDEF1BF002D8BDEF1BF005006A
:10376800FA6E8451FD6E8551FE6E8651FF6EFA50D9
:103778001200B19E0DC5FBF40CC5FAF4110044EC1F
:103788001DF00009D8A4CBEF1BF0CDEF1BF0E8EF3C
:103798001BF0010E3B6E0FC53CF510C53DF5010E43
:1037A800466E11C53EF512C53FF513C540F514C563
:1037B80041F515C542F516C543F517C544F518C5B5
:1037C80045F5476A4AEC1CF0120044EC1DF000096C
:1037D800D8A4F1EF1BF0F3EF1BF00CEF1CF0010E77
:1037E8003B6E0FC53CF510C53DF5466A11C53EF563
:1037F80012C53FF513C540F514C541F5000E426EDC
:10380800000E436E456A000E446E476A4AEC1CF08F
:10381800120092EC1EF060EC1EF03CEC1EF079EC0D
:103828001EF00201949F1EEC1EF002019B919B95D5
:10383800948F050EE82EFED700000000000000005F
:1038480000000000000002019A919A959B851200E1
:1038580005017C6B7A39F00B7B117D6F7D518009F6
:103868007D6F7839F00B79117E6F7639F00B77110F
:103878007F6F106ADE0E0F6E7C0E116E050E126ED3
:10388800146A040E136EE9EC1BF01200405041104C
:10389800D8B451EF1CF053EF1CF060EF1CF040500F
:1038A80065EC1EF04650D8B45CEF1CF05EEF1CF0DF
:1038B80060EF1CF086EC1EF03C503C2469EC1EF0D6
:1038C80083EC1EF012000EC514F50FC515F575EF43
:1038D8001CF014C5D9F415C5DAF410C5DFF4144A80
:1038E800152A1206D8A01306122806E11328D8A410
:1038F80080EF1CF082EF1CF06DEF1CF012004F50AF
:103908007F0B4F6E4F380F0B05017A6F4F500F0B1F
:103918007B6F50380F0B786F50500F0B796F5150E9
:103928003F0B516E51380F0B766F51500F0B776F5D
:103938001200060E0301196F186B700E1B6F1951D8
:103948000E6E1851486E0EC549F5400E0501846F7C
:103958003D0E856F000E866FB19EA18E900E0301FD
:103968001A6F120005016E516F117011D8B4BFEFB4
:103978001CF0C1EF1CF0CEEF1CF002D8CEEF1CF00B
:103988000500FA6E6E51FD6E6F51FE6E7051FF6E3E
:10399800FA501200120005016B516C116D11D8B468
:1039A800D8EF1CF0DAEF1CF0E7EF1CF002D8E7EFD5
:1039B8001CF00500FA6E6B51FD6E6C51FE6E6D5178
:1039C800FF6EFA50120012000501685169116A1160
:1039D800D8B4F1EF1CF0F3EF1CF000EF1DF002D8A3
:1039E80000EF1DF00500FA6E6851FD6E6951FE6E1C
:1039F8006A51FF6EFA5012001200010E4A6E106AE8
:103A0800DE0E0F6E000E116E000E126E146A010E9D
:103A1800136E4F0E156E050E166E186A030E176E8E
:103A2800C3EC1BF04D6A120001EE60F1200EEE6A45
:103A3800E806FDE101EE3BF1170EEE6AE806FDE14E
:103A48000401080E5D6F000E5E6F000E5F6F0001CF
:103A580055EF19F00401006B086B106B186BC00E62
:103A6800C716C99EC99CC99AC998C996C89EC89CB8
:103A7800C89AC682C680C684D68AD68ED68C1200CC
:103A8800010E0E6E3B50D8A44CEF1DF04EEF1DF00A
:103A980057EF1DF0020198AF54EF1DF056EF1DF0DF
:103AA80057EF1DF00E6A0E50120089EC1EF08CECD8
:103AB8001EF00009D8B463EF1DF065EF1DF06BEF41
:103AC8001DF0000E71EC1EF0000E6DEC1EF01200E1
:103AD80044504510D8B473EF1DF075EF1DF078EF22
:103AE8001DF0445071EC1EF0D8803C3475EC1EF08B
:103AF8008FEC1EF012003B6A000E3D6E3C68000E13
:103B08003E6E000E3F6E000E426E000E436E92EC4B
:103B18001EF060EC1EF079EC1EF012000E500F1033
:103B28001010D8B49AEF1DF09CEF1DF0A2EF1DF015
:0E3B38000EC571F50FC572F510C573F51200BC
:103B4800FAC406F5FBC407F5AF90B6EC1CF007C540
:103B5800FBF406C5FAF41100FAC408F5FBC409F52C
:103B6800B490CFEC1CF009C5FBF408C5FAF41100B9
:103B7800FAC40AF5FBC40BF5B890E8EC1CF00BC5C9
:103B8800FBF40AC5FAF4110014EC1EF05FEC1AF00D
:103B98009DEC1CF06FEC1BF030EC1BF012000201E6
:103BA80095BBD9EF1DF0DCEF1DF0010EDDEF1DF028
:103BB800000E1200020198B7E4EF1DF0E7EF1DF0C8
:103BC800010EE8EF1DF0000E1200020197BDEFEFA5
:103BD8001DF0F2EF1DF0010EF3EF1DF0000E1200C4
:103BE800020197BBFAEF1DF0FDEF1DF0010EFEEF8D
:103BF8001DF0000E1200020198A705EF1EF008EF55
:103C08001EF0010E09EF1EF0000E1200A584A58615
:103C1800A580A58202019B859B839B8F97811200BB
:103C2800600E0001AD6FAF6BB36B080EB16FB06B78
:103C3800AC6B1200A584A586A580A58202019B8590
:103C48009B839B8F9781120098EC1EF042C5D9F494
:103C580043C5DAF4DF6E424A432A11003EC5D9F45F
:103C68003FC5DAF43E4A3F2ADF506DEC1EF01100E2
:103C7800A594A596A590A59202019B6B976B12003F
:103C88000EC584F50FC585F510C586F512000EC55D
:103C980068F50FC569F510C56AF512000EC56BF514
:103CA8000FC56CF510C56DF512000EC56EF50FC584
:103CB8006FF510C570F512000201979B979D9799B3
:103CC80012000E6E0EC58DF212000E6E0EC58FF22A
:103CD8001200056E05C58CF21200026E02C58DF247
:103CE8001200016E01C58FF212000201996B9985CD
:103CF800120003011A8F120003011A9F1200020119
:103D0800948B12000201948D12000201949D1200FE
:103D180002018D5112000201948B120002019A6B6C
:0E3D28001200010E4D6E120002018B511200AE
:0A3D38001100120012001200120028
:020000040030CA
:080000008CFFFFFF9FFFFFFFD3
:01000900FFF7
:00000001FF
