:0400000081EF00F09C
:100008009445944594459445400094454000944552
:10001800184594459445944594459445944594458C
:1000280094454000400040009445944594459445CB
:100038009445944594459445944594459445154470
:100048009445944594459445400040009445944512
:100058009445944594454000944594459445944569
:100068001E45944594459445944594459445944536
:100078005A455F459A43BB42400094459445944590
:1000880094459445944594459445944594459445A0
:10009800944594459445944540009445400040005B
:1000A80024459445944594459445944594459445F0
:1000B8009445944594459445944594459445944570
:1000C8009445944594459445944594459445944560
:1000D8009445944594459445944594459445944550
:1000E800400094459445944540004000400040003D
:0E00F8009445944594459445FF008FEF89F0A0
:10FE7E0000561201000000121601181601000000B3
:10FE8E00000000000000000000000000A0150100AE
:10FE9E000000FA0F01000000EE1001000000A21099
:10FEAE0001000000000000A013013C14010000003E
:10FEBE00010000000100010001000100010001002D
:10FECE000100000000000000000001000100000021
:10FEDE00010001000000010001000000010001000E
:10FEEE0001000100000000000100010001000100FE
:10FEFE0001000100010000000000010001000000EF
:10FF0E0001000100010000000100010000000100DD
:10FF1E0001000100010001000100010000000100CC
:10FF2E0001000000000000000000010001000100BF
:10FF3E0001000100010001000100010001000100AB
:10FF4E00010001000100000001000100010001009C
:10FF5E00000000000100010001000100010001008D
:10FF6E000000000000000000000001000100000081
:10FF7E00000001000000010001000000010001006E
:10FF8E00000001000000000001000100010001005E
:10FF9E00000001000100000000000100010000004F
:10FFAE00000001000100000001000100000001003E
:10FFBE00000001000100010001000100000001002D
:10FFCE000000000000000000000001000100010020
:10FFDE00000001000100010001000100010001000C
:10FFEE0000000100010000000100010001000100FD
:01FFFE000002
:020000040001F9
:10000000010E4B6E386A040E376E366A000E356E7E
:10001000326A640E316ECEA010EF80F012EF80F0E5
:1000200058EF80F0354A362AD00E176ECA0EE82EE9
:10003000FED7172EFCD73550315C3250800A176E30
:100040003650800A1758D8B028EF80F02AEF80F099
:100050008EEF80F04A6ABAEC88F038EF80F0D00E6C
:10006000176ECA0EE82EFED7172EFCD73F0EBF1212
:10007000CEB03DEF80F03FEF80F02FEF80F04A50A0
:10008000D8B445EF80F047EF80F02FEF80F04B6A57
:10009000090E186E1E0E176EE40EE82EFED7172EF0
:1000A000FCD7182EFAD700D009EC8BF0E9EF83F0DB
:1000B00036BE64EF80F0365009E1060E355CD8A0FC
:1000C00064EF80F066EF80F084EF80F03150355CB3
:1000D0003650800A176E3250800A1758D8B073EF26
:1000E00080F075EF80F084EF80F0010E37240E6E03
:1000F000000E38200F6E116A060E106E4EEC86F060
:100100000EC537F50FC538F5366A000E356ED00EC0
:10011000176ECA0EE82EFED7172EFCD7CEA293EF8D
:1001200080F095EF80F0C4EF81F0190E186E5A0E32
:10013000176EB20EE82EFED7172EFCD7182EFAD760
:100140009EEF81F015C5D9F416C5DAF4020EDF6012
:10015000ACEF80F0AEEF80F0BCEF80F015C5D9F4C5
:1001600016C5DAF4DF50176E010E1724196E1A6ADD
:10017000000E1A22BFEF80F01A6A000E196E15C524
:10018000D9F416C5DAF419C5DFF4C4EF81F020EE16
:1001900001F01550D9261650DA22090EDF60D3EF90
:1001A00080F0D5EF80F0E5EF80F020EE01F0155003
:1001B000D9261650DA22DF50176E010E17241B6E57
:1001C0001C6A000E1C22E8EF80F01C6A000E1B6EF9
:1001D00020EE01F01550D9261650DA221BC5DFF4A7
:1001E000C4EF81F020EE02F01550D9261650DA2225
:1001F000050EDF60FEEF80F000EF81F010EF81F080
:1002000020EE02F01550D9261650DA22DF50176E74
:10021000010E17241D6E1E6A000E1E2213EF81F0C0
:100220001E6A000E1D6E20EE02F01550D9261650E3
:10023000DA221DC5DFF4C4EF81F020EE03F0155083
:10024000D9261650DA22090EDF6029EF81F02BEF54
:1002500081F03BEF81F020EE03F01550D9261650C7
:10026000DA22DF50176E010E17241F6E206A000E6F
:1002700020223EEF81F0206A000E1F6E20EE03F078
:100280001550D9261650DA221FC5DFF4C4EF81F0CD
:1002900020EE04F01550D9261650DA22050EDF6044
:1002A00054EF81F056EF81F066EF81F020EE04F01C
:1002B0001550D9261650DA22DF50176E010E17247A
:1002C000216E226A000E222269EF81F0226A000E5E
:1002D000216E20EE04F01550D9261650DA2221C5E1
:1002E000DFF4C4EF81F020EE05F01550D92616504A
:1002F000DA22090EDF607FEF81F081EF81F091EF6C
:1003000081F020EE05F01550D9261650DA22DF5084
:10031000176E010E1724236E246A000E242294EF18
:1003200081F0246A000E236E20EE05F01550D926C8
:100330001650DA2223C5DFF4C4EF81F037C517F574
:1003400038C518F51850000AD8B4A9EF81F0C4EFE9
:1003500081F01750000AD8B4A2EF80F0010AD8B497
:10036000C7EF80F0030AD8B4F2EF80F0010AD8B4E6
:100370001DEF81F0070AD8B448EF81F0010AD8B424
:1003800073EF81F0C4EF81F0CEA4C9EF81F0CBEF21
:1003900081F024EF83F0190E186E5A0E176EB20E0C
:1003A000E82EFED7172EFCD7182EFAD7FEEF82F0D4
:1003B00015C5D9F416C5DAF4DF50176E186AFF0EAA
:1003C0001724FF0E1820800BD8A4E9EF81F0EBEF83
:1003D00081F0F9EF81F015C5D9F416C5DAF4DF50D4
:1003E000176EFF0E1724256E266AFF0E2622FCEFDD
:1003F00081F0266A020E256E15C5D9F416C5DAF409
:1004000025C5DFF424EF83F020EE01F01550D92646
:100410001650DA22DF50176E186AFF0E1724FF0EEF
:100420001820800BD8A417EF82F019EF82F029EF83
:1004300082F020EE01F01550D9261650DA22DF5056
:10044000176EFF0E1724276E286AFF0E28222CEF46
:1004500082F0286A090E276E20EE01F01550D92689
:100460001650DA2227C5DFF424EF83F020EE02F0E5
:100470001550D9261650DA22DF50176E186AFF0E73
:100480001724FF0E1820800BD8A449EF82F04BEF01
:1004900082F05BEF82F020EE02F01550D926165064
:1004A000DA22DF50176EFF0E1724296E2A6AFF0E1C
:1004B0002A225EEF82F02A6A050E296E20EE02F0F3
:1004C0001550D9261650DA2229C5DFF424EF83F01F
:1004D00020EE03F01550D9261650DA22DF50176EA1
:1004E000186AFF0E1724FF0E1820800BD8A47BEF8C
:1004F00082F07DEF82F08DEF82F020EE03F0155058
:10050000D9261650DA22DF50176EFF0E17242B6EF5
:100510002C6AFF0E2C2290EF82F02C6A090E2B6EB3
:1005200020EE03F01550D9261650DA222BC5DFF441
:1005300024EF83F020EE04F01550D9261650DA226D
:10054000DF50176E186AFF0E1724FF0E1820800B5D
:10055000D8A4ADEF82F0AFEF82F0BFEF82F020EED3
:1005600004F01550D9261650DA22DF50176EFF0E10
:1005700017242D6E2E6AFF0E2E22C2EF82F02E6AF5
:10058000050E2D6E20EE04F01550D9261650DA22F5
:100590002DC5DFF424EF83F020EE05F01550D926A9
:1005A0001650DA22DF50176E186AFF0E1724FF0E5E
:1005B0001820800BD8A4DFEF82F0E1EF82F0F1EF9A
:1005C00082F020EE05F01550D9261650DA22DF50C1
:1005D000176EFF0E17242F6E306AFF0E3022F4EFD5
:1005E00082F0306A090E2F6E20EE05F01550D926E4
:1005F0001650DA222FC5DFF424EF83F037C517F544
:1006000038C518F51850000AD8B409EF83F024EF64
:1006100083F01750000AD8B4D8EF81F0010AD8B49B
:1006200004EF82F0030AD8B436EF82F0010AD8B49E
:1006300068EF82F0070AD8B49AEF82F0010AD8B4C2
:10064000CCEF82F024EF83F0346A000E336E34BEB8
:1006500033EF83F0345009E1060E335CD8A033EF5A
:1006600083F035EF83F037EF83F00BEF80F03F0E30
:10067000BF12BFEF83F015C5D9F416C5DAF4DF5009
:10068000176E1750100DBE0EF3240E6EFE0EF420E2
:100690000F6EB8EC84F0BF9A0B0E176E620EE82E48
:1006A000FED7172EFCD700D0E5EF83F020EE01F047
:1006B0001550D9261650DA22DF50176E1750100D3C
:1006C000BE0EF3240E6EFE0EF4200F6EB8EC84F016
:1006D000BF984CEF83F020EE02F01550D92616504B
:1006E000DA22DF50176E1750100DBE0EF3240E6E77
:1006F000FE0EF4200F6EB8EC84F0BF964CEF83F042
:1007000020EE03F01550D9261650DA22DF50176E6E
:100710001750100DBE0EF3240E6EFE0EF4200F6E59
:10072000B8EC84F0BF944CEF83F020EE04F0155049
:10073000D9261650DA22DF50176E1750100DBE0E54
:10074000F3240E6EFE0EF4200F6EB8EC84F0BF9210
:100750004CEF83F020EE05F01550D9261650DA2222
:10076000DF50176E1750100DBE0EF3240E6EFE0EE6
:10077000F4200F6EB8EC84F0BF904CEF83F037C5D7
:1007800017F538C518F51850000AD8B4CAEF83F029
:10079000E5EF83F01750000AD8B43BEF83F0010A6D
:1007A000D8B456EF83F0030AD8B46BEF83F0010A94
:1007B000D8B480EF83F0070AD8B495EF83F0010A2C
:1007C000D8B4AAEF83F0E5EF83F0334A342A27EF59
:1007D00083F01200CEA0EFEF83F0F1EF83F021EF72
:1007E00084F00CEC8BF0000E0501606F000E616F61
:1007F000000E626F000E636F756B000E746F3F0E1C
:10080000BF12090E05017F6F1E0E7E6FE40EE82EEB
:10081000FED77E2FFCD77F2FFAD700004C0E156E27
:10082000050E166E00EC80F0090E05017F6F1E0E9E
:100830007E6FE40EE82EFED77E2FFCD77F2FFAD7EF
:1008400000000501816B000E806F3F0EBF1280EF2C
:1008500084F04C50100D5E0EF3240E6EFF0EF4204B
:100860000F6EB8EC84F0BF9A0B0E05017E6F620E1E
:10087000E82EFED77E2FFCD70000A6EF84F04D5067
:10088000100D5E0EF3240E6EFF0EF4200F6EB8EC0A
:1008900084F0BF9834EF84F04E50100D5E0EF324B8
:1008A0000E6EFF0EF4200F6EB8EC84F0BF9634EF9E
:1008B00084F04F50100D5E0EF3240E6EFF0EF420E8
:1008C0000F6EB8EC84F0BF9434EF84F05050100DEC
:1008D0005E0EF3240E6EFF0EF4200F6EB8EC84F063
:1008E000BF9234EF84F05150100D5E0EF3240E6E63
:1008F000FF0EF4200F6EB8EC84F0BF9034EF84F05C
:1009000080C57EF581C57FF57F51000AD8B48BEF95
:1009100084F0A6EF84F07E51000AD8B429EF84F069
:10092000010AD8B43FEF84F0030AD8B44CEF84F046
:10093000010AD8B459EF84F0070AD8B466EF84F0FE
:10094000010AD8B473EF84F0A6EF84F00501804B60
:10095000812B81BFB5EF84F0815109E1060E805DE6
:10096000D8A0B5EF84F0B7EF84F025EF84F0120043
:100970000EC5F6F40FC5F7F4000EF86E0800F5C4C6
:1009800010F5010E101610321032C15010187F0BE6
:100990001018C16E020E0E24106E000E0F20116E84
:1009A00010C5F6F411C5F7F4000EF86E0800F5C492
:1009B00012F5010E1216123A12461246C1501218C2
:1009C000BF0B1218C16E040E0E24106E000E0F2005
:1009D000116E10C5F6F411C5F7F4000EF86E08009C
:1009E000F5C412F5010E1216123A1246C150121831
:1009F000DF0B1218C16E060E0E24106E000E0F20B3
:100A0000116E10C5F6F411C5F7F4000EF86E08006B
:100A1000F5C412F5010E1216123AC1501218EF0B5E
:100A20001218C16E080E0E24106E000E0F20116EEB
:100A300010C5F6F411C5F7F4000EF86E0800F5C401
:100A400012F5010E121612321232C05012187F0B1C
:100A50001218C06E0A0E0E24106E000E0F20116EBA
:100A600010C5F6F411C5F7F4000EF86E0800F5C4D1
:100A700012F5010E1216123A12461246C050121802
:100A8000BF0B1218C06E0C0E0E24106E000E0F203D
:100A9000116E10C5F6F411C5F7F4000EF86E0800DB
:100AA000F5C412F5010E1216123A1246C050121871
:100AB000DF0B1218C06E0E0E0E24106E000E0F20EB
:100AC000116E10C5F6F411C5F7F4000EF86E0800AB
:100AD000F5C412F5010E1216124612461246C15006
:0A0AE0001218F70B1218C16E120075
:100AEC00FAC403F5FBC404F580EC8AF00009D8B411
:100AFC0082EF85F084EF85F08CEF85F0030E456E68
:100B0C000201979B9BEC88F0D4EF85F08BEC8AF07C
:100B1C000009D8B494EF85F096EF85F0A8EF85F036
:100B2C005FEC8AF00009D8B49EEF85F0A0EF85F059
:100B3C00A8EF85F0010E456E02019799E5EC89F05E
:100B4C00D4EF85F06AEC8AF00009D8B4B0EF85F0E8
:100B5C00B2EF85F0C2EF85F05FEC8AF00009D8B4F3
:100B6C00BAEF85F0BCEF85F0C2EF85F0020E456E52
:100B7C0002019799A4EF85F075EC8AF00009D8B4BE
:100B8C00CAEF85F0CCEF85F0D2EF85F0030E456E01
:100B9C000201979DD4EF85F0020197994550D8B486
:100BAC00DAEF85F0DCEF85F0EAEF85F002D8EAEFBA
:100BBC0085F00500FA6E05017151FD6E7251FE6EE5
:100BCC007351FF6EFA50120004C5FBF403C5FAF41E
:100BDC00110054EC8AF0BEEC87F0FDEC87F0FDECD4
:100BEC0087F0A5EC89F0420E0E6E160E0F6E010EFC
:100BFC00106E1EEC8AF0F60E0E6E0E0E0F6E010EBF
:100C0C00106ED0EC8AF009EC8BF04B50D8A411EF9D
:100C1C0086F013EF86F048EF86F04950D8B419EF00
:100C2C0086F01BEF86F01EEF86F0A5EC86F0496A85
:100C3C004850D8B424EF86F026EF86F02BEF86F0E0
:100C4C00D69ED68EBBEC89F0486A4A50D8A431EFB8
:100C5C0086F033EF86F035EF86F00501766B0501F3
:100C6C007651D8B43CEF86F03EEF86F048EF86F034
:100C7C004A50D8B444EF86F046EF86F048EF86F041
:100C8C0011EC89F0EAEC83F00BEF86F081EF00F0C9
:100C9C00136A0FBE56EF86F054EF86F05CEF86F0C9
:100CAC000E6C0F1ED8B00F2A010E136E11BE63EF1F
:100CBC0086F061EF86F067EF86F0106C111ED8B0ED
:100CCC00112A10501110D8B46EEF86F070EF86F028
:100CDC0094EF86F0010E126E78EF86F0D8901036F5
:100CEC001136122A11AE7DEF86F07FEF86F074EF8D
:100CFC0086F010500E5C11500F58D8A088EF86F07B
:100D0C008AEF86F08EEF86F010500E5E11500F5A5F
:100D1C00D89011321032122E7FEF86F01350D8B4C7
:100D2C009AEF86F09CEF86F0A0EF86F00E6C0F1E0B
:100D3C00D8B00F2A0EC50EF50FC50FF51200512AAB
:100D4C00090E5164ACEF86F0AEEF86F0ECEF86F056
:100D5C00516A502A050E5064B6EF86F0B8EF86F053
:100D6C00ECEF86F0506A4F2A090E4F64C0EF86F004
:100D7C00C2EF86F0ECEF86F04F6A4E2A050E4E64F9
:100D8C00CAEF86F0CCEF86F0ECEF86F04E6A4D2A77
:100D9C00090E4D64D4EF86F0D6EF86F0ECEF86F0BA
:100DAC004D6A4C2A010E4C64DEEF86F0E0EF86F0C3
:100DBC00ECEF86F04C0E0E6E050E0F6E116A000EE7
:100DCC00106E136A060E126EF5EC88F01200BE6AF5
:100DDC00BF6A180EC06EC16AC26A0401026B0A6B4C
:100DEC00180E126F1A6B226BC668C768E70EC86EB6
:100DFC00C9680F0ECA6E00690869E70E106F186992
:100E0C00070E206F016B096B116B196B216B03695A
:100E1C000B6913691B69070E236F04690C6914694C
:100E2C001C690F0E246F0201896B886B876B866BB4
:100E3C00130E716F370E146F140E706F380E156F12
:100E4C000401056B066B076B0D6B0E6B0F6B156B53
:100E5C00166B176B256B266B276B120002019BA57B
:100E6C003AEF87F03CEF87F047EF87F09AA541EF18
:100E7C0087F043EF87F047EF87F00BEC8AF07AEFBF
:100E8C0087F09BAF4CEF87F04EEF87F068EF87F061
:100E9C009AAF53EF87F055EF87F068EF87F0445027
:100EAC00D8B45BEF87F05DEF87F064EF87F0446AAE
:100EBC009A919A9FF8EC89F07AEF87F0E5EC89F03B
:100ECC0043EF87F09BA36DEF87F06FEF87F07AEF1E
:100EDC0087F09AA374EF87F076EF87F07AEF87F0BC
:100EEC0015EC8BF002019A931100010E050160279D
:100EFC00000E612362236323744B752BE80E745D23
:100F0C00030E7559D8A08DEF87F08FEF87F09CEF0B
:100F1C0087F04B50D8A495EF87F097EF87F09CEFB4
:100F2C0087F0010E496E756B000E746F4B50D8A490
:100F3C00A2EF87F0A4EF87F0BDEF87F063510DE1CE
:100F4C00A00E605DBB0E61590D0E6259D8A0B1EFB9
:100F5C0087F0B3EF87F0BDEF87F0010E486E000EFF
:100F6C00606F000E616F000E626F000E636F1200F7
:100F7C00D68A000ED6BE010E116ED69E550E0401F9
:100F8C00596FAA0E596F59915F6B5E6B080E5D6FAE
:100F9C00550E596FAA0E596F598111B002D0D69EB9
:100FAC0001D0D68E0301658F698169836985698754
:100FBC00AF90D680520E0E6E160E0F6E010E106E86
:100FCC00E5EC8AF0B490D682540E0E6E160E0F6EAF
:100FDC00010E106EDEEC8AF0B890D684560E0E6EB2
:100FEC00160E0F6E010E106ED7EC8AF01200040E66
:100FFC000201946F800E956F280E966F020E9C6FF7
:10100C009A6B9B6B976B8D6B510E876F510E866F26
:10101C0096EC8AF002019B919B95948F050EE82E1D
:10102C00FED70000000000000000000000000000DF
:10103C0002019A919A959B85000E0501716F000E25
:10104C00726F000E736F1200FAC40CF5FBC40DF531
:10105C0047500301196F46C518F3050182518311DE
:10106C008411D8B43CEF88F03EEF88F04BEF88F059
:10107C0002D84BEF88F00500FA6E8251FD6E835159
:10108C00FE6E8451FF6EFA501200B19E0DC5FBF43A
:10109C000CC5FAF41100D0EC89F00009D8A459EF72
:1010AC0088F05BEF88F076EF88F0010E396E0FC593
:1010BC003AF510C53BF5010E446E11C53CF512C551
:1010CC003DF513C53EF514C53FF515C540F516C5E0
:1010DC0041F517C542F518C543F5456AD8EC88F0BB
:1010EC001200D0EC89F00009D8A47FEF88F081EFD2
:1010FC0088F09AEF88F0010E396E0FC53AF510C5DD
:10110C003BF5446A11C53CF512C53DF513C53EF5DA
:10111C0014C53FF5000E406E000E416E436A000E82
:10112C00426E456AD8EC88F012001EEC8BF0ECECA9
:10113C008AF0C8EC8AF005EC8BF00201949FAAECC3
:10114C008AF002019B919B95948F050EE82EFED799
:10115C000000000000000000000000000000020180
:10116C009A919A959B8512000501776B5038F00B7C
:10117C005110786F78518009786F4E38F00B4F1002
:10118C00796F4C38F00B4D107A6F106A6F0E0F6E32
:10119C00770E116E050E126E146A040E136E77EC38
:1011AC0088F012003E503F10D8B4DFEF88F0E1EF2A
:1011BC0088F0EEEF88F03E50F1EC8AF04450D8B451
:1011CC00EAEF88F0ECEF88F0EEEF88F012EC8BF0A1
:1011DC003A503A24F5EC8AF00FEC8BF012000EC565
:1011EC0014F50FC515F503EF89F014C5D9F415C521
:1011FC00DAF410C5DFF4144A152A1206D8A0130627
:10120C00122806E11328D8A40EEF89F010EF89F00C
:10121C00FBEF88F0120005017B517F0B7B6F7B3954
:10122C000F0B506E7B510F0B516E7C390F0B4E6EAA
:10123C007C510F0B4F6E7D513F0B7D6F7D390F0B2A
:10124C004C6E7D510F0B4D6E1200060E0301196F83
:10125C00186B700E1B6F19510E6E1851466E0EC521
:10126C0047F5580E0501826F160E836F010E846FC1
:10127C00B19EA18E900E03011A6F120005016E51E2
:10128C006F117011D8B44DEF89F04FEF89F05CEF0E
:10129C0089F002D85CEF89F00500FA6E6E51FD6E94
:1012AC006F51FE6E7051FF6EFA5012001200050164
:1012BC006B516C116D11D8B466EF89F068EF89F041
:1012CC0075EF89F002D875EF89F00500FA6E6B5155
:1012DC00FD6E6C51FE6E6D51FF6EFA5012001200D5
:1012EC000501685169116A11D8B47FEF89F081EF5B
:1012FC0089F08EEF89F002D88EEF89F00500FA6E36
:10130C006851FD6E6951FE6E6A51FF6EFA50120003
:10131C00120001EE60F11E0EEE6AE806FDE101EE30
:10132C0039F1190EEE6AE806FDE10401080E5D6F55
:10133C00000E5E6F000E5F6F0001EFEF85F0040191
:10134C00006B086B106B186BC00EC716C99EC99C3E
:10135C00C99AC998C996C89EC89CC89AC680C682A4
:10136C00C684D68AD68ED68C1200106A6F0E0F6E7B
:10137C00000E116E000E126E146A010E136E7B0EAF
:10138C00156E050E166E186A030E176E51EC88F06A
:10139C004A6A1200010E0E6E3950D8A4D8EF89F0AB
:1013AC00DAEF89F0E3EF89F0020198AFE0EF89F012
:1013BC00E2EF89F0E3EF89F00E6A0E50120015ECA3
:1013CC008BF018EC8BF00009D8B4EFEF89F0F1EF4B
:1013DC0089F0F7EF89F0000EFDEC8AF0000EF9ECC5
:1013EC008AF0120042504310D8B4FFEF89F001EF9D
:1013FC008AF004EF8AF04250FDEC8AF0D8803A343F
:10140C0001EC8BF01BEC8BF01200396A000E3B6E7A
:10141C003A68000E3C6E000E3D6E000E406E000EE3
:10142C00416E1EEC8BF0ECEC8AF005EC8BF01200AC
:10143C000E500F101010D8B426EF8AF028EF8AF057
:10144C002EEF8AF00EC571F50FC572F510C573F548
:02145C0012007C
:10146000FAC406F5FBC407F5AF9044EC89F007C554
:10147000FBF406C5FAF41100FAC408F5FBC409F53B
:10148000B4905DEC89F009C5FBF408C5FAF41100CD
:10149000FAC40AF5FBC40BF5B89076EC89F00BC5DD
:1014A000FBF40AC5FAF41100A0EC8AF0EDEC86F02A
:1014B0002BEC89F0FDEC87F0BEEC87F01200020106
:1014C00095BB65EF8AF068EF8AF0010E69EF8AF04C
:1014D000000E1200020198B770EF8AF073EF8AF0E5
:1014E000010E74EF8AF0000E1200020197BD7BEF2F
:1014F0008AF07EEF8AF0010E7FEF8AF0000E120074
:10150000020197BB86EF8AF089EF8AF0010E8AEF1D
:101510008AF0000E1200020198A791EF8AF094EF72
:101520008AF0010E95EF8AF0000E1200A584A586C0
:10153000A580A58202019B859B839B8F97811200CA
:10154000600E0001AD6FAF6BB36B080EB16FB06B87
:10155000AC6B1200A584A586A580A58202019B859F
:101560009B839B8F9781120024EC8BF040C5D9F4AC
:1015700041C5DAF4DF6E404A412A11003CC5D9F476
:101580003DC5DAF43C4A3D2ADF50F9EC8AF01100FF
:10159000A594A596A590A59202019B6B976B12004E
:1015A0000EC582F50FC583F510C584F512000EC572
:1015B00068F50FC569F510C56AF512000EC56BF523
:1015C0000FC56CF510C56DF512000EC56EF50FC593
:1015D0006FF510C570F512000201979B979D9799C2
:1015E00012000E6E0EC58DF212000E6E0EC58FF239
:1015F0001200056E05C58CF21200026E02C58DF256
:101600001200016E01C58FF212000201996B9985DB
:10161000120003011A8F120003011A9F1200020127
:10162000948B12000201948D12000201949D12000D
:1016300002018D5112000201948B120002019A6B7B
:0E1640001200010E4A6E120002018B511200C0
:0A1650001100120012001200120037
:020000040030CA
:080000008CFFFFFF9FFFFFFFD3
:01000900FFF7
:00000001FF
