:0400000081EF00F09C
:10000800600F600F600F600F4000600F4000600FCE
:10001800E40E600F600F600F600F600F600F600FDD
:10002800600F400040004000600F600F600F600FDD
:10003800600F600F600F600F600F600F600FF00DB2
:10004800600F600F600F600F40004000600F600F8E
:10005800600F600F600F4000600F600F600F600F4F
:10006800EA0E600F600F600F600F600F600F600F87
:10007800260F2B0F620D7C0C4000600F600F600F85
:10008800600F600F600F600F600F600F600F600FF0
:10009800600F600F600F600F4000600F400040006D
:1000A800F00E600F600F600F600F600F600F600F41
:1000B800600F600F600F600F600F600F600F600FC0
:1000C800600F600F600F600F600F600F600F600FB0
:1000D800600F600F600F600F600F600F600F600FA0
:1000E8004000600F600F600F40004000400040007B
:0E00F800600F600F600F600FFF0052EF1DF0F1
:1026000000763A000000004A3D00503D0000000006
:10261000000000000000000000000000D03C0000AE
:1026200000001A37000000000C380000000072376C
:1026300000000000000000D03A006C3B00000000E9
:102640000100010101010101010000000001010080
:10265000010100010100010101010000010101016E
:10266000010101000001010001010100010100015F
:10267000010101010101000101000000000101014F
:10268000010101010101010101010100010101013B
:102690000000010101010101000000000001010032
:1026A0000001000101000101000100000101010120
:1026B0000001010000010100000101000101000111
:1026C0000001010101010001000000000001010101
:1026D00000010101010101010001010001010101ED
:0126E00000F9
:1026E200010E0501876F836B040E826F816B000EF2
:1026F200806F010E7B6FF40E7A6F616B000E606F5C
:10270200CEA286EF13F088EF13F0D3EF13F005019A
:10271200804B812B80517A5D7B51800A4C6E8151B6
:10272200800A4C58D8B098EF13F09AEF13F004EFE8
:1027320014F0866B4AEC1CF0ABEF13F0D00E4C6E2B
:10274200CA0EE82EFED74C2EFCD70501604B612B3A
:102752003F0EBF1205018651D8A4B2EF13F0B4EFB9
:1027620013F0C2EF13F061BFC0EF13F0615109E142
:10277200640E605DD8A0C0EF13F0C2EF13F09FEFBC
:1027820013F0876B090E4D6E1E0E4C6EE40EE82E92
:10279200FED74C2EFCD74D2EFAD700D0A5EC1EF05A
:1027A200FBEF16F0050181BFE0EF13F0815109E163
:1027B200100E805DD8A0E0EF13F0E2EF13F000EF0F
:1027C20014F07A51805D8151800A4C6E7B51800AEF
:1027D2004C58D8B0EFEF13F0F1EF13F000EF14F014
:1027E200010E82253E6E000E83213F6E416A060E67
:1027F200406ED1EC19F03EC582F53FC583F5050167
:10280200816B000E806FCEA009EF14F00BEF14F075
:1028120051EF15F009EF15F04AC5D9F44BC5DAF4BA
:10282200020EDF6017EF14F019EF14F027EF14F027
:102832004AC5D9F44BC5DAF4DF504C6E010E4C2474
:10284200626F636B000E63232AEF14F0636B000E5A
:10285200626F4AC5D9F44BC5DAF462C5DFF42FEFD3
:1028620015F020EE01F04A50D9264B50DA22090E1B
:10287200DF603EEF14F040EF14F050EF14F020EE62
:1028820001F04A50D9264B50DA22DF504C6E010E2D
:102892004C24646F656B000E652353EF14F0656B77
:1028A200000E646F20EE01F04A50D9264B50DA2216
:1028B20064C5DFF42FEF15F020EE02F04A50D9265E
:1028C2004B50DA22050EDF6069EF14F06BEF14F063
:1028D2007BEF14F020EE02F04A50D9264B50DA2258
:1028E200DF504C6E010E4C24666F676B000E67233F
:1028F2007EEF14F0676B000E666F20EE02F04A5016
:10290200D9264B50DA2266C5DFF42FEF15F020EE00
:1029120003F04A50D9264B50DA22090EDF6094EFB9
:1029220014F096EF14F0A6EF14F020EE03F04A50E4
:10293200D9264B50DA22DF504C6E010E4C24686FC0
:10294200696B000E6923A9EF14F0696B000E686FC2
:1029520020EE03F04A50D9264B50DA2268C5DFF444
:102962002FEF15F020EE04F04A50D9264B50DA2210
:10297200050EDF60BFEF14F0C1EF14F0D1EF14F0D9
:1029820020EE04F04A50D9264B50DA22DF504C6E2A
:10299200010E4C246A6F6B6B000E6B23D4EF14F0A4
:1029A2006B6B000E6A6F20EE04F04A50D9264B5032
:1029B200DA226AC5DFF42FEF15F020EE05F04A5057
:1029C200D9264B50DA22090EDF60EAEF14F0ECEF61
:1029D20014F0FCEF14F020EE05F04A50D9264B50CB
:1029E200DA22DF504C6E010E4C246C6F6D6B000EC0
:1029F2006D23FFEF14F06D6B000E6C6F20EE05F08F
:102A02004A50D9264B50DA226CC5DFF42FEF15F06D
:102A120082C54CF583C54DF54D50000AD8B414EF6C
:102A220015F02FEF15F04C50000AD8B40DEF14F04A
:102A3200010AD8B432EF14F0030AD8B45DEF14F0EF
:102A4200010AD8B488EF14F0070AD8B4B3EF14F02F
:102A5200010AD8B4DEEF14F02FEF15F07D6B000EF3
:102A62007C6F7DBF3EEF15F07D5109E1640E7C5D08
:102A7200D8A03EEF15F040EF15F042EF15F051EF00
:102A820015F082C541F583C542F54AC543F54BC5EC
:102A920044F563EC18F005017C4B7D2B32EF15F009
:102AA200CEA456EF15F058EF15F0C8EF16F080EFF0
:102AB20016F04AC5D9F44BC5DAF4DF504C6E4D6AB4
:102AC200FF0E4C24FF0E4D20800BD8A46BEF15F0A7
:102AD2006DEF15F07BEF15F04AC5D9F44BC5DAF46A
:102AE200DF504C6EFF0E4C246E6F6F6BFF0E6F2328
:102AF2007EEF15F06F6B020E6E6F4AC5D9F44BC5AF
:102B0200DAF46EC5DFF4A6EF16F020EE01F04A50BB
:102B1200D9264B50DA22DF504C6E4D6AFF0E4C2400
:102B2200FF0E4D20800BD8A499EF15F09BEF15F006
:102B3200ABEF15F020EE01F04A50D9264B50DA22C5
:102B4200DF504C6EFF0E4C24706F716BFF0E7123C1
:102B5200AEEF15F0716B090E706F20EE01F04A5066
:102B6200D9264B50DA2270C5DFF4A6EF16F020EE1C
:102B720002F04A50D9264B50DA22DF504C6E4D6A91
:102B8200FF0E4C24FF0E4D20800BD8A4CBEF15F086
:102B9200CDEF15F0DDEF15F020EE02F04A50D92608
:102BA2004B50DA22DF504C6EFF0E4C24726F736B67
:102BB200FF0E7323E0EF15F0736B050E726F20EEBC
:102BC20002F04A50D9264B50DA2272C5DFF4A6EF42
:102BD20016F020EE03F04A50D9264B50DA22DF508D
:102BE2004C6E4D6AFF0E4C24FF0E4D20800BD8A474
:102BF200FDEF15F0FFEF15F00FEF16F020EE03F0EA
:102C02004A50D9264B50DA22DF504C6EFF0E4C242C
:102C1200746F756BFF0E752312EF16F0756B090E4C
:102C2200746F20EE03F04A50D9264B50DA2274C555
:102C3200DFF4A6EF16F020EE04F04A50D9264B50EE
:102C4200DA22DF504C6E4D6AFF0E4C24FF0E4D20EF
:102C5200800BD8A42FEF16F031EF16F041EF16F0EB
:102C620020EE04F04A50D9264B50DA22DF504C6E47
:102C7200FF0E4C24766F776BFF0E772344EF16F02E
:102C8200776B050E766F20EE04F04A50D9264B5032
:102C9200DA2276C5DFF4A6EF16F020EE05F04A50F0
:102CA200D9264B50DA22DF504C6E4D6AFF0E4C246F
:102CB200FF0E4D20800BD8A461EF16F063EF16F0E3
:102CC20073EF16F020EE05F04A50D9264B50DA2267
:102CD200DF504C6EFF0E4C24786F796BFF0E792318
:102CE20076EF16F0796B090E786F20EE05F04A50F8
:102CF200D9264B50DA2278C5DFF4A6EF16F082C54A
:102D02004CF583C54DF54D50000AD8B48BEF16F043
:102D1200A6EF16F04C50000AD8B45AEF15F0010A8B
:102D2200D8B486EF15F0030AD8B4B8EF15F0010A4B
:102D3200D8B4EAEF15F0070AD8B41CEF16F0010A6E
:102D4200D8B44EEF16F0A6EF16F07F6B000E7E6F32
:102D52007FBFB5EF16F07F5109E1640E7E5DD8A00A
:102D6200B5EF16F0B7EF16F0B9EF16F0C8EF16F0A0
:102D720082C541F583C542F54AC543F54BC544F5C5
:102D820063EC18F005017E4B7F2BA9EF16F04AC5C4
:102D9200D9F44BC5DAF4020EDE18D8A4D3EF16F03C
:102DA200D5EF16F0EFEF16F020EE01F04A50D926DB
:102DB2004B50DA22030EDF64E1EF16F0E3EF16F078
:102DC200EFEF16F04AC5D9F44BC5DAF4DF6A20EE0C
:102DD20001F04A50D9264B50DA22DF6A82C541F50A
:102DE20083C542F54AC543F54BC544F563EC18F07B
:102DF20081EF13F01200CEA201EF17F003EF17F0EC
:102E020030EF17F0A8EC1EF0000E0E6E000E0F6EE3
:102E1200000E106E000E116E236A000E226E3F0E1F
:102E2200BF12090E4F6E1E0E4E6EE40EE82EFED736
:102E32004E2EFCD74F2EFAD700D0880E4A6E050EC2
:102E42004B6E71EC13F0090E4F6E1E0E4E6EE40EB9
:102E5200E82EFED74E2EFCD74F2EFAD700D0050112
:102E6200856B000E846F3F0EBF127CEF17F0885106
:102E7200080DF350900F3E6EB4EC17F0BF940B0E9A
:102E82004E6E620EE82EFED74E2EFCD700D0A2EF79
:102E920017F08951080DF350900F3E6EB4EC17F005
:102EA200BF9640EF17F08A51080DF350900F3E6E17
:102EB200B4EC17F0BF9840EF17F08B51080DF350A8
:102EC200900F3E6EB4EC17F0BF9A40EF17F08C51A2
:102ED200080DF350900F3E6EB4EC17F0BF9240EF26
:102EE20017F08D51080DF350900F3E6EB4EC17F0B1
:102EF200BF9040EF17F084C54EF585C54FF54F5092
:102F0200000AD8B487EF17F0A2EF17F04E50000A6C
:102F1200D8B438EF17F0010AD8B44AEF17F0030A11
:102F2200D8B454EF17F0010AD8B45EEF17F0070ACD
:102F3200D8B468EF17F0010AD8B472EF17F0A2EF15
:102F420017F00501844B852B85BFB1EF17F0855132
:102F520009E1060E845DD8A0B1EF17F0B3EF17F0C8
:102F620034EF17F012003EC5F6F4260EF76E000E8F
:102F7200F86E0800F5C43FF5010E3F163F463F4686
:102F82003F46C1503F18F70B3F18C16E3EC53FF593
:102F9200010E3F263FC5F6F4260EF76E000EF86EC0
:102FA2000800F5C440F5010E401640324032C150CF
:102FB20040187F0B4018C16E3EC53FF5020E3F26FA
:102FC2003FC5F6F4260EF76E000EF86E0800F5C443
:102FD20040F5010E4016403A40464046C150401866
:102FE200BF0B4018C16E3EC53FF5030E3F263FC5DD
:102FF200F6F4260EF76E000EF86E0800F5C440F5E2
:10300200010E4016403A4046C1504018DF0B4018AE
:10301200C16E3EC53FF5040E3F263FC5F6F4260EAF
:10302200F76E000EF86E0800F5C440F5010E40166A
:10303200403AC1504018EF0B4018C16E3EC53FF5F3
:10304200050E3F263FC5F6F4260EF76E000EF86E0B
:103052000800F5C440F5010E401640324032C0501F
:1030620040187F0B4018C06E3EC53FF5060E3F2646
:103072003FC5F6F4260EF76E000EF86E0800F5C492
:1030820040F5010E4016403A40464046C0504018B6
:10309200BF0B4018C06E3EC53FF5070E3F263FC529
:1030A200F6F4260EF76E000EF86E0800F5C440F531
:1030B200010E4016403A4046C0504018DF0B4018FF
:1030C200C06E1200486A000E476E3F0EBF1241509A
:1030D200471809E142504818D8B472EF18F074EF5B
:1030E20018F081EF18F047504324D96E485044201D
:1030F200DA6EDF50080DF350900F496EC0EF18F0F2
:1031020047504324D96E48504420DA6EDF50080DF0
:10311200F350400F496EC0EF18F049C53EF5B4ECCC
:1031220017F0BF940B0E456E620EE82EFED7452EA9
:10313200FCD700D0E6EF18F049C53EF5B4EC17F025
:10314200BF9693EF18F049C53EF5B4EC17F0BF985F
:1031520093EF18F049C53EF5B4EC17F0BF9A93EF20
:1031620018F049C53EF5B4EC17F0BF9293EF18F092
:1031720049C53EF5B4EC17F0BF9093EF18F047C580
:1031820045F548C546F54650000AD8B4CBEF18F0CD
:10319200E6EF18F04550000AD8B48EEF18F0010A95
:1031A200D8B49DEF18F0030AD8B4A4EF18F0010ABE
:1031B200D8B4ABEF18F0070AD8B4B2EF18F0010A8E
:1031C200D8B4B9EF18F0E6EF18F0474A482A48BEDB
:1031D200F4EF18F0485009E1060E475CD8A0F4EF6E
:0C31E20018F0F6EF18F066EF18F012007D
:1031F000FAC433F5FBC434F518EC1EF00009D8B45A
:1032000004EF19F006EF19F00EEF19F0030E0D6E32
:103210000201979B69EC1CF056EF19F023EC1EF0AD
:103220000009D8B416EF19F018EF19F02AEF19F0C9
:10323000F7EC1DF00009D8B420EF19F022EF19F0D7
:103240002AEF19F0010E0D6E020197997DEC1DF029
:1032500056EF19F002EC1EF00009D8B432EF19F065
:1032600034EF19F044EF19F0F7EC1DF00009D8B471
:103270003CEF19F03EEF19F044EF19F0020E0D6E1D
:103280000201979926EF19F00DEC1EF00009D8B451
:103290004CEF19F04EEF19F054EF19F0030E0D6ECC
:1032A0000201979D56EF19F0020197990D50D8B47D
:1032B0005CEF19F05EEF19F06BEF19F002D86BEFCD
:1032C00019F00500FA6E1F50FD6E2050FE6E215061
:1032D000FF6EFA50120034C5FBF433C5FAF4110046
:1032E000ECEC1DF04EEC1BF08DEC1BF08DEC1BF0AC
:1032F0002AEC1CF0420E3E6E3D0E3F6E000E406EFC
:10330000B6EC1DF0160E3E6E360E3F6E000E406E91
:1033100068EC1EF0A5EC1EF0D68ED68C0501875108
:10332000D8A495EF19F097EF19F0CBEF19F02850CA
:10333000D8B49DEF19F09FEF19F0A2EF19F028EC27
:103340001AF0286A2750D8B4A8EF19F0AAEF19F09C
:10335000AFEF19F0D69ED68EDBEC1CF0276A050184
:103360008651D8A4B6EF19F0B8EF19F0B9EF19F0FB
:10337000266A2650D8B4BFEF19F0C1EF19F0CBEF91
:1033800019F08651D8B4C7EF19F0C9EF19F0CBEF97
:1033900019F0C1EC1CF0FCEC16F08EEF19F081EF87
:1033A00000F0436A3FBED9EF19F0D7EF19F0DFEF15
:1033B00019F03E6C3F1ED8B03F2A010E436E41BE4D
:1033C000E6EF19F0E4EF19F0EAEF19F0406C411E56
:1033D000D8B0412A40504110D8B4F1EF19F0F3EFC2
:1033E00019F017EF1AF0010E426EFBEF19F0D890AA
:1033F00040364136422A41AE00EF1AF002EF1AF091
:10340000F7EF19F040503E5C41503F58D8A00BEF09
:103410001AF00DEF1AF011EF1AF040503E5E4150D5
:103420003F5AD89041324032422E02EF1AF04350B8
:10343000D8B41DEF1AF01FEF1AF023EF1AF03E6C0C
:103440003F1ED8B03F2A3EC53EF53FC53FF51200AE
:1034500005018D2B090E8D6530EF1AF032EF1AF051
:103460007BEF1AF08D6B8C2B050E8C653AEF1AF002
:103470003CEF1AF07BEF1AF08C6B8B2B090E8B65EF
:1034800044EF1AF046EF1AF07BEF1AF08B6B8A2BA1
:10349000050E8A654EEF1AF050EF1AF07BEF1AF026
:1034A0008A6B892B020E8819D8A459EF1AF05BEFAA
:1034B0001AF071EF1AF0030E896561EF1AF063EFED
:1034C0001AF071EF1AF0880E3E6E050E3F6E416ADB
:1034D000000E406E436A060E426EA5EC1CF07BEFB8
:1034E0001AF0090E896577EF1AF079EF1AF07BEF81
:1034F0001AF0896B882B1200BE6ABF6A180EC06E64
:10350000C16AC26A0401026B0A6B180E126F1A6B51
:10351000226BC668C768E70EC86EC9680F0ECA6E10
:1035200000690869E70E106F1869070E206F016BBC
:10353000096B116B196B216B03690B6913691B69AB
:10354000070E236F04690C6914691C690F0E246F40
:103550000201896B886B876B866B130E716F370E58
:10356000146F140E706F380E156F0401056B066B27
:10357000076B0D6B0E6B0F6B156B166B176B256B5B
:06358000266B276B120010
:1035880002019BA5CAEF1AF0CCEF1AF0D7EF1AF098
:103598009AA5D1EF1AF0D3EF1AF0D7EF1AF0A3ECEF
:1035A8001DF00AEF1BF09BAFDCEF1AF0DEEF1AF00C
:1035B800F8EF1AF09AAFE3EF1AF0E5EF1AF0F8EF28
:1035C8001AF00C50D8B4EBEF1AF0EDEF1AF0F4EF54
:1035D8001AF00C6A9A919A9F90EC1DF00AEF1BF072
:1035E8007DEC1DF0D3EF1AF09BA3FDEF1AF0FFEF6F
:1035F8001AF00AEF1BF09AA304EF1BF006EF1BF07A
:103608000AEF1BF0B1EC1EF002019A931100010EB3
:103618000E26000E0F2210221122224A232AE50E1E
:10362800225C030E2358D8A01CEF1BF01EEF1BF0E2
:103638002CEF1BF005018751D8A425EF1BF027EFCD
:103648001BF02CEF1BF0010E286E236A000E226E71
:1036580005018751D8A433EF1BF035EF1BF04DEF70
:103668001BF0115010100BE1880E0E5C130E0F5852
:10367800D8A041EF1BF043EF1BF04DEF1BF0010EFC
:10368800276E000E0E6E000E0F6E000E106E000EEE
:10369800116E1200D68A000ED6BE010E416ED69E5D
:1036A800550E0401596FAA0E596F59915F6B5E6BE5
:1036B800080E5D6F550E596FAA0E596F598141B0AA
:1036C80002D0D69E01D0D68E0301658F69816983A9
:1036D80069856987AF90D680820E3E6E3D0E3F6E3B
:1036E800000E406E7DEC1EF0B490D682840E3E6EC5
:1036F8003D0E3F6E000E406E76EC1EF0B890D684FC
:10370800860E3E6E3D0E3F6E000E406E6FEC1EF054
:103718001200040E0201946F800E956F280E966FAA
:10372800020E9C6F9A6B9B6B976B8D6B510E876F1C
:10373800510E866F2EEC1EF002019B919B95948F83
:10374800050EE82EFED70000000000000000000073
:103758000000000002019A919A959B85000E1F6E49
:10376800000E206E000E216E120068EC1DF000099C
:10377800D8A4C1EF1BF0C3EF1BF0DEEF1BF0010E66
:10378800016E3FC502F540C503F5010E0C6E41C53B
:1037980004F542C505F543C506F544C507F545C515
:1037A80008F546C509F547C50AF548C50BF50D6A7C
:0637B80088EC1CF0120079
:1037C000FAC43CF5FBC43DF525500301196F24C52F
:1037D00018F3505051105210D8B4F1EF1BF0F3EF22
:1037E0001BF000EF1CF002D800EF1CF00500FA6E91
:1037F0005050FD6E5150FE6E5250FF6EFA50120046
:10380000B19E3DC5FBF43CC5FAF4110068EC1DF017
:103810000009D8A40EEF1CF010EF1CF029EF1CF0EB
:10382000010E016E3FC502F540C503F50C6A41C5A6
:1038300004F542C505F543C506F544C507F5000E78
:10384000086E000E096E0B6A000E0A6E0D6A88EC97
:103850001CF01200040112871289010E0201876F09
:10386000010E866F0401006B086B106B186BC88625
:10387000C888C00EC716C99EC99CC99AC998C9965E
:10388000C89EC89CC89AC682C680C684D68AD68E70
:10389000D68C1200296A05018C39F00B8D112A6E25
:1038A0002A5080092A6E8A39F00B8B112B6E8839C9
:1038B000F00B89112C6E866B406A6F0E3F6E290EDD
:1038C000416E050E426E446A040E436E06EC1CF017
:1038D0001200BAEC1EF084EC1EF060EC1EF09DECC1
:1038E0001EF00201949F42EC1EF002019B919B95F9
:1038F000948F050EE82EFED70000000000000000A7
:1039000000000000000002019A919A959B85120028
:1039100006500710D8B48FEF1CF091EF1CF09EEF0B
:103920001CF0065089EC1EF00C50D8B49AEF1CF035
:103930009CEF1CF09EEF1CF0AEEC1EF00250022437
:103940008DEC1EF0ABEC1EF012003EC544F53FC5F9
:1039500045F5B3EF1CF044C5D9F445C5DAF440C5CC
:10396000DFF4444A452A4206D8A04306422806E12D
:103970004328D8A4BEEF1CF0C0EF1CF0ABEF1CF046
:1039800012002D507F0B2D6E2D380F0B05018C6F03
:103990002D500F0B8D6F2E380F0B8A6F2E500F0B83
:1039A0008B6F2F503F0B2F6E2F380F0B886F2F50C0
:1039B0000F0B896F1200010E266E0501866B406A9F
:1039C0006F0E3F6E300E416E050E426E446A010E60
:1039D000436E2D0E456E050E466E486A030E476E09
:1039E000B9EC1BF012001C501D101E10D8B4FBEFD8
:1039F0001CF0FDEF1CF00AEF1DF002D80AEF1DF0DD
:103A00000500FA6E1C50FD6E1D50FE6E1E50FF6EBE
:103A1000FA501200120019501A101B10D8B413EFEC
:103A20001DF015EF1DF022EF1DF002D822EF1DF062
:103A30000500FA6E1950FD6E1A50FE6E1B50FF6E97
:103A4000FA5012001200165017101810D8B42BEFAD
:103A50001DF02DEF1DF03AEF1DF002D83AEF1DF0EA
:103A60000500FA6E1650FD6E1750FE6E1850FF6E70
:103A7000FA5012001200060E0301196F186B700E37
:103A80001B6F19513E6E1851246E3EC525F5880EE8
:103A9000506E3D0E516E000E526EB19EA18E900E74
:103AA0001A6F120001EE86F1080EEE6AE806FDE1DB
:103AB00001EE01F1300EEE6AE806FDE10401080EA8
:103AC0005D6F000E5E6F000E5F6F000170EF19F00A
:103AD000010E3E6E0150D8A470EF1DF072EF1DF084
:103AE0007BEF1DF0020198AF78EF1DF07AEF1DF02B
:103AF0007BEF1DF03E6A3E501200B1EC1EF0B4ECBC
:103B00001EF00009D8B487EF1DF089EF1DF08FEF8C
:103B10001DF0000E95EC1EF0000E91EC1EF0120050
:103B20000A500B10D8B497EF1DF099EF1DF09CEFE1
:103B30001DF00A5095EC1EF0D880023499EC1EF06E
:103B4000B7EC1EF01200016A000E036E0268000E50
:103B5000046E000E056E000E086E000E096EBAECC3
:103B60001EF084EC1EF09DEC1EF012003E503F1043
:103B70004010D8B4BEEF1DF0C0EF1DF0C6EF1DF031
:0E3B80003EC51FF53FC520F540C521F51200DA
:103B9000FAC436F5FBC437F5AF90F3EC1CF037C52B
:103BA000FBF436C5FAF41100FAC438F5FBC439F554
:103BB000B4900BEC1DF039C5FBF438C5FAF41100D4
:103BC000FAC43AF5FBC43BF5B89023EC1DF03BC5B5
:103BD000FBF43AC5FAF4110038EC1EF07CEC1AF054
:103BE0003BEC1DF08DEC1BF04EEC1BF012000201C3
:103BF00095BBFDEF1DF000EF1EF0010E01EF1EF072
:103C0000000E1200020198B708EF1EF00BEF1EF035
:103C1000010E0CEF1EF0000E1200020197BD13EF13
:103C20001EF016EF1EF0010E17EF1EF0000E120030
:103C3000020197BB1EEF1EF021EF1EF0010E22EFD6
:103C40001EF0000E1200020198A729EF1EF02CEFC3
:103C50001EF0010E2DEF1EF0000E1200A584A586A9
:103C6000A580A58202019B859B839B8F9781120073
:103C7000600E0001AD6FAF6BB36B080EB16FB06B30
:103C8000AC6B1200A584A586A580A58202019B8548
:103C90009B839B8F97811200BDEC1EF008C5D9F461
:103CA00009C5DAF4DF6E084A092A110004C5D9F4FF
:103CB00005C5DAF4044A052ADF5091EC1EF0110024
:103CC000A594A596A590A59202019B6B976B1200F7
:103CD0003EC550F53FC551F540C552F512003EC5F1
:103CE00016F53FC517F540C518F512003EC519F584
:103CF0003FC51AF540C51BF512003EC51CF53FC572
:103D00001DF540C51EF512000201979B979D9799DE
:103D100012003E6E3EC58DF212003E6E3EC58FF221
:103D20001200356E35C58CF21200326E32C58DF23E
:103D30001200316E31C58FF212000201996B998524
:103D40001200010E0501866F120003011A8F120086
:103D500003011A9F12000201948B12000201948D3C
:103D600012000201949D120002018D511200020105
:103D7000948B120002019A6B120002018B51120007
:0A3D800011001200120012001200E0
:020000040030CA
:080000008CFFFFFF9FFFFFFFD3
:01000900FFF7
:00000001FF
