:04000000FEEFFFF020
:10260000000001C5D9F402C5DAF405C5DEF406C53B
:10261000DDF420EE02F00150D9260250DA2207C57F
:10262000DEF408C5DDF420EE04F00150D926025096
:10263000DA220BC5DEF40CC5DDF420EE06F0015005
:10264000D9260250DA2209C5DEF40AC5DDF420EEEF
:1026500008F00150D9260250DA220FC5DEF410C569
:10266000DDF420EE0AF00150D9260250DA220DC521
:10267000DEF40EC5DDF4C18E0D4A0E2A030E046E83
:102680008A0E036E560EE82EFED7032EFCD7042EBC
:10269000FAD7C19E030E046E8A0E036E560EE82E04
:1026A000FED7032EFCD7042EFAD70EBE61EF13F02F
:1026B0000E5009E10A0E0D5CD8A061EF13F063EF34
:1026C00013F068EF13F00E6A000E0D6E0F4A102A19
:1026D00010BE74EF13F0105009E13C0E0F5CD8A04F
:1026E00074EF13F076EF13F089EF13F00EBE82EF64
:1026F00013F00E5009E10A0E0D5CD8A082EF13F022
:1027000084EF13F089EF13F00E6A000E0D6E0F4A7E
:10271000102A10BE95EF13F0105009E13C0E0F5C2B
:10272000D8A095EF13F097EF13F099EF13F0094A43
:102730000A2A0ABEA5EF13F00A5009E10A0E095C45
:10274000D8A0A5EF13F0A7EF13F0BAEF13F010BE67
:10275000B3EF13F0105009E13C0E0F5CD8A0B3EFBB
:1027600013F0B5EF13F0BAEF13F00A6A000E096E1A
:102770000B4A0C2A0CBEC6EF13F00C5009E13C0EBC
:102780000B5CD8A0C6EF13F0C8EF13F0CAEF13F03C
:10279000074A082A08BED6EF13F0085009E10A0ECE
:1027A000075CD8A0D6EF13F0D8EF13F0EBEF13F0DF
:1027B0000CBEE4EF13F00C5009E13C0E0B5CD8A00A
:1027C000E4EF13F0E6EF13F0EBEF13F0086A000EFE
:1027D000076E054A062A06BEF7EF13F0065009E118
:1027E000180E055CD8A0F7EF13F0F9EF13F03BEFEC
:1027F00013F008BE05EF14F0085009E10A0E075C5B
:10280000D8A005EF14F007EF14F03BEF13F00CBE67
:1028100013EF14F00C5009E13C0E0B5CD8A013EF41
:1028200014F015EF14F03BEF13F00ABE21EF14F093
:102830000A5009E10A0E095CD8A021EF14F023EF39
:1028400014F03BEF13F010BE2FEF14F0105009E11D
:102850003C0E0F5CD8A02FEF14F031EF14F03BEFDB
:1028600013F00EBE3DEF14F00E5009E10A0E0D5CA0
:10287000D8A03DEF14F03FEF14F03BEF13F0066AE1
:10288000000E056E086A000E076E0C6A000E0B6ED5
:102890000A6A000E096E106A000E0F6E0E6A000EB4
:1028A0000D6E3BEF13F01200030E0001B16F040137
:1028B000106BC790C792C794C796C798C79AC99E0E
:1028C000C99CC99AC998C996C89EC89CC89A21EE45
:1028D00043F111EE25F10F0EDBC4E3F4E806FCE250
:1028E00021EE13F1110EDE6AE806FDE2350E016EEF
:1028F000050E026E01EC13F0406A000E3F6EBF80C1
:10290000BF82BF84BF86BF88BF8A99EF14F0BF9093
:10291000BFEF14F0BF92BFEF14F0BF94BFEF14F0FD
:10292000BF96BFEF14F0BF98BFEF14F0BF9ABFEF90
:1029300014F03FC511F540C512F51250000AD8B485
:10294000A4EF14F0BFEF14F01150000AD8B487EFD1
:1029500014F0010AD8B48AEF14F0030AD8B48DEF4A
:1029600014F0010AD8B490EF14F0070AD8B493EF2A
:1029700014F0010AD8B496EF14F0BFEF14F03F4AF8
:10298000402A40BECDEF14F0405009E1060E3F5CF6
:10299000D8A0CDEF14F0CFEF14F07FEF14F0426A1F
:1029A000000E416EECEF14F0C18E23EF15F0C19CC8
:1029B00023EF15F0C19A23EF15F0C19823EF15F01E
:1029C000C19623EF15F0C09E23EF15F0C09C23EFB6
:1029D00015F0C09A23EF15F0D8904134D96E4234E7
:1029E000DA6E250ED926050EDA22DEC411F5DDC415
:1029F00012F51250000AD8B400EF15F023EF15F0CD
:102A00001150000AD8B4D4EF14F0010AD8B4D7EFAB
:102A100014F0030AD8B4DAEF14F0010AD8B4DDEFE9
:102A200014F0070AD8B4E0EF14F0010AD8B4E3EFC9
:102A300014F0030AD8B4E6EF14F0010AD8B4E9EFB1
:102A400014F023EF15F0020E126E040E116EBA0E82
:102A5000E82EFED7112EFCD7122EFAD700D0414A0D
:102A6000422A42BE3DEF15F0425009E1080E415C9A
:102A7000D8A03DEF15F03FEF15F0ECEF14F07CEF30
:102A800014F0FEEFFFF0B80EF66E2A0EF76E000E91
:102A9000F86E01EE43F110EE10F00900F5C4EEF40B
:102AA000E550E150FAE101EE60F1120EEE6AE8063F
:102AB000FDE1000154EF14F00000010002000300EA
:082AC0000400050006000700F8
:020000040001F9
:04FFFC0043EF15F0CA
:020000040030CA
:01000000EC13
:01000200FEFF
:010004009F5C
:00000001FF
