:04000000FEEFFFF020
:102600000000030E0001B16F0401106BC790C79268
:10261000C794C796C798C79AC99EC99CC99AC998B2
:10262000C996C89EC89CC89AC150C150C150C150DB
:10263000C050C050C050C15021EE60F111EE00F208
:102640009F0EDEC4E6F4E806FCE2A00ED95EE15E71
:102650000601A16B000EA06FA1BF38EF13F0A151CE
:1026600009E10A0EA05DD8A038EF13F03AEF13F09D
:102670003DEF13F0A16B000EA06FA36B000EA26FD5
:10268000A60EE82EFED700D0BF80BF82BF84BF86D3
:10269000BF88BF8A5EEF13F0BF9A84EF13F0BF9834
:1026A00084EF13F0BF9684EF13F0BF9484EF13F020
:1026B000BF9284EF13F0BF9084EF13F0A2C604F52D
:1026C000A3C605F50550000AD8B469EF13F084EFEE
:1026D00013F00450000AD8B44CEF13F0010AD8B438
:1026E0004FEF13F0030AD8B452EF13F0010AD8B435
:1026F00055EF13F0070AD8B458EF13F0010AD8B415
:102700005BEF13F084EF13F0300E016E060E026ED5
:10271000A3EC13F0A60EE82EFED700D00601A24BC4
:10272000A32BA3BF9DEF13F0A35109E1060EA25DF9
:10273000D8A09DEF13F09FEF13F040EF13F02CEFB4
:1027400013F0FEEFFFF001C5D9F402C5DAF4DF5053
:10275000036E010E031603320332C15003187F0BC0
:102760000318C16E20EE02F00150D9260250DA2281
:10277000DF50036E010E0316033A03460346C150B1
:102780000318BF0B0318C16E20EE04F00150D926C8
:102790000250DA22DF50036E010E0316033A03469D
:1027A000C1500318DF0B0318C16E20EE06F0015074
:1027B000D9260250DA22DF50036E010E0316033AC7
:1027C000C1500318EF0B0318C16E20EE08F0015042
:1027D000D9260250DA22DF50036E010E03160332AF
:1027E0000332C05003187F0B0318C06E20EE0AF0AE
:1027F0000150D9260250DA22DF50036E010E031673
:10280000033A03460346C0500318BF0B0318C06EBB
:1028100020EE0CF00150D9260250DA22DF50036E70
:10282000010E0316033A0346C0500318DF0B0318CA
:10283000C06E20EE0EF00150D9260250DA22DF5091
:10284000036E010E0316034603460346C1500318E8
:10285000F70B0318C16E1200000000000100010018
:102860000100010001000100000000000000000064
:102870000000010001000000000001000000010054
:102880000100000001000100000001000000000044
:102890000100010001000100000001000100000032
:1028A0000000010001000000000001000100000024
:1028B0000100010000000100000001000100010012
:1028C0000100010000000100000000000000000005
:1028D00000000100010001000000010001000100F2
:1028E00001000100010001000000010001000000E2
:1028F0000100010001000100580EF66E280EF76E6F
:10290000000EF86E01EE60F110EEA0F00900F5C4C3
:0E291000EEF4E550E150FAE1000101EF13F0A2
:020000040001F9
:04FFFC007CEF14F092
:020000040030CA
:01000000EC13
:01000200FEFF
:010004009F5C
:00000001FF
