:04000000FEEFFFF020
:102600000000030E0001B16F0401106BC790C79268
:10261000C794C796C798C79AC99EC99CC99AC998B2
:10262000C996C89EC89CC89AC150C150C150C150DB
:10263000C050C050C050C15021EE60F111EE00F208
:102640009F0EDEC4E6F4E806FCE2A00ED95EE15E71
:102650000601A16B000EA06FA60EE82EFED700D0DB
:10266000BF80BF82BF84BF86BF88BF8A4AEF13F096
:10267000BF9A70EF13F0BF9870EF13F0BF9670EF32
:1026800013F0BF9470EF13F0BF9270EF13F0BF9090
:1026900070EF13F0A0C604F5A1C605F50550000AB9
:1026A000D8B455EF13F070EF13F00450000AD8B40B
:1026B00038EF13F0010AD8B43BEF13F0030AD8B493
:1026C0003EEF13F0010AD8B441EF13F0070AD8B473
:1026D00044EF13F0010AD8B447EF13F070EF13F092
:1026E000300E016E060E026E8FEC13F0A60EE82E71
:1026F000FED700D00601A04BA12BA1BF89EF13F09C
:10270000A15109E1060EA05DD8A089EF13F08BEF6F
:1027100013F02CEF13F028EF13F0FEEFFFF001C5DC
:10272000D9F402C5DAF4DF50036E010E031603324A
:102730000332C15003187F0B0318C16E20EE02F064
:102740000150D9260250DA22DF50036E010E031623
:10275000033A03460346C1500318BF0B0318C16E6A
:1027600020EE04F00150D9260250DA22DF50036E29
:10277000010E0316033A0346C1500318DF0B03187A
:10278000C16E20EE06F00150D9260250DA22DF5049
:10279000036E010E0316033AC1500318EF0B031822
:1027A000C16E20EE08F00150D9260250DA22DF5027
:1027B000036E010E031603320332C05003187F0B61
:1027C0000318C06E20EE0AF00150D9260250DA221A
:1027D000DF50036E010E0316033A03460346C05052
:1027E0000318BF0B0318C06E20EE0CF00150D92661
:1027F0000250DA22DF50036E010E0316033A03463D
:10280000C0500318DF0B0318C06E20EE0EF001500D
:10281000D9260250DA22DF50036E010E031603465A
:1028200003460346C1500318F70B0318C16E12008C
:102830000000000001000100010001000100010092
:102840000000000000000000000001000100000086
:102850000000010000000100010000000100010073
:102860000000010000000000010001000100010063
:102870000000010001000000000001000100000054
:102880000000010001000000010001000000010043
:102890000000010001000100010001000000010032
:1028A0000000000000000000000001000100010025
:1028B0000000010001000100010001000100010011
:1028C0000000010001000000010001000100010002
:1028D000300EF66E280EF76E000EF86E01EE60F107
:1028E00010EEA0F00900F5C4EEF4E550E150FAE175
:0628F000000101EF13F0EE
:020000040001F9
:04FFFC0068EF14F0A6
:020000040030CA
:01000000EC13
:01000200FEFF
:010004009F5C
:00000001FF
