:0400000081EF00F09C
:100008002A0F2A0F2A0F2A0F40002A0F40002A0F12
:10001800AE0E2A0F2A0F2A0F2A0F2A0F2A0F2A0F8D
:100028002A0F4000400040002A0F2A0F2A0F2A0FEB
:100038002A0F2A0F2A0F2A0F2A0F2A0F2A0FAB0D71
:100048002A0F2A0F2A0F2A0F400040002A0F2A0FD2
:100058002A0F2A0F2A0F40002A0F2A0F2A0F2A0FC9
:10006800B40E2A0F2A0F2A0F2A0F2A0F2A0F2A0F37
:10007800F00EF50E300D510C40002A0F2A0F2A0FF2
:100088002A0F2A0F2A0F2A0F2A0F2A0F2A0F2A0FA0
:100098002A0F2A0F2A0F2A0F40002A0F400040007B
:1000A800BA0E2A0F2A0F2A0F2A0F2A0F2A0F2A0FF1
:1000B8002A0F2A0F2A0F2A0F2A0F2A0F2A0F2A0F70
:1000C8002A0F2A0F2A0F2A0F2A0F2A0F2A0F2A0F60
:1000D8002A0F2A0F2A0F2A0F2A0F2A0F2A0F2A0F50
:1000E80040002A0F2A0F2A0F40004000400040001D
:0E00F8002A0F2A0F2A0F2A0FFF00BBEF1CF061
:1026000000AE38000000006A3C00703C0000000092
:10261000000000000000000000000000F83B000087
:102620000000523600000000463700000000FA3675
:1026300000000000000000F83900943A000000009B
:102640000100010101010101010000000001010080
:10265000010100010100010101010000010101016E
:10266000010101000001010001010100010100015F
:10267000010101010101000101000000000101014F
:10268000010101010101010101010100010101013B
:102690000000010101010101000000000001010032
:1026A0000001000101000101000100000101010120
:1026B0000001010000010100000101000101000111
:1026C0000001010101010001000000000001010101
:1026D00000010101010101010001010001010101ED
:0126E00000F9
:1026E200010E4B6E386A040E376E366A000E356E76
:1026F200326A640E316ECEA281EF13F083EF13F0D3
:10270200C2EF13F0354A362AD00E176ECA0EE82EE3
:10271200FED7172EFCD73550315C3250800A176E27
:102722003650800A1758D8B099EF13F09BEF13F088
:10273200F8EF13F04A6AE6EC1BF0A9EF13F0D00EA3
:10274200176ECA0EE82EFED7172EFCD73F0EBF1209
:102752004A50D8B4AFEF13F0B1EF13F0A0EF13F07B
:102762004B6A090E186E1E0E176EE40EE82EFED787
:10277200172EFCD7182EFAD700D035EC1EF035EF05
:1027820017F036BECEEF13F0365009E1060E355C77
:10279200D8A0CEEF13F0D0EF13F0EEEF13F03150DC
:1027A200355C3650800A176E3250800A1758D8B0FE
:1027B200DDEF13F0DFEF13F0EEEF13F0010E37242D
:1027C2000E6E000E38200F6E116A060E106E7AEC35
:1027D20019F00EC537F50FC538F5366A000E356E9D
:1027E200D00E176ECA0EE82EFED7172EFCD7CEA03B
:1027F200FDEF13F0FFEF13F02EEF15F0190E186E28
:102802005A0E176EB20EE82EFED7172EFCD7182ED0
:10281200FAD708EF15F015C5D9F416C5DAF4020E89
:10282200DF6016EF14F018EF14F026EF14F015C560
:10283200D9F416C5DAF4DF50176E010E1724196E9B
:102842001A6A000E1A2229EF14F01A6A000E196E83
:1028520015C5D9F416C5DAF419C5DFF42EEF15F053
:1028620020EE01F01550D9261650DA22090EDF604B
:102872003DEF14F03FEF14F04FEF14F020EE01F0B3
:102882001550D9261650DA22DF50176E010E172482
:102892001B6E1C6A000E1C2252EF14F01C6A000E02
:1028A2001B6E20EE01F01550D9261650DA221BC5F8
:1028B200DFF42EEF15F020EE02F01550D926165057
:1028C200DA22050EDF6068EF14F06AEF14F07AEF97
:1028D20014F020EE02F01550D9261650DA22DF50FD
:1028E200176E010E17241D6E1E6A000E1E227DEF4A
:1028F20014F01E6A000E1D6E20EE02F01550D9264D
:102902001650DA221DC5DFF42EEF15F020EE03F08B
:102912001550D9261650DA22090EDF6093EF14F013
:1029220095EF14F0A5EF14F020EE03F01550D92620
:102932001650DA22DF50176E010E17241F6E206A1E
:10294200000E2022A8EF14F0206A000E1F6E20EE67
:1029520003F01550D9261650DA221FC5DFF42EEFE8
:1029620015F020EE04F01550D9261650DA22050E85
:10297200DF60BEEF14F0C0EF14F0D0EF14F020EEE1
:1029820004F01550D9261650DA22DF50176E010EC8
:102992001724216E226A000E2222D3EF14F0226A3B
:1029A200000E216E20EE04F01550D9261650DA22C0
:1029B20021C5DFF42EEF15F020EE05F01550D926D3
:1029C2001650DA22090EDF60E9EF14F0EBEF14F093
:1029D200FBEF14F020EE05F01550D9261650DA223E
:1029E200DF50176E010E1724236E246A000E242274
:1029F200FEEF14F0246A000E236E20EE05F015504F
:102A0200D9261650DA2223C5DFF42EEF15F037C58A
:102A120017F538C518F51850000AD8B413EF15F099
:102A22002EEF15F01750000AD8B40CEF14F0010A7B
:102A3200D8B431EF14F0030AD8B45CEF14F0010AF1
:102A4200D8B487EF14F0070AD8B4B2EF14F0010A31
:102A5200D8B4DDEF14F02EEF15F0CEA433EF15F05D
:102A620035EF15F08EEF16F0190E186E5A0E176E1E
:102A7200B20EE82EFED7172EFCD7182EFAD768EF23
:102A820016F015C5D9F416C5DAF4DF50176E186AB8
:102A9200FF0E1724FF0E1820800BD8A453EF15F059
:102AA20055EF15F063EF15F015C5D9F416C5DAF434
:102AB200DF50176EFF0E1724256E266AFF0E2622A0
:102AC20066EF15F0266A020E256E15C5D9F416C5F5
:102AD200DAF425C5DFF48EEF16F020EE01F0155082
:102AE200D9261650DA22DF50176E186AFF0E172405
:102AF200FF0E1820800BD8A481EF15F083EF15F09C
:102B020093EF15F020EE01F01550D9261650DA2277
:102B1200DF50176EFF0E1724276E286AFF0E282239
:102B220096EF15F0286A090E276E20EE01F0155077
:102B3200D9261650DA2227C5DFF48EEF16F020EEE2
:102B420002F01550D9261650DA22DF50176E186A95
:102B5200FF0E1724FF0E1820800BD8A4B3EF15F038
:102B6200B5EF15F0C5EF15F020EE02F01550D9269D
:102B72001650DA22DF50176EFF0E1724296E2A6ACA
:102B8200FF0E2A22C8EF15F02A6A050E296E20EEE2
:102B920002F01550D9261650DA2229C5DFF48EEF3D
:102BA20016F020EE03F01550D9261650DA22DF5027
:102BB200176E186AFF0E1724FF0E1820800BD8A478
:102BC200E5EF15F0E7EF15F0F7EF15F020EE03F063
:102BD2001550D9261650DA22DF50176EFF0E172431
:102BE2002B6E2C6AFF0E2C22FAEF15F02C6A090EBE
:102BF2002B6E20EE03F01550D9261650DA222BC583
:102C0200DFF48EEF16F020EE04F01550D9261650A0
:102C1200DA22DF50176E186AFF0E1724FF0E1820F3
:102C2200800BD8A417EF16F019EF16F029EF16F063
:102C320020EE04F01550D9261650DA22DF50176E16
:102C4200FF0E17242D6E2E6AFF0E2E222CEF16F089
:102C52002E6A050E2D6E20EE04F01550D926165060
:102C6200DA222DC5DFF48EEF16F020EE05F01550B6
:102C7200D9261650DA22DF50176E186AFF0E172473
:102C8200FF0E1820800BD8A449EF16F04BEF16F078
:102C92005BEF16F020EE05F01550D9261650DA2219
:102CA200DF50176EFF0E17242F6E306AFF0E302290
:102CB2005EEF16F0306A090E2F6E20EE05F0155009
:102CC200D9261650DA222FC5DFF48EEF16F037C55B
:102CD20017F538C518F51850000AD8B473EF16F076
:102CE2008EEF16F01750000AD8B442EF15F0010A21
:102CF200D8B46EEF15F0030AD8B4A0EF15F0010AAC
:102D0200D8B4D2EF15F0070AD8B404EF16F0010ACE
:102D1200D8B436EF16F08EEF16F0346A000E336E2A
:102D220034BE9DEF16F0345009E1060E335CD8A094
:102D32009DEF16F09FEF16F0A1EF16F07CEF13F067
:102D42003F0EBF120BEF17F015C5D9F416C5DAF412
:102D5200DF50080DF350400F0E6EF2EC17F0BF94E7
:102D62000B0E176E620EE82EFED7172EFCD700D080
:102D720031EF17F020EE01F01550D9261650DA2265
:102D8200DF50080DF350400F0E6EF2EC17F0BF96B5
:102D9200B1EF16F020EE02F01550D9261650DA22C5
:102DA200DF50080DF350400F0E6EF2EC17F0BF9893
:102DB200B1EF16F020EE03F01550D9261650DA22A4
:102DC200DF50080DF350400F0E6EF2EC17F0BF9A71
:102DD200B1EF16F020EE04F01550D9261650DA2283
:102DE200DF50080DF350400F0E6EF2EC17F0BF9259
:102DF200B1EF16F020EE05F01550D9261650DA2262
:102E0200DF50080DF350400F0E6EF2EC17F0BF903A
:102E1200B1EF16F037C517F538C518F51850000A86
:102E2200D8B416EF17F031EF17F01750000AD8B4E4
:102E3200A5EF16F0010AD8B4BBEF16F0030AD8B416
:102E4200CBEF16F0010AD8B4DBEF16F0070AD8B4BC
:102E5200EBEF16F0010AD8B4FBEF16F031EF17F0E2
:102E6200334A342A91EF16F01200CEA23BEF17F04C
:102E72003DEF17F06DEF17F038EC1EF0000E050174
:102E8200606F000E616F000E626F000E636F756BF4
:102E9200000E746F3F0EBF12090E05017F6F1E0EEA
:102EA2007E6FE40EE82EFED77E2FFCD77F2FFAD757
:102EB20000004C0E156E050E166E71EC13F0090E25
:102EC20005017F6F1E0E7E6FE40EE82EFED77E2F69
:102ED200FCD77F2FFAD700000501816B000E806FAF
:102EE2003F0EBF12BAEF17F04C50080DF350900F7F
:102EF2000E6EF2EC17F0BF940B0E05017E6F620EA0
:102F0200E82EFED77E2FFCD70000E0EF17F04D50E1
:102F1200080DF350900F0E6EF2EC17F0BF967DEF96
:102F220017F04E50080DF350900F0E6EF2EC17F0A2
:102F3200BF987DEF17F04F50080DF350900F0E6EB3
:102F4200F2EC17F0BF9A7DEF17F05050080DF350D6
:102F5200900F0E6EF2EC17F0BF927DEF17F051500A
:102F6200080DF350900F0E6EF2EC17F0BF907DEF4C
:102F720017F080C57EF581C57FF57F51000AD8B470
:102F8200C5EF17F0E0EF17F07E51000AD8B475EFE5
:102F920017F0010AD8B488EF17F0030AD8B492EFF9
:102FA20017F0010AD8B49CEF17F0070AD8B4A6EFBD
:102FB20017F0010AD8B4B0EF17F0E0EF17F00501EF
:102FC200804B812B81BFEFEF17F0815109E1060E93
:102FD200805DD8A0EFEF17F0F1EF17F071EF17F067
:102FE20012000EC5F6F4260EF76E000EF86E0800FB
:102FF200F5C40FF5010E0F160F460F460F46C150CE
:103002000F18F70B0F18C16E0EC50FF5010E0F2624
:103012000FC5F6F4260EF76E000EF86E0800F5C422
:1030220010F5010E101610321032C15010187F0B1D
:103032001018C16E0EC50FF5020E0F260FC5F6F45D
:10304200260EF76E000EF86E0800F5C410F5010E9C
:103052001016103A10461046C1501018BF0B101827
:10306200C16E0EC50FF5030E0F260FC5F6F4260E20
:10307200F76E000EF86E0800F5C410F5010E10167A
:10308200103A1046C1501018DF0B1018C16E0EC551
:103092000FF5040E0F260FC5F6F4260EF76E000E7E
:1030A200F86E0800F5C410F5010E1016103AC15062
:1030B2001018EF0B1018C16E0EC50FF5050E0F2676
:1030C2000FC5F6F4260EF76E000EF86E0800F5C472
:1030D20010F5010E101610321032C05010187F0B6E
:1030E2001018C06E0EC50FF5060E0F260FC5F6F4AA
:1030F200260EF76E000EF86E0800F5C410F5010EEC
:103102001016103A10461046C0501018BF0B101877
:10311200C06E0EC50FF5070E0F260FC5F6F4260E6C
:10312200F76E000EF86E0800F5C410F5010E1016C9
:10313200103A1046C0501018DF0B1018C06E120063
:10314400FAC403F5FBC404F5ACEC1DF00009D8B4D3
:10315400AEEF18F0B0EF18F0B8EF18F0030E456EAC
:103164000201979BC7EC1BF000EF19F0B7EC1DF0C0
:103174000009D8B4C0EF18F0C2EF18F0D4EF18F07B
:103184008BEC1DF00009D8B4CAEF18F0CCEF18F09E
:10319400D4EF18F0010E456E0201979911EC1DF061
:1031A40000EF19F096EC1DF00009D8B4DCEF18F02C
:1031B400DEEF18F0EEEF18F08BEC1DF00009D8B438
:1031C400E6EF18F0E8EF18F0EEEF18F0020E456E97
:1031D40002019799D0EF18F0A1EC1DF00009D8B4C2
:1031E400F6EF18F0F8EF18F0FEEF18F0030E456E46
:1031F4000201979D00EF19F0020197994550D8B448
:1032040006EF19F008EF19F016EF19F002D816EFCF
:1032140019F00500FA6E05017151FD6E7251FE6ED2
:103224007351FF6EFA50120004C5FBF403C5FAF49F
:10323400110080EC1DF0EAEC1AF029EC1BF029ECEB
:103244001BF0D1EC1CF09A0E0E6E3C0E0F6E000EAD
:10325400106E4AEC1DF04E0E0E6E350E0F6E000E03
:10326400106EFCEC1DF035EC1EF04B50D8A43DEF75
:1032740019F03FEF19F074EF19F04950D8B445EF45
:1032840019F047EF19F04AEF19F0D1EC19F0496A37
:103294004850D8B450EF19F052EF19F057EF19F025
:1032A400D69ED68EE7EC1CF0486A4A50D8A45DEF4F
:1032B40019F05FEF19F061EF19F00501766B050164
:1032C4007651D8B468EF19F06AEF19F074EF19F079
:1032D4004A50D8B470EF19F072EF19F074EF19F086
:1032E4003DEC1CF036EC17F037EF19F081EF00F0ED
:1032F400136A0FBE82EF19F080EF19F088EF19F00E
:103304000E6C0F1ED8B00F2A010E136E11BE8FEF74
:1033140019F08DEF19F093EF19F0106C111ED8B05D
:10332400112A10501110D8B49AEF19F09CEF19F02B
:10333400C0EF19F0010E126EA4EF19F0D8901036F8
:103344001136122A11AEA9EF19F0ABEF19F0A0EF64
:1033540019F010500E5C11500F58D8A0B4EF19F0AA
:10336400B6EF19F0BAEF19F010500E5E11500F5A63
:10337400D89011321032122EABEF19F01350D8B48A
:10338400C6EF19F0C8EF19F0CCEF19F00E6C0F1E50
:10339400D8B00F2A0EC50EF50FC50FF51200512A2D
:1033A400090E5164D8EF19F0DAEF19F018EF1AF09A
:1033B400516A502A050E5064E2EF19F0E4EF19F057
:1033C40018EF1AF0506A4F2A090E4F64ECEF19F007
:1033D400EEEF19F018EF1AF04F6A4E2A050E4E64FC
:1033E400F6EF19F0F8EF19F018EF1AF04E6A4D2ABB
:1033F400090E4D6400EF1AF002EF1AF018EF1AF0FC
:103404004D6A4C2A010E4C640AEF1AF00CEF1AF0C4
:1034140018EF1AF04C0E0E6E050E0F6E116A000EA8
:10342400106E136A060E126E21EC1CF01200BE6AB6
:10343400BF6A180EC06EC16AC26A0401026B0A6BCD
:10344400180E126F1A6B226BC668C768E70EC86E37
:10345400C9680F0ECA6E00690869E70E106F186913
:10346400070E206F016B096B116B196B216B0369DC
:103474000B6913691B69070E236F04690C691469CE
:103484001C690F0E246F0201896B886B876B866B36
:10349400130E716F370E146F140E706F380E156F94
:1034A4000401056B066B076B0D6B0E6B0F6B156BD5
:1034B400166B176B256B266B276B120002019BA5FD
:1034C40066EF1AF068EF1AF073EF1AF09AA56DEF31
:1034D4001AF06FEF1AF073EF1AF037EC1DF0A6EF45
:1034E4001AF09BAF78EF1AF07AEF1AF094EF1AF013
:1034F4009AAF7FEF1AF081EF1AF094EF1AF044506C
:10350400D8B487EF1AF089EF1AF090EF1AF0446AF2
:103514009A919A9F24EC1DF0A6EF1AF011EC1DF07D
:103524006FEF1AF09BA399EF1AF09BEF1AF0A6EF36
:103534001AF09AA3A0EF1AF0A2EF1AF0A6EF1AF06D
:1035440041EC1EF002019A931100010E050160275F
:10355400000E612362236323744B752BE80E745DA4
:10356400030E7559D8A0B9EF1AF0BBEF1AF0C8EFE3
:103574001AF04B50D8A4C1EF1AF0C3EF1AF0C8EFF9
:103584001AF0010E496E756B000E746F4B50D8A47F
:10359400CEEF1AF0D0EF1AF0E9EF1AF063510DE113
:1035A400A00E605DBB0E61590D0E6259D8A0DDEF0F
:1035B4001AF0DFEF1AF0E9EF1AF0010E486E000E70
:1035C400606F000E616F000E626F000E636F120079
:1035D400D68A000ED6BE010E116ED69E550E04017B
:1035E400596FAA0E596F59915F6B5E6B080E5D6F30
:1035F400550E596FAA0E596F598111B002D0D69E3B
:1036040001D0D68E0301658F6981698369856987D5
:10361400AF90D680AA0E0E6E3C0E0F6E000E106E8A
:1036240011EC1EF0B490D682AC0E0E6E3C0E0F6EF2
:10363400000E106E0AEC1EF0B890D684AE0E0E6E1C
:103644003C0E0F6E000E106E03EC1EF01200040E02
:103654000201946F800E956F280E966F020E9C6F78
:103664009A6B9B6B976B8D6B510E876F510E866FA8
:10367400C2EC1DF002019B919B95948F050EE82EE0
:10368400FED7000000000000000000000000000061
:1036940002019A919A959B85000E0501716F000EA7
:1036A400726F000E736F1200FAC40CF5FBC40DF5B3
:1036B40047500301196F46C518F305018251831160
:1036C4008411D8B468EF1BF06AEF1BF077EF1BF09E
:1036D40002D877EF1BF00500FA6E8251FD6E83511C
:1036E400FE6E8451FF6EFA501200B19E0DC5FBF4BC
:1036F4000CC5FAF41100FCEC1CF00009D8A485EF09
:103704001BF087EF1BF0A2EF1BF0010E396E0FC503
:103714003AF510C53BF5010E446E11C53CF512C5D2
:103724003DF513C53EF514C53FF515C540F516C561
:1037340041F517C542F518C543F5456A04EC1CF07C
:103744001200FCEC1CF00009D8A4ABEF1BF0ADEFA9
:103754001BF0C6EF1BF0010E396E0FC53AF510C50C
:103764003BF5446A11C53CF512C53DF513C53EF55C
:1037740014C53FF5000E406E000E416E436A000E04
:10378400426E456A04EC1CF012004AEC1EF018EC80
:103794001EF0F4EC1DF031EC1EF00201949FD6EC07
:1037A4001DF002019B919B95948F050EE82EFED788
:1037B4000000000000000000000000000000020102
:1037C4009A919A959B8512000501776B5038F00BFE
:1037D4005110786F78518009786F4E38F00B4F1084
:1037E400796F4C38F00B4D107A6F106A6F0E0F6EB4
:1037F400770E116E050E126E146A040E136EA3EC8E
:103804001BF012003E503F10D8B40BEF1CF00DEF2C
:103814001CF01AEF1CF03E501DEC1EF04450D8B4BE
:1038240016EF1CF018EF1CF01AEF1CF03EEC1EF023
:103834003A503A2421EC1EF03BEC1EF012000EC567
:1038440014F50FC515F52FEF1CF014C5D9F415C5E3
:10385400DAF410C5DFF4144A152A1206D8A01306A8
:10386400122806E11328D8A43AEF1CF03CEF1CF010
:1038740027EF1CF0120005017B517F0B7B6F7B3916
:103884000F0B506E7B510F0B516E7C390F0B4E6E2C
:103894007C510F0B4F6E7D513F0B7D6F7D390F0BAC
:1038A4004C6E7D510F0B4D6E1200060E0301196F05
:1038B400186B700E1B6F19510E6E1851466E0EC5A3
:1038C40047F5B00E0501826F3C0E836F000E846FC6
:1038D400B19EA18E900E03011A6F120005016E5164
:1038E4006F117011D8B479EF1CF07BEF1CF088EFE6
:1038F4001CF002D888EF1CF00500FA6E6E51FD6EC4
:103904006F51FE6E7051FF6EFA50120012000501E5
:103914006B516C116D11D8B492EF1CF094EF1CF044
:10392400A1EF1CF002D8A1EF1CF00500FA6E6B5158
:10393400FD6E6C51FE6E6D51FF6EFA501200120056
:103944000501685169116A11D8B4ABEF1CF0ADEFF1
:103954001CF0BAEF1CF002D8BAEF1CF00500FA6EA6
:103964006851FD6E6951FE6E6A51FF6EFA50120085
:10397400120001EE60F11E0EEE6AE806FDE101EEB2
:1039840039F1190EEE6AE806FDE10401080E5D6FD7
:10399400000E5E6F000E5F6F00011BEF19F0040153
:1039A400006B086B106B186BC00EC716C99EC99CC0
:1039B400C99AC998C996C89EC89CC89AC682C68026
:1039C400C684D68AD68ED68C1200106A6F0E0F6EFD
:1039D400000E116E000E126E146A010E136E7B0E31
:1039E400156E050E166E186A030E176E7DEC1BF02D
:1039F4004A6A1200010E0E6E3950D8A404EF1DF06D
:103A040006EF1DF00FEF1DF0020198AF0CEF1DF053
:103A14000EEF1DF00FEF1DF00E6A0E50120041EC78
:103A24001EF044EC1EF00009D8B41BEF1DF01DEF8E
:103A34001DF023EF1DF0000E29EC1EF0000E25EC06
:103A44001EF0120042504310D8B42BEF1DF02DEF9E
:103A54001DF030EF1DF0425029EC1EF0D8803A34AE
:103A64002DEC1EF047EC1EF01200396A000E3B6E7E
:103A74003A68000E3C6E000E3D6E000E406E000E65
:103A8400416E4AEC1EF018EC1EF031EC1EF01200F0
:103A94000E500F101010D8B452EF1DF054EF1DF05B
:103AA4005AEF1DF00EC571F50FC572F510C573F50B
:023AB4001200FE
:103AB800FAC406F5FBC407F5AF9070EC1CF007C517
:103AC800FBF406C5FAF41100FAC408F5FBC409F5BD
:103AD800B49089EC1CF009C5FBF408C5FAF4110090
:103AE800FAC40AF5FBC40BF5B890A2EC1CF00BC5A0
:103AF800FBF40AC5FAF41100CCEC1DF019EC1AF02D
:103B080057EC1CF029EC1BF0EAEC1AF01200020149
:103B180095BB91EF1DF094EF1DF0010E95EF1DF090
:103B2800000E1200020198B79CEF1DF09FEF1DF0E8
:103B3800010EA0EF1DF0000E1200020197BDA7EFC5
:103B48001DF0AAEF1DF0010EABEF1DF0000E1200E4
:103B5800020197BBB2EF1DF0B5EF1DF0010EB6EFF5
:103B68001DF0000E1200020198A7BDEF1DF0C0EF76
:103B78001DF0010EC1EF1DF0000E1200A584A586F0
:103B8800A580A58202019B859B839B8F978112004C
:103B9800600E0001AD6FAF6BB36B080EB16FB06B09
:103BA800AC6B1200A584A586A580A58202019B8521
:103BB8009B839B8F9781120050EC1EF040C5D9F46F
:103BC80041C5DAF4DF6E404A412A11003CC5D9F4F8
:103BD8003DC5DAF43C4A3D2ADF5025EC1EF01100C1
:103BE800A594A596A590A59202019B6B976B1200D0
:103BF8000EC582F50FC583F510C584F512000EC5F4
:103C080068F50FC569F510C56AF512000EC56BF5A4
:103C18000FC56CF510C56DF512000EC56EF50FC514
:103C28006FF510C570F512000201979B979D979943
:103C380012000E6E0EC58DF212000E6E0EC58FF2BA
:103C48001200056E05C58CF21200026E02C58DF2D7
:103C58001200016E01C58FF212000201996B99855D
:103C6800120003011A8F120003011A9F12000201A9
:103C7800948B12000201948D12000201949D12008F
:103C880002018D5112000201948B120002019A6BFD
:0E3C98001200010E4A6E120002018B51120042
:0A3CA80011001200120012001200B9
:020000040030CA
:080000008CFFFFFF9FFFFFFFD3
:01000900FFF7
:00000001FF
