:0400000081EF00F09C
:10000800D70BD70BD70BD70B4000D70B4000D70B1C
:100018006B0BD70BD70BD70BD70BD70BD70BD70B34
:10002800D70B400040004000D70BD70BD70BD70B9E
:10003800D70BD70BD70BD70BD70BD70BD70BD70BA8
:10004800D70BD70BD70BD70B40004000D70BD70BDC
:10005800D70BD70BD70B4000D70BD70BD70BD70B2A
:10006800710BD70BD70BD70BD70BD70BD70BD70BDE
:10007800A80BAD0B5B0A210A4000D70BD70BD70B97
:10008800D70BD70BD70BD70BD70BD70BD70BD70B58
:10009800D70BD70BD70BD70B4000D70B400040002E
:1000A800770BD70BD70BD70BD70BD70BD70BD70B98
:1000B800D70BD70BD70BD70BD70BD70BD70BD70B28
:1000C800D70BD70BD70BD70BD70BD70BD70BD70B18
:1000D800D70BD70BD70BD70BD70BD70BD70BD70B08
:1000E8004000D70BD70BD70B400040004000400022
:0E00F800D70BD70BD70BD70BFF0016EF16F068
:1026000000D42B00000000000000000000000000CB
:1026100000000000000000000000000000000000BA
:102620000401106B64EC17F0ACEC15F0C790C79286
:10263000C794C796C798C79AC99EC99CC99AC99892
:10264000C996C89EC89CC89AC150C150C150C150BB
:10265000C050C050C050C15021EE60F111EE00F2E8
:102660009F0EDEC4E6F4E806FCE2A00ED95EE15E51
:102670000601A16B000EA06FBF80BF82BF84BF8622
:10268000BF88BF8A7EEF13F0100E166E060E176E0F
:10269000B9EC13F0BF9AC80E00D0E82EFDD7A4EF16
:1026A00013F0200E166E060E176EB9EC13F0BF98DD
:1026B0004BEF13F0300E166E060E176EB9EC13F0DA
:1026C000BF964BEF13F0400E166E060E176EB9EC68
:1026D00013F0BF944BEF13F0300E166E060E176E0C
:1026E000B9EC13F0BF924BEF13F0600E166E060EAE
:1026F000176EB9EC13F0BF904BEF13F0A0C61AF5AC
:10270000A1C61BF51B50000AD8B489EF13F0A4EF43
:1027100013F01A50000AD8B444EF13F0010AD8B4E9
:1027200051EF13F0030AD8B45AEF13F0010AD8B4EA
:1027300063EF13F0070AD8B46CEF13F0010AD8B4B2
:1027400075EF13F0A4EF13F00601A04BA12BA1BF6E
:10275000B3EF13F0A15109E1060EA05DD8A0B3EFCD
:1027600013F0B5EF13F03CEF13F038EF13F081EFF7
:1027700000F016C5D9F417C5DAF4DF50186E010E53
:10278000181618321832C15018187F0B1818C16E5D
:1027900020EE02F01650D9261750DA22DF50186EBC
:1027A000010E1816183A18461846C1501818BF0BD3
:1027B0001818C16E20EE04F01650D9261750DA22F0
:1027C000DF50186E010E1816183A1846C150181826
:1027D000DF0B1818C16E20EE06F01650D9261750E0
:1027E000DA22DF50186E010E1816183AC150181868
:1027F000EF0B1818C16E20EE08F01650D9261750AE
:10280000DA22DF50186E010E181618321832C05036
:1028100018187F0B1818C06E20EE0AF01650D92633
:102820001750DA22DF50186E010E1816183A1846A3
:102830001846C0501818BF0B1818C06E20EE0CF0C8
:102840001650D9261750DA22DF50186E010E1816CE
:10285000183A1846C0501818DF0B1818C06E20EE32
:102860000EF01650D9261750DA22DF50186E010EDE
:102870001816184618461846C1501818F70B18189D
:10288000C16E1200FAC409F5FBC40AF5F6C40BF5D3
:10289000F7C40CF5F8C40DF5F5C40EF51BEC17F0F4
:1028A0000009D8B456EF14F058EF14F060EF14F0AC
:1028B000030E286E0201979B36EC16F0A8EF14F079
:1028C00026EC17F00009D8B468EF14F06AEF14F0A2
:1028D0007CEF14F0FAEC16F00009D8B472EF14F0A3
:1028E00074EF14F07CEF14F0010E286E020197993A
:1028F0009DEC16F0A8EF14F005EC17F00009D8B421
:1029000084EF14F086EF14F096EF14F0FAEC16F062
:102910000009D8B48EEF14F090EF14F096EF14F095
:10292000020E286E0201979978EF14F010EC17F060
:102930000009D8B49EEF14F0A0EF14F0A6EF14F045
:10294000030E286E0201979DA8EF14F002019799DB
:1029500028500EC5F5F40DC5F8F40CC5F7F40BC5F9
:10296000F6F40AC5FBF409C5FAF41100FAC402F53D
:10297000FBC403F5F6C404F5F7C405F5F8C406F581
:10298000F5C407F502019BA5C8EF14F0CAEF14F0D7
:10299000D5EF14F09AA5CFEF14F0D1EF14F0D5EFE6
:1029A00014F0C3EC16F008EF15F09BAFDAEF14F05B
:1029B000DCEF14F0F6EF14F09AAFE1EF14F0E3EF70
:1029C00014F0F6EF14F02750D8B4E9EF14F0EBEF61
:1029D00014F0F2EF14F0276A9A919A9FB0EC16F077
:1029E00008EF15F09DEC16F0D1EF14F09BA3FBEF70
:1029F00014F0FDEF14F008EF15F09AA302EF15F0B4
:102A000004EF15F008EF15F09FEC17F002019A9310
:102A100007C5F5F406C5F8F405C5F7F404C5F6F4E2
:102A200003C5FBF402C5FAF4110000000000010028
:102A30000100010001000100010000000000000091
:102A40000000000001000100000000000100000083
:102A50000100010000000100010000000100000071
:102A60000000010001000100010000000100010060
:102A70000000000001000100000000000100010052
:102A80000000010001000000010000000100010041
:102A90000100010001000000010000000000000032
:102AA0000000000001000100010000000100010021
:102AB000010001000100010001000000010001000F
:102AC00000000100010001000100BE6ABF6A180E8B
:102AD000C06EC16AC26A0401026B0A6B180E126FE3
:102AE0001A6B226BC668C768E70EC86EC9680F0EFE
:102AF000CA6E00690869E70E106F1869070E206F2B
:102B0000016B096B116B196B216B03690B691369FD
:102B10001B69070E236F04690C6914691C690F0E89
:102B2000246F0201896B886B876B866B130E716F44
:102B3000370E146F140E706F380E156F0401056B8D
:102B4000066B076B0D6B0E6B0F6B156B166B176BB4
:102B5000256B266B276B1200D68A000ED6BE010E9F
:102B6000196ED69E550E0401596FAA0E596F5991D0
:102B70005F6B5E6B080E5D6F550E596FAA0E596F35
:102B8000598119B002D0D69E01D0D68E0301698139
:102B9000698369856987AF90D6805E0E166E2F0EA9
:102BA000176E000E186E83EC17F0B490D682600E8C
:102BB000166E2F0E176E000E186E7CEC17F0B89084
:102BC000D684620E166E2F0E176E000E186E75EC00
:102BD00017F01200040E0201946F800E956F280EFC
:102BE000966F020E9C6F9A6B9B6B976B8D6B510E61
:102BF000876F510E866F31EC17F002019B919B9508
:102C0000948F050EE82EFED70000000000000000A3
:102C100000000000000002019A919A959B85000E29
:102C2000326E000E336E000E346E12002A0EF66EF7
:102C30002A0EF76E000EF86E01EE60F110EEA0F0B5
:102C40000900F5C4EEF4E550E150FAE101EE1CF1A3
:102C5000190EEE6AE806FDE10401080E5D6F000E34
:102C60005E6F000E5F6F000110EF13F0A8EC17F01D
:102C70008AEC17F06DEC17F09BEC17F00201949FB3
:102C800045EC17F002019B919B95948F050EE82E61
:102C9000FED700000000000000000000000000005F
:102CA00002019A919A959B8512002F503010311095
:102CB000D8B45DEF16F05FEF16F06CEF16F002D8A7
:102CC0006CEF16F00500FA6E2F50FD6E3050FE6E60
:102CD0003150FF6EFA50120012002C502D102E10A1
:102CE000D8B475EF16F077EF16F084EF16F002D82F
:102CF00084EF16F00500FA6E2C50FD6E2D50FE6E1E
:102D00002E50FF6EFA501200120029502A102B107C
:102D1000D8B48DEF16F08FEF16F09CEF16F002D8B6
:102D20009CEF16F00500FA6E2950FD6E2A50FE6EDB
:102D30002B50FF6EFA50120012009FEC17F0A2EC1D
:102D400017F00009D8B4A7EF16F0A9EF16F0AFEF0F
:102D500016F0000E93EC17F0000E8FEC17F0120037
:102D600025502610D8B4B7EF16F0B9EF16F0BCEF27
:102D700016F0255093EC17F0D8801D3497EC17F01F
:102D8000A5EC17F012001C6A000E1E6E1D68000EE6
:102D90001F6E000E206E000E236E000E246EA8EC37
:102DA00017F08AEC17F09BEC17F01200FAC410F53C
:102DB000FBC411F5AF9055EC16F011C5FBF410C52E
:102DC000FAF41100FAC412F5FBC413F5B4906DECDB
:102DD00016F013C5FBF412C5FAF41100FAC414F589
:102DE000FBC415F5B89085EC16F015C5FBF414C5B9
:102DF000FAF41100020195BB00EF17F003EF17F092
:102E0000010E04EF17F0000E1200020198B70BEF4D
:102E100017F00EEF17F0010E0FEF17F0000E120073
:102E2000020197BD16EF17F019EF17F0010E1AEF18
:102E300017F0000E1200020197BB21EF17F024EFEC
:102E400017F0010E25EF17F0000E1200020198A7EF
:102E50002CEF17F02FEF17F0010E30EF17F0000EE8
:102E60001200A584A586A580A58202019B859B836F
:102E70009B8F97811200600E0001AD6FAF6BB36B3B
:102E8000080EB16FB06BAC6B1200A584A586A5804F
:0E2E9000A58202019B859B839B8F9781120078
:102EA000ABEC17F023C5D9F424C5DAF4DF6E234A5E
:102EB000242A11001FC5D9F420C5DAF41F4A202A9C
:102EC000DF508FEC17F011003BEC17F065EC15F0BC
:102ED000EAEC15F0ACEC15F01200A594A596A590BF
:102EE000A59202019B6B976B120016C529F517C5B9
:102EF0002AF518C52BF5120016C52CF517C52DF5AA
:102F000018C52EF5120016C52FF517C530F518C5D2
:102F100031F512000201979B979D979912000F6E51
:102F20000FC58CF21200086E08C58DF21200016EFA
:102F300001C58FF212000201996B998512000201FE
:102F4000949D120002018D5112000201948B120017
:102F500002019A6B120002018B5112001100120043
:042F60001200120049
:020000040030CA
:080000008CFFFFFF9FFFFFFFD3
:01000900FFF7
:00000001FF
