:0400000081EF00F09C
:100008005C0F5C0F5C0F5C0F40005C0F40005C0FE6
:10001800E00E5C0F5C0F5C0F5C0F5C0F5C0F5C0FFD
:100028005C0F4000400040005C0F5C0F5C0F5C0FF1
:100038005C0F5C0F5C0F5C0F5C0F5C0F5C0FF00DCE
:100048005C0F5C0F5C0F5C0F400040005C0F5C0FA6
:100058005C0F5C0F5C0F40005C0F5C0F5C0F5C0F6B
:10006800E60E5C0F5C0F5C0F5C0F5C0F5C0F5C0FA7
:10007800220F270F620D7C0C40005C0F5C0F5C0F99
:100088005C0F5C0F5C0F5C0F5C0F5C0F5C0F5C0F10
:100098005C0F5C0F5C0F5C0F40005C0F4000400081
:1000A800EC0E5C0F5C0F5C0F5C0F5C0F5C0F5C0F61
:1000B8005C0F5C0F5C0F5C0F5C0F5C0F5C0F5C0FE0
:1000C8005C0F5C0F5C0F5C0F5C0F5C0F5C0F5C0FD0
:1000D8005C0F5C0F5C0F5C0F5C0F5C0F5C0F5C0FC0
:1000E80040005C0F5C0F5C0F400040004000400087
:0E00F8005C0F5C0F5C0F5C0FFF004AEF1DF009
:1026000000663A000000003A3D00403D0000000036
:10261000000000000000000000000000C03C0000BE
:1026200000001A37000000000C380000000072376C
:1026300000000000000000C03A005C3B0000000009
:102640000100010101010101010000000001010080
:10265000010100010100010101010000010101016E
:10266000010101000001010001010100010100015F
:10267000010101010101000101000000000101014F
:10268000010101010101010101010100010101013B
:102690000000010101010101000000000001010032
:1026A0000001000101000101000100000101010120
:1026B0000001010000010100000101000101000111
:1026C0000001010101010001000000000001010101
:1026D00000010101010101010001010001010101ED
:0126E00000F9
:1026E200010E0501876F836B040E826F816B000EF2
:1026F200806F010E7B6FF40E7A6F616B000E606F5C
:10270200CEA286EF13F088EF13F0D3EF13F005019A
:10271200804B812B80517A5D7B51800A4B6E8151B7
:10272200800A4B58D8B098EF13F09AEF13F004EFE9
:1027320014F0866B2AEC1CF0ABEF13F0D00E4B6E4C
:10274200CA0EE82EFED74B2EFCD70501604B612B3B
:102752003F0EBF1205018651D8A4B2EF13F0B4EFB9
:1027620013F0C2EF13F061BFC0EF13F0615109E142
:10277200640E605DD8A0C0EF13F0C2EF13F09FEFBC
:1027820013F0876B090E4C6E1E0E4B6EE40EE82E94
:10279200FED74B2EFCD74C2EFAD700D09DEC1EF064
:1027A200FBEF16F0050181BFE0EF13F0815109E163
:1027B200100E805DD8A0E0EF13F0E2EF13F000EF0F
:1027C20014F07A51805D8151800A4B6E7B51800AF0
:1027D2004B58D8B0EFEF13F0F1EF13F000EF14F015
:1027E200010E82253D6E000E83213E6E406A060E6A
:1027F2003F6ED1EC19F03DC582F53EC583F505016A
:10280200816B000E806FCEA409EF14F00BEF14F071
:1028120051EF15F009EF15F049C5D9F44AC5DAF4BC
:10282200020EDF6017EF14F019EF14F027EF14F027
:1028320049C5D9F44AC5DAF4DF504B6E010E4B2478
:10284200626F636B000E63232AEF14F0636B000E5A
:10285200626F49C5D9F44AC5DAF462C5DFF42FEFD5
:1028620015F020EE01F04950D9264A50DA22090E1D
:10287200DF603EEF14F040EF14F050EF14F020EE62
:1028820001F04950D9264A50DA22DF504B6E010E30
:102892004B24646F656B000E652353EF14F0656B78
:1028A200000E646F20EE01F04950D9264A50DA2218
:1028B20064C5DFF42FEF15F020EE02F04950D9265F
:1028C2004A50DA22050EDF6069EF14F06BEF14F064
:1028D2007BEF14F020EE02F04950D9264A50DA225A
:1028E200DF504B6E010E4B24666F676B000E672341
:1028F2007EEF14F0676B000E666F20EE02F0495017
:10290200D9264A50DA2266C5DFF42FEF15F020EE01
:1029120003F04950D9264A50DA22090EDF6094EFBB
:1029220014F096EF14F0A6EF14F020EE03F04950E5
:10293200D9264A50DA22DF504B6E010E4B24686FC3
:10294200696B000E6923A9EF14F0696B000E686FC2
:1029520020EE03F04950D9264A50DA2268C5DFF446
:102962002FEF15F020EE04F04950D9264A50DA2212
:10297200050EDF60BFEF14F0C1EF14F0D1EF14F0D9
:1029820020EE04F04950D9264A50DA22DF504B6E2D
:10299200010E4B246A6F6B6B000E6B23D4EF14F0A5
:1029A2006B6B000E6A6F20EE04F04950D9264A5034
:1029B200DA226AC5DFF42FEF15F020EE05F0495058
:1029C200D9264A50DA22090EDF60EAEF14F0ECEF62
:1029D20014F0FCEF14F020EE05F04950D9264A50CD
:1029E200DA22DF504B6E010E4B246C6F6D6B000EC2
:1029F2006D23FFEF14F06D6B000E6C6F20EE05F08F
:102A02004950D9264A50DA226CC5DFF42FEF15F06F
:102A120082C54BF583C54CF54C50000AD8B414EF6F
:102A220015F02FEF15F04B50000AD8B40DEF14F04B
:102A3200010AD8B432EF14F0030AD8B45DEF14F0EF
:102A4200010AD8B488EF14F0070AD8B4B3EF14F02F
:102A5200010AD8B4DEEF14F02FEF15F07D6B000EF3
:102A62007C6F7DBF3EEF15F07D5109E1640E7C5D08
:102A7200D8A03EEF15F040EF15F042EF15F051EF00
:102A820015F082C540F583C541F549C542F54AC5F1
:102A920043F563EC18F005017C4B7D2B32EF15F00A
:102AA200CEA056EF15F058EF15F0C8EF16F080EFF4
:102AB20016F049C5D9F44AC5DAF4DF504B6E4C6AB8
:102AC200FF0E4B24FF0E4C20800BD8A46BEF15F0A9
:102AD2006DEF15F07BEF15F049C5D9F44AC5DAF46C
:102AE200DF504B6EFF0E4B246E6F6F6BFF0E6F232A
:102AF2007EEF15F06F6B020E6E6F49C5D9F44AC5B1
:102B0200DAF46EC5DFF4A6EF16F020EE01F04950BC
:102B1200D9264A50DA22DF504B6E4C6AFF0E4B2404
:102B2200FF0E4C20800BD8A499EF15F09BEF15F007
:102B3200ABEF15F020EE01F04950D9264A50DA22C7
:102B4200DF504B6EFF0E4B24706F716BFF0E7123C3
:102B5200AEEF15F0716B090E706F20EE01F0495067
:102B6200D9264A50DA2270C5DFF4A6EF16F020EE1D
:102B720002F04950D9264A50DA22DF504B6E4C6A95
:102B8200FF0E4B24FF0E4C20800BD8A4CBEF15F088
:102B9200CDEF15F0DDEF15F020EE02F04950D92609
:102BA2004A50DA22DF504B6EFF0E4B24726F736B6A
:102BB200FF0E7323E0EF15F0736B050E726F20EEBC
:102BC20002F04950D9264A50DA2272C5DFF4A6EF44
:102BD20016F020EE03F04950D9264A50DA22DF508F
:102BE2004B6E4C6AFF0E4B24FF0E4C20800BD8A478
:102BF200FDEF15F0FFEF15F00FEF16F020EE03F0EA
:102C02004950D9264A50DA22DF504B6EFF0E4B2430
:102C1200746F756BFF0E752312EF16F0756B090E4C
:102C2200746F20EE03F04950D9264A50DA2274C557
:102C3200DFF4A6EF16F020EE04F04950D9264A50F0
:102C4200DA22DF504B6E4C6AFF0E4B24FF0E4C20F3
:102C5200800BD8A42FEF16F031EF16F041EF16F0EB
:102C620020EE04F04950D9264A50DA22DF504B6E4A
:102C7200FF0E4B24766F776BFF0E772344EF16F02F
:102C8200776B050E766F20EE04F04950D9264A5034
:102C9200DA2276C5DFF4A6EF16F020EE05F04950F1
:102CA200D9264A50DA22DF504B6E4C6AFF0E4B2473
:102CB200FF0E4C20800BD8A461EF16F063EF16F0E4
:102CC20073EF16F020EE05F04950D9264A50DA2269
:102CD200DF504B6EFF0E4B24786F796BFF0E79231A
:102CE20076EF16F0796B090E786F20EE05F04950F9
:102CF200D9264A50DA2278C5DFF4A6EF16F082C54B
:102D02004BF583C54CF54C50000AD8B48BEF16F046
:102D1200A6EF16F04B50000AD8B45AEF15F0010A8C
:102D2200D8B486EF15F0030AD8B4B8EF15F0010A4B
:102D3200D8B4EAEF15F0070AD8B41CEF16F0010A6E
:102D4200D8B44EEF16F0A6EF16F07F6B000E7E6F32
:102D52007FBFB5EF16F07F5109E1640E7E5DD8A00A
:102D6200B5EF16F0B7EF16F0B9EF16F0C8EF16F0A0
:102D720082C540F583C541F549C542F54AC543F5CB
:102D820063EC18F005017E4B7F2BA9EF16F049C5C5
:102D9200D9F44AC5DAF4020EDE18D8A4D3EF16F03D
:102DA200D5EF16F0EFEF16F020EE01F04950D926DC
:102DB2004A50DA22030EDF64E1EF16F0E3EF16F079
:102DC200EFEF16F049C5D9F44AC5DAF4DF6A20EE0E
:102DD20001F04950D9264A50DA22DF6A82C540F50D
:102DE20083C541F549C542F54AC543F563EC18F080
:102DF20081EF13F01200CEA201EF17F003EF17F0EC
:102E020030EF17F0A0EC1EF0000E0E6E000E0F6EEB
:102E1200000E106E000E116E236A000E226E3F0E1F
:102E2200BF12090E4E6E1E0E4D6EE40EE82EFED738
:102E32004D2EFCD74E2EFAD700D0880E496E050EC5
:102E42004A6E71EC13F0090E4E6E1E0E4D6EE40EBC
:102E5200E82EFED74D2EFCD74E2EFAD700D0050114
:102E6200856B000E846F3F0EBF127CEF17F0885106
:102E7200080DF350900F3D6EB4EC17F0BF940B0E9B
:102E82004D6E620EE82EFED74D2EFCD700D0A2EF7B
:102E920017F08951080DF350900F3D6EB4EC17F006
:102EA200BF9640EF17F08A51080DF350900F3D6E18
:102EB200B4EC17F0BF9840EF17F08B51080DF350A8
:102EC200900F3D6EB4EC17F0BF9A40EF17F08C51A3
:102ED200080DF350900F3D6EB4EC17F0BF9240EF27
:102EE20017F08D51080DF350900F3D6EB4EC17F0B2
:102EF200BF9040EF17F084C54DF585C54EF54E5095
:102F0200000AD8B487EF17F0A2EF17F04D50000A6D
:102F1200D8B438EF17F0010AD8B44AEF17F0030A11
:102F2200D8B454EF17F0010AD8B45EEF17F0070ACD
:102F3200D8B468EF17F0010AD8B472EF17F0A2EF15
:102F420017F00501844B852B85BFB1EF17F0855132
:102F520009E1060E845DD8A0B1EF17F0B3EF17F0C8
:102F620034EF17F012003DC5F6F4260EF76E000E90
:102F7200F86E0800F5C43EF5010E3E163E463E468A
:102F82003E46C1503E18F70B3E18C16E3DC53EF598
:102F9200010E3E263EC5F6F4260EF76E000EF86EC2
:102FA2000800F5C43FF5010E3F163F323F32C150D3
:102FB2003F187F0B3F18C16E3DC53EF5020E3E26FF
:102FC2003EC5F6F4260EF76E000EF86E0800F5C444
:102FD2003FF5010E3F163F3A3F463F46C1503F186C
:102FE200BF0B3F18C16E3DC53EF5030E3E263EC5E2
:102FF200F6F4260EF76E000EF86E0800F5C43FF5E3
:10300200010E3F163F3A3F46C1503F18DF0B3F18B3
:10301200C16E3DC53EF5040E3E263EC5F6F4260EB3
:10302200F76E000EF86E0800F5C43FF5010E3F166C
:103032003F3AC1503F18EF0B3F18C16E3DC53EF5F8
:10304200050E3E263EC5F6F4260EF76E000EF86E0D
:103052000800F5C43FF5010E3F163F323F32C05023
:103062003F187F0B3F18C06E3DC53EF5060E3E264B
:103072003EC5F6F4260EF76E000EF86E0800F5C493
:103082003FF5010E3F163F3A3F463F46C0503F18BC
:10309200BF0B3F18C06E3DC53EF5070E3E263EC52E
:1030A200F6F4260EF76E000EF86E0800F5C43FF532
:1030B200010E3F163F3A3F46C0503F18DF0B3F1804
:1030C200C06E1200476A000E466E3F0EBF1240509D
:1030D200461809E141504718D8B472EF18F074EF5E
:1030E20018F081EF18F046504224D96E4750432021
:1030F200DA6EDF50080DF350900F486EC0EF18F0F3
:1031020046504224D96E47504320DA6EDF50080DF4
:10311200F350400F486EC0EF18F048C53DF5B4ECCF
:1031220017F0BF940B0E446E620EE82EFED7442EAB
:10313200FCD700D0E6EF18F048C53DF5B4EC17F027
:10314200BF9693EF18F048C53DF5B4EC17F0BF9861
:1031520093EF18F048C53DF5B4EC17F0BF9A93EF22
:1031620018F048C53DF5B4EC17F0BF9293EF18F094
:1031720048C53DF5B4EC17F0BF9093EF18F046C583
:1031820044F547C545F54550000AD8B4CBEF18F0D1
:10319200E6EF18F04450000AD8B48EEF18F0010A96
:1031A200D8B49DEF18F0030AD8B4A4EF18F0010ABE
:1031B200D8B4ABEF18F0070AD8B4B2EF18F0010A8E
:1031C200D8B4B9EF18F0E6EF18F0464A472A47BEDE
:1031D200F4EF18F0475009E1060E465CD8A0F4EF70
:0C31E20018F0F6EF18F066EF18F012007D
:1031F000FAC432F5FBC433F510EC1EF00009D8B464
:1032000004EF19F006EF19F00EEF19F0030E0D6E32
:103210000201979B49EC1CF056EF19F01BEC1EF0D5
:103220000009D8B416EF19F018EF19F02AEF19F0C9
:10323000EFEC1DF00009D8B420EF19F022EF19F0DF
:103240002AEF19F0010E0D6E0201979975EC1DF031
:1032500056EF19F0FAEC1DF00009D8B432EF19F06E
:1032600034EF19F044EF19F0EFEC1DF00009D8B479
:103270003CEF19F03EEF19F044EF19F0020E0D6E1D
:103280000201979926EF19F005EC1EF00009D8B459
:103290004CEF19F04EEF19F054EF19F0030E0D6ECC
:1032A0000201979D56EF19F0020197990D50D8B47D
:1032B0005CEF19F05EEF19F06BEF19F002D86BEFCD
:1032C00019F00500FA6E1F50FD6E2050FE6E215061
:1032D000FF6EFA50120033C5FBF432C5FAF4110048
:1032E000E4EC1DF04EEC1BF08DEC1BF08DEC1BF0B4
:1032F000BBEC1CF0320E3D6E3D0E3E6E000E3F6E7E
:10330000AEEC1DF0160E3D6E360E3E6E000E3F6E9C
:1033100060EC1EF09DEC1EF0D68ED68C0501875118
:10332000D8A495EF19F097EF19F0CBEF19F02850CA
:10333000D8B49DEF19F09FEF19F0A2EF19F028EC27
:103340001AF0286A2750D8B4A8EF19F0AAEF19F09C
:10335000AFEF19F0D69ED68ED3EC1CF0276A05018C
:103360008651D8A4B6EF19F0B8EF19F0B9EF19F0FB
:10337000266A2650D8B4BFEF19F0C1EF19F0CBEF91
:1033800019F08651D8B4C7EF19F0C9EF19F0CBEF97
:1033900019F0A1EC1CF0FCEC16F08EEF19F081EFA7
:1033A00000F0426A3EBED9EF19F0D7EF19F0DFEF17
:1033B00019F03D6C3E1ED8B03E2A010E426E40BE52
:1033C000E6EF19F0E4EF19F0EAEF19F03F6C401E58
:1033D000D8B0402A3F504010D8B4F1EF19F0F3EFC5
:1033E00019F017EF1AF0010E416EFBEF19F0D890AB
:1033F0003F364036412A40AE00EF1AF002EF1AF095
:10340000F7EF19F03F503D5C40503E58D8A00BEF0D
:103410001AF00DEF1AF011EF1AF03F503D5E4050D8
:103420003E5AD89040323F32412E02EF1AF04250BD
:10343000D8B41DEF1AF01FEF1AF023EF1AF03D6C0D
:103440003E1ED8B03E2A3DC53DF53EC53EF51200B4
:1034500005018D2B090E8D6530EF1AF032EF1AF051
:103460007BEF1AF08D6B8C2B050E8C653AEF1AF002
:103470003CEF1AF07BEF1AF08C6B8B2B090E8B65EF
:1034800044EF1AF046EF1AF07BEF1AF08B6B8A2BA1
:10349000050E8A654EEF1AF050EF1AF07BEF1AF026
:1034A0008A6B892B020E8819D8A459EF1AF05BEFAA
:1034B0001AF071EF1AF0030E896561EF1AF063EFED
:1034C0001AF071EF1AF0880E3D6E050E3E6E406ADE
:1034D000000E3F6E426A060E416E85EC1CF07BEFDB
:1034E0001AF0090E896577EF1AF079EF1AF07BEF81
:1034F0001AF0896B882B1200BE6ABF6A180EC06E64
:10350000C16AC26A0401026B0A6B180E126F1A6B51
:10351000226BC668C768E70EC86EC9680F0ECA6E10
:1035200000690869E70E106F1869070E206F016BBC
:10353000096B116B196B216B03690B6913691B69AB
:10354000070E236F04690C6914691C690F0E246F40
:103550000201896B886B876B866B130E716F370E58
:10356000146F140E706F380E156F0401056B066B27
:10357000076B0D6B0E6B0F6B156B166B176B256B5B
:06358000266B276B120010
:1035880002019BA5CAEF1AF0CCEF1AF0D7EF1AF098
:103598009AA5D1EF1AF0D3EF1AF0D7EF1AF09BECF7
:1035A8001DF00AEF1BF09BAFDCEF1AF0DEEF1AF00C
:1035B800F8EF1AF09AAFE3EF1AF0E5EF1AF0F8EF28
:1035C8001AF00C50D8B4EBEF1AF0EDEF1AF0F4EF54
:1035D8001AF00C6A9A919A9F88EC1DF00AEF1BF07A
:1035E80075EC1DF0D3EF1AF09BA3FDEF1AF0FFEF77
:1035F8001AF00AEF1BF09AA304EF1BF006EF1BF07A
:103608000AEF1BF0A9EC1EF002019A931100010EBB
:103618000E26000E0F2210221122224A232AE50E1E
:10362800225C030E2358D8A01CEF1BF01EEF1BF0E2
:103638002CEF1BF005018751D8A425EF1BF027EFCD
:103648001BF02CEF1BF0010E286E236A000E226E71
:1036580005018751D8A433EF1BF035EF1BF04DEF70
:103668001BF0115010100BE1880E0E5C130E0F5852
:10367800D8A041EF1BF043EF1BF04DEF1BF0010EFC
:10368800276E000E0E6E000E0F6E000E106E000EEE
:10369800116E1200D68A000ED6BE010E406ED69E5E
:1036A800550E0401596FAA0E596F59915F6B5E6BE5
:1036B800080E5D6F550E596FAA0E596F598140B0AB
:1036C80002D0D69E01D0D68E0301658F69816983A9
:1036D80069856987AF90D680720E3D6E3D0E3E6E4D
:1036E800000E3F6E75EC1EF0B490D682740E3D6EDF
:1036F8003D0E3E6E000E3F6E6EEC1EF0B890D68406
:10370800760E3D6E3D0E3E6E000E3F6E67EC1EF06F
:103718001200040E0201946F800E956F280E966FAA
:10372800020E9C6F9A6B9B6B976B8D6B510E876F1C
:10373800510E866F26EC1EF002019B919B95948F8B
:10374800050EE82EFED70000000000000000000073
:103758000000000002019A919A959B85000E1F6E49
:10376800000E206E000E216E120060EC1DF00009A4
:10377800D8A4C1EF1BF0C3EF1BF0DEEF1BF0010E66
:10378800016E3EC502F53FC503F5010E0C6E40C53E
:1037980004F541C505F542C506F543C507F544C519
:1037A80008F545C509F546C50AF547C50BF50D6A7F
:0637B80068EC1CF0120099
:1037C000FAC43BF5FBC43CF525500301196F24C531
:1037D00018F34F5050105110D8B4F1EF1BF0F3EF25
:1037E0001BF000EF1CF002D800EF1CF00500FA6E91
:1037F0004F50FD6E5050FE6E5150FF6EFA50120049
:10380000B19E3CC5FBF43BC5FAF4110060EC1DF021
:103810000009D8A40EEF1CF010EF1CF029EF1CF0EB
:10382000010E016E3EC502F53FC503F50C6A40C5A9
:1038300004F541C505F542C506F543C507F5000E7B
:10384000086E000E096E0B6A000E0A6E0D6A68ECB7
:103850001CF01200296A05018C39F00B8D112A6EBB
:103860002A5080092A6E8A39F00B8B112B6E883909
:10387000F00B89112C6E866B3F6A6F0E3E6E290E1F
:10388000406E050E416E436A040E426E06EC1CF05B
:103890001200B2EC1EF07CEC1EF058EC1EF095EC21
:1038A0001EF00201949F3AEC1EF002019B919B9541
:1038B000948F050EE82EFED70000000000000000E7
:1038C00000000000000002019A919A959B85120069
:1038D00006500710D8B46FEF1CF071EF1CF07EEFAC
:1038E0001CF0065081EC1EF00C50D8B47AEF1CF09E
:1038F0007CEF1CF07EEF1CF0A6EC1EF002500224C0
:1039000085EC1EF0A3EC1EF012003DC543F53EC54C
:1039100044F593EF1CF043C5D9F444C5DAF43FC530
:10392000DFF4434A442A4106D8A04206412806E172
:103930004228D8A49EEF1CF0A0EF1CF08BEF1CF0E7
:1039400012002D507F0B2D6E2D380F0B05018C6F43
:103950002D500F0B8D6F2E380F0B8A6F2E500F0BC3
:103960008B6F2F503F0B2F6E2F380F0B886F2F5000
:103970000F0B896F12000401006B086B106B186B42
:10398000C886C888C00EC716C99EC99CC99AC9985E
:10399000C996C89EC89CC89AC682C680C684D68A64
:1039A000D68ED68C1200010E266E0501866B3F6AFC
:1039B0006F0E3E6E000E406E000E416E436A010EA9
:1039C000426E2D0E446E050E456E476A030E466E1E
:1039D000B9EC1BF012001C501D101E10D8B4F3EFF0
:1039E0001CF0F5EF1CF002EF1DF002D802EF1DF005
:1039F0000500FA6E1C50FD6E1D50FE6E1E50FF6ECF
:103A0000FA501200120019501A101B10D8B40BEF04
:103A10001DF00DEF1DF01AEF1DF002D81AEF1DF08A
:103A20000500FA6E1950FD6E1A50FE6E1B50FF6EA7
:103A3000FA5012001200165017101810D8B423EFC5
:103A40001DF025EF1DF032EF1DF002D832EF1DF012
:103A50000500FA6E1650FD6E1750FE6E1850FF6E80
:103A6000FA5012001200060E0301196F186B700E47
:103A70001B6F19513D6E1851246E3DC525F5780E0A
:103A80004F6E3D0E506E000E516EB19EA18E900E87
:103A90001A6F120001EE86F1080EEE6AE806FDE1EB
:103AA00001EE01F12F0EEE6AE806FDE10401080EB9
:103AB0005D6F000E5E6F000E5F6F000170EF19F01A
:103AC000010E3D6E0150D8A468EF1DF06AEF1DF0A5
:103AD00073EF1DF0020198AF70EF1DF072EF1DF053
:103AE00073EF1DF03D6A3D501200A9EC1EF0ACECE6
:103AF0001EF00009D8B47FEF1DF081EF1DF087EFB5
:103B00001DF0000E8DEC1EF0000E89EC1EF0120070
:103B10000A500B10D8B48FEF1DF091EF1DF094EF09
:103B20001DF00A508DEC1EF0D880023491EC1EF08E
:103B3000AFEC1EF01200016A000E036E0268000E68
:103B4000046E000E056E000E086E000E096EB2ECDB
:103B50001EF07CEC1EF095EC1EF012003D503E1065
:103B60003F10D8B4B6EF1DF0B8EF1DF0BEEF1DF05A
:0E3B70003DC51FF53EC520F53FC521F51200ED
:103B8000FAC435F5FBC436F5AF90EBEC1CF036C546
:103B9000FBF435C5FAF41100FAC437F5FBC438F567
:103BA000B49003EC1DF038C5FBF437C5FAF41100EE
:103BB000FAC439F5FBC43AF5B8901BEC1DF03AC5D0
:103BC000FBF439C5FAF4110030EC1EF07CEC1AF06D
:103BD00033EC1DF08DEC1BF04EEC1BF012000201DB
:103BE00095BBF5EF1DF0F8EF1DF0010EF9EF1DF09C
:103BF000000E1200020198B700EF1EF003EF1EF056
:103C0000010E04EF1EF0000E1200020197BD0BEF33
:103C10001EF00EEF1EF0010E0FEF1EF0000E120050
:103C2000020197BB16EF1EF019EF1EF0010E1AEFFE
:103C30001EF0000E1200020198A721EF1EF024EFE3
:103C40001EF0010E25EF1EF0000E1200A584A586C1
:103C5000A580A58202019B859B839B8F9781120083
:103C6000600E0001AD6FAF6BB36B080EB16FB06B40
:103C7000AC6B1200A584A586A580A58202019B8558
:103C80009B839B8F97811200B5EC1EF008C5D9F479
:103C900009C5DAF4DF6E084A092A110004C5D9F40F
:103CA00005C5DAF4044A052ADF5089EC1EF011003C
:103CB000A594A596A590A59202019B6B976B120007
:103CC0003DC54FF53EC550F53FC551F512003DC508
:103CD00016F53EC517F53FC518F512003DC519F597
:103CE0003EC51AF53FC51BF512003DC51CF53EC586
:103CF0001DF53FC51EF512000201979B979D9799F0
:103D000012003D6E3DC58DF212003D6E3DC58FF235
:103D10001200346E34C58CF21200316E31C58DF252
:103D20001200306E30C58FF212000201996B998536
:103D30001200010E0501866F120003011A8F120096
:103D400003011A9F12000201948B12000201948D4C
:103D500012000201949D120002018D511200020115
:103D6000948B120002019A6B120002018B51120017
:0A3D700011001200120012001200F0
:020000040030CA
:080000008CFFFFFF9FFFFFFFD3
:01000900FFF7
:00000001FF
