:0400000081EF00F09C
:10000800904590459045904540009045400090456A
:1000180014459045904590459045904590459045AC
:1000280090454000400040009045904590459045DF
:100038009045904590459045904590459045104491
:10004800904590459045904540004000904590452A
:100058009045904590454000904590459045904585
:100068001A45904590459045904590459045904556
:1000780056455B459543B6424000904590459045AE
:1000880090459045904590459045904590459045C0
:10009800904590459045904540009045400040006F
:1000A8002045904590459045904590459045904510
:1000B8009045904590459045904590459045904590
:1000C8009045904590459045904590459045904580
:1000D8009045904590459045904590459045904570
:1000E8004000904590459045400040004000400049
:0E00F8009045904590459045FF0088EF89F0B7
:10FE7E00001A12010000000216010816010000000F
:10FE8E0000000000000000000000000090150100BE
:10FE9E000000E60F010000002211010000008E108C
:10FEAE00010000000000009213012E14010000005A
:10FEBE00010000000100010001000100010001002D
:10FECE000100000000000000000001000100000021
:10FEDE00010001000000010001000000010001000E
:10FEEE0001000100000000000100010001000100FE
:10FEFE0001000100010000000000010001000000EF
:10FF0E0001000100010000000100010000000100DD
:10FF1E0001000100010001000100010000000100CC
:10FF2E0001000000000000000000010001000100BF
:10FF3E0001000100010001000100010001000100AB
:10FF4E00010001000100000001000100010001009C
:10FF5E00000000000100010001000100010001008D
:10FF6E000000000000000000000001000100000081
:10FF7E00000001000000010001000000010001006E
:10FF8E00000001000000000001000100010001005E
:10FF9E00000001000100000000000100010000004F
:10FFAE00000001000100000001000100000001003E
:10FFBE00000001000100010001000100000001002D
:10FFCE000000000000000000000001000100010020
:10FFDE00000001000100010001000100010001000C
:10FFEE0000000100010000000100010001000100FD
:01FFFE000002
:020000040001F9
:10000000010E4B6E386A040E376E366A000E356E7E
:10001000326A640E316ECEA010EF80F012EF80F0E5
:100020004FEF80F0354A362AD00E176ECA0EE82EF2
:10003000FED7172EFCD73550315C3250800A176E30
:100040003650800A1758D8B028EF80F02AEF80F099
:1000500085EF80F06DEC88F037EF80F0D00E176EF2
:10006000CA0EE82EFED7172EFCD73F0EBF12CEB019
:100070003CEF80F03EEF80F02EEF80F04B6A090EEF
:10008000186E1E0E176EE40EE82EFED7172EFCD744
:10009000182EFAD700D001EC8BF0E0EF83F036BEDB
:1000A0005BEF80F0365009E1060E355CD8A05BEFBF
:1000B00080F05DEF80F07BEF80F03150355C3650A2
:1000C000800A176E3250800A1758D8B06AEF80F055
:1000D0006CEF80F07BEF80F0010E37240E6E000E87
:1000E00038200F6E116A060E106E44EC86F00EC5B5
:1000F00037F50FC538F5366A000E356ED00E176E1F
:10010000CA0EE82EFED7172EFCD7CEA28AEF80F0BB
:100110008CEF80F0BBEF81F0190E186E5A0E176E3F
:10012000B20EE82EFED7172EFCD7182EFAD795EF71
:1001300081F015C5D9F416C5DAF4020EDF60A3EF1D
:1001400080F0A5EF80F0B3EF80F015C5D9F416C5A7
:10015000DAF4DF50176E010E1724196E1A6A000EBA
:100160001A22B6EF80F01A6A000E196E15C5D9F47E
:1001700016C5DAF419C5DFF4BBEF81F020EE01F00B
:100180001550D9261650DA22090EDF60CAEF80F02A
:10019000CCEF80F0DCEF80F020EE01F01550D92696
:1001A0001650DA22DF50176E010E17241B6E1C6AE0
:1001B000000E1C22DFEF80F01C6A000E1B6E20EE8A
:1001C00001F01550D9261650DA221BC5DFF4BBEF1B
:1001D00081F020EE02F01550D9261650DA22050ED5
:1001E000DF60F5EF80F0F7EF80F007EF81F020EEB1
:1001F00002F01550D9261650DA22DF50176E010E84
:1002000017241D6E1E6A000E1E220AEF81F01E6A60
:10021000000E1D6E20EE02F01550D9261650DA227F
:100220001DC5DFF4BBEF81F020EE03F01550D92699
:100230001650DA22090EDF6020EF81F022EF81F004
:1002400032EF81F020EE03F01550D9261650DA2255
:10025000DF50176E010E17241F6E206A000E202239
:1002600035EF81F0206A000E1F6E20EE03F015506E
:10027000D9261650DA221FC5DFF4BBEF81F020EE3D
:1002800004F01550D9261650DA22050EDF604BEF28
:1002900081F04DEF81F05DEF81F020EE04F015501C
:1002A000D9261650DA22DF50176E010E1724216E60
:1002B000226A000E222260EF81F0226A000E216E77
:1002C00020EE04F01550D9261650DA2221C5DFF4AD
:1002D000BBEF81F020EE05F01550D9261650DA223A
:1002E000090EDF6076EF81F078EF81F088EF81F022
:1002F00020EE05F01550D9261650DA22DF50176E81
:10030000010E1724236E246A000E24228BEF81F045
:10031000246A000E236E20EE05F01550D9261650E3
:10032000DA2223C5DFF4BBEF81F037C517F538C5F6
:1003300018F51850000AD8B4A0EF81F0BBEF81F097
:100340001750000AD8B499EF80F0010AD8B4BEEF74
:1003500080F0030AD8B4E9EF80F0010AD8B414EFB2
:1003600081F0070AD8B43FEF81F0010AD8B46AEFF0
:1003700081F0BBEF81F0CEA4C0EF81F0C2EF81F03D
:100380001BEF83F0190E186E5A0E176EB20EE82E80
:10039000FED7172EFCD7182EFAD7F5EF82F015C529
:1003A000D9F416C5DAF4DF50176E186AFF0E172459
:1003B000FF0E1820800BD8A4E0EF81F0E2EF81F06F
:1003C000F0EF81F015C5D9F416C5DAF4DF50176ED9
:1003D000FF0E1724256E266AFF0E2622F3EF81F00A
:1003E000266A020E256E15C5D9F416C5DAF425C5A0
:1003F000DFF41BEF83F020EE01F01550D9261650E4
:10040000DA22DF50176E186AFF0E1724FF0E18202D
:10041000800BD8A40EEF82F010EF82F020EF82F074
:1004200020EE01F01550D9261650DA22DF50176E53
:10043000FF0E1724276E286AFF0E282223EF82F072
:10044000286A090E276E20EE01F01550D9261650A5
:10045000DA2227C5DFF41BEF83F020EE02F01550FF
:10046000D9261650DA22DF50176E186AFF0E1724AD
:10047000FF0E1820800BD8A440EF82F042EF82F0EC
:1004800052EF82F020EE02F01550D9261650DA22F3
:10049000DF50176EFF0E1724296E2A6AFF0E2A22DC
:1004A00055EF82F02A6A050E296E20EE02F01550F3
:1004B000D9261650DA2229C5DFF41BEF83F020EE8F
:1004C00003F01550D9261650DA22DF50176E186A3D
:1004D000FF0E1724FF0E1820800BD8A472EF82F0B5
:1004E00074EF82F084EF82F020EE03F01550D926ED
:1004F0001650DA22DF50176EFF0E17242B6E2C6A6F
:10050000FF0E2C2287EF82F02C6A090E2B6E20EE54
:1005100003F01550D9261650DA222BC5DFF41BEF55
:1005200083F020EE04F01550D9261650DA22DF5061
:10053000176E186AFF0E1724FF0E1820800BD8A420
:10054000A4EF82F0A6EF82F0B6EF82F020EE04F086
:100550001550D9261650DA22DF50176EFF0E1724D9
:100560002D6E2E6AFF0E2E22B9EF82F02E6A050E36
:100570002D6E20EE04F01550D9261650DA222DC526
:10058000DFF41BEF83F020EE05F01550D92616504E
:10059000DA22DF50176E186AFF0E1724FF0E18209C
:1005A000800BD8A4D6EF82F0D8EF82F0E8EF82F08B
:1005B00020EE05F01550D9261650DA22DF50176EBE
:1005C000FF0E17242F6E306AFF0E3022EBEF82F001
:1005D000306A090E2F6E20EE05F01550D926165000
:1005E000DA222FC5DFF41BEF83F037C517F538C5C6
:1005F00018F51850000AD8B400EF83F01BEF83F011
:100600001750000AD8B4CFEF81F0010AD8B4FBEF3D
:1006100081F0030AD8B42DEF82F0010AD8B45FEF5D
:1006200082F0070AD8B491EF82F0010AD8B4C3EF80
:1006300082F01BEF83F0346A000E336E34BE2AEF73
:1006400083F0345009E1060E335CD8A02AEF83F022
:100650002CEF83F02EEF83F00BEF80F03F0EBF12F4
:10066000B6EF83F015C5D9F416C5DAF4DF50176E6E
:100670001750100DBE0EF3240E6EFE0EF4200F6EFA
:10068000AFEC84F0BF9A0B0E176E620EE82EFED709
:10069000172EFCD700D0DCEF83F020EE01F01550D0
:1006A000D9261650DA22DF50176E1750100DBE0EE5
:1006B000F3240E6EFE0EF4200F6EAFEC84F0BF98A4
:1006C00043EF83F020EE02F01550D9261650DA22BF
:1006D000DF50176E1750100DBE0EF3240E6EFE0E77
:1006E000F4200F6EAFEC84F0BF9643EF83F020EE62
:1006F00003F01550D9261650DA22DF50176E175026
:10070000100DBE0EF3240E6EFE0EF4200F6EAFEC35
:1007100084F0BF9443EF83F020EE04F01550D92607
:100720001650DA22DF50176E1750100DBE0EF3244C
:100730000E6EFE0EF4200F6EAFEC84F0BF9243EF0E
:1007400083F020EE05F01550D9261650DA22DF503E
:10075000176E1750100DBE0EF3240E6EFE0EF42011
:100760000F6EAFEC84F0BF9043EF83F037C517F501
:1007700038C518F51850000AD8B4C1EF83F0DCEF83
:1007800083F01750000AD8B432EF83F0010AD8B4CE
:100790004DEF83F0030AD8B462EF83F0010AD8B4B6
:1007A00077EF83F0070AD8B48CEF83F0010AD8B44E
:1007B000A1EF83F0DCEF83F0334A342A1EEF83F09D
:1007C0001200CEA0E6EF83F0E8EF83F018EF84F09C
:1007D00004EC8BF0000E0501606F000E616F000EDF
:1007E000626F000E636F756B000E746F3F0EBF1269
:1007F000090E05017F6F1E0E7E6FE40EE82EFED7F8
:100800007E2FFCD77F2FFAD700004C0E156E050EF9
:10081000166E00EC80F0090E05017F6F1E0E7E6FD4
:10082000E40EE82EFED77E2FFCD77F2FFAD70000EC
:100830000501816B000E806F3F0EBF1277EF84F0D1
:100840004C50100D5E0EF3240E6EFF0EF4200F6E52
:10085000AFEC84F0BF9A0B0E05017E6F620EE82E9E
:10086000FED77E2FFCD700009DEF84F04D50100D79
:100870005E0EF3240E6EFF0EF4200F6EAFEC84F0CC
:10088000BF982BEF84F04E50100D5E0EF3240E6EC9
:10089000FF0EF4200F6EAFEC84F0BF962BEF84F0C8
:1008A0004F50100D5E0EF3240E6EFF0EF4200F6EEF
:1008B000AFEC84F0BF942BEF84F05050100D5E0E1F
:1008C000F3240E6EFF0EF4200F6EAFEC84F0BF9297
:1008D0002BEF84F05150100D5E0EF3240E6EFF0EC0
:1008E000F4200F6EAFEC84F0BF902BEF84F080C546
:1008F0007EF581C57FF57F51000AD8B482EF84F080
:100900009DEF84F07E51000AD8B420EF84F0010AF4
:10091000D8B436EF84F0030AD8B443EF84F0010A68
:10092000D8B450EF84F0070AD8B45DEF84F0010A20
:10093000D8B46AEF84F09DEF84F00501804B812BE1
:1009400081BFACEF84F0815109E1060E805DD8A033
:10095000ACEF84F0AEEF84F01CEF84F012000EC513
:10096000F6F40FC5F7F4000EF86E0800F5C410F5A4
:10097000010E101610321032C15010187F0B1018D3
:10098000C16E020E0E24106E000E0F20116E10C5E7
:10099000F6F411C5F7F4000EF86E0800F5C412F570
:1009A000010E1216123A12461246C1501218BF0B0F
:1009B0001218C16E040E0E24106E000E0F20116E60
:1009C00010C5F6F411C5F7F4000EF86E0800F5C472
:1009D00012F5010E1216123A1246C1501218DF0B10
:1009E0001218C16E060E0E24106E000E0F20116E2E
:1009F00010C5F6F411C5F7F4000EF86E0800F5C442
:100A000012F5010E1216123AC1501218EF0B1218FD
:100A1000C16E080E0E24106E000E0F20116E10C550
:100A2000F6F411C5F7F4000EF86E0800F5C412F5DF
:100A3000010E121612321232C05012187F0B121809
:100A4000C06E0A0E0E24106E000E0F20116E10C51F
:100A5000F6F411C5F7F4000EF86E0800F5C412F5AF
:100A6000010E1216123A12461246C0501218BF0B4F
:100A70001218C06E0C0E0E24106E000E0F20116E98
:100A800010C5F6F411C5F7F4000EF86E0800F5C4B1
:100A900012F5010E1216123A1246C0501218DF0B50
:100AA0001218C06E0E0E0E24106E000E0F20116E66
:100AB00010C5F6F411C5F7F4000EF86E0800F5C481
:100AC00012F5010E1216124612461246C1501218A5
:100AD000F70B1218C16E1200FAC403F5FBC404F53B
:100AE00078EC8AF00009D8B478EF85F07AEF85F0D9
:100AF00082EF85F0030E456E0201979BB5EC88F0FE
:100B0000CAEF85F083EC8AF00009D8B48AEF85F04B
:100B10008CEF85F09EEF85F057EC8AF00009D8B491
:100B200094EF85F096EF85F09EEF85F0010E456E0F
:100B300002019799DEEC89F0CAEF85F062EC8AF049
:100B40000009D8B4A6EF85F0A8EF85F0B8EF85F0DE
:100B500057EC8AF00009D8B4B0EF85F0B2EF85F019
:100B6000B8EF85F0020E456E020197999AEF85F075
:100B70006DEC8AF00009D8B4C0EF85F0C2EF85F0C3
:100B8000C8EF85F0030E456E0201979DCAEF85F010
:100B9000020197994550D8B4D0EF85F0D2EF85F097
:100BA000E0EF85F002D8E0EF85F00500FA6E050170
:100BB0007151FD6E7251FE6E7351FF6EFA5012004C
:100BC00004C5FBF403C5FAF411004CEC8AF0B4EC54
:100BD00087F0F3EC87F0F3EC87F09EEC89F0320EAF
:100BE0000E6E160E0F6E010E106E17EC8AF0E20EEE
:100BF0000E6E0E0E0F6E010E106EC8EC8AF001EC38
:100C00008BF04B50D8A407EF86F009EF86F03EEF4B
:100C100086F04950D8B40FEF86F011EF86F014EF4C
:100C200086F09BEC86F0496A4850D8B41AEF86F0FB
:100C30001CEF86F021EF86F0D69ED68EB4EC89F0BC
:100C4000486A4A50D8A427EF86F029EF86F02BEFA8
:100C500086F00501766B05017651D8B432EF86F047
:100C600034EF86F03EEF86F04A50D8B43AEF86F083
:100C70003CEF86F03EEF86F071EC89F0E1EC83F01A
:100C800001EF86F081EF00F0136A0FBE4CEF86F0A3
:100C90004AEF86F052EF86F00E6C0F1ED8B00F2A86
:100CA000010E136E11BE59EF86F057EF86F05DEF1F
:100CB00086F0106C111ED8B0112A10501110D8B443
:100CC00064EF86F066EF86F08AEF86F0010E126E12
:100CD0006EEF86F0D89010361136122A11AE73EFEF
:100CE00086F075EF86F06AEF86F010500E5C1150BA
:100CF0000F58D8A07EEF86F080EF86F084EF86F064
:100D000010500E5E11500F5AD89011321032122E20
:100D100075EF86F01350D8B490EF86F092EF86F01E
:100D200096EF86F00E6C0F1ED8B00F2A0EC50EF58A
:100D30000FC50FF51200512A090E5164A2EF86F07B
:100D4000A4EF86F0E2EF86F0516A502A050E506457
:100D5000ACEF86F0AEEF86F0E2EF86F0506A4F2AF5
:100D6000090E4F64B6EF86F0B8EF86F0E2EF86F03A
:100D70004F6A4E2A050E4E64C0EF86F0C2EF86F031
:100D8000E2EF86F04E6A4D2A090E4D64CAEF86F0F6
:100D9000CCEF86F0E2EF86F04D6A4C2A010E4C64EF
:100DA000D4EF86F0D6EF86F0E2EF86F04C0E0E6EB2
:100DB000050E0F6E116A000E106E136A060E126E8B
:100DC000F1EC88F01200BE6ABF6A180EC06EC16AEC
:100DD000C26A0401026B0A6B180E126F1A6B226B47
:100DE000C668C768E70EC86EC9680F0ECA6E00698C
:100DF0000869E70E106F1869070E206F016B096B09
:100E0000116B196B216B03690B6913691B69070E61
:100E1000236F04690C6914691C690F0E246F0201A9
:100E2000896B886B876B866B130E716F370E146F2F
:100E3000140E706F380E156F0401056B066B076B8F
:100E40000D6B0E6B0F6B156B166B176B256B266B93
:100E5000276B120002019BA530EF87F032EF87F07D
:100E60003DEF87F09AA537EF87F039EF87F03DEF38
:100E700087F004EC8AF070EF87F09BAF42EF87F0C9
:100E800044EF87F05EEF87F09AAF49EF87F04BEFC2
:100E900087F05EEF87F04450D8B451EF87F053EFFE
:100EA00087F05AEF87F0446A9A919A9FF1EC89F0A3
:100EB00070EF87F0DEEC89F039EF87F09BA363EFEA
:100EC00087F065EF87F070EF87F09AA36AEF87F0FD
:100ED0006CEF87F070EF87F00DEC8BF002019A93C6
:100EE0001100010E05016027000E612362236323B8
:100EF000744B752BE80E745D030E7559D8A083EF03
:100F000087F085EF87F092EF87F04B50D8A48BEFF6
:100F100087F08DEF87F092EF87F0010E496E756BC9
:100F2000000E746F4B50D8A498EF87F09AEF87F0BB
:100F3000B3EF87F063510DE1A00E605DBB0E615908
:100F40000D0E6259D8A0A7EF87F0A9EF87F0B3EF95
:100F500087F0010E486E000E606F000E616F000E8C
:100F6000626F000E636F1200D68A000ED6BE010EAD
:100F7000116ED69E550E0401596FAA0E596F5991E4
:100F80005F6B5E6B080E5D6F550E596FAA0E596F41
:100F9000598111B002D0D69E01D0D68E0301658F43
:100FA0006981698369856987AF90D680420E0E6E2C
:100FB000160E0F6E010E106EDDEC8AF0B490D68224
:100FC000440E0E6E160E0F6E010E106ED6EC8AF0E9
:100FD000B890D684460E0E6E160E0F6E010E106E71
:100FE000CFEC8AF01200040E0201946F800E956F10
:100FF000280E966F020E9C6F9A6B9B6B976B8D6B96
:10100000510E876F510E866F8EEC8AF002019B9114
:101010009B95948F050EE82EFED70000000000007F
:10102000000000000000000002019A919A959B8543
:10103000000E0501716F000E726F000E736F1200CB
:10104000FAC40CF5FBC40DF547500301196F46C5F2
:1010500018F30501825183118411D8B432EF88F05E
:1010600034EF88F041EF88F002D841EF88F00500B6
:10107000FA6E8251FD6E8351FE6E8451FF6EFA50FE
:101080001200B19E0DC5FBF40CC5FAF41100C9ECB9
:1010900089F00009D8A44FEF88F051EF88F06CEF89
:1010A00088F0010E396E0FC53AF510C53BF5010EFB
:1010B000446E11C53CF512C53DF513C53EF514C58A
:1010C0003FF515C540F516C541F517C542F518C5DC
:1010D00043F5456AD4EC88F012005038F00B5110FB
:1010E0000501676F4E38F00B4F10666F4C38F00BF0
:1010F0004D10656F776B67518009676F67C578F52D
:1011000066C579F565C57AF5106A6F0E0F6E770EB4
:10111000116E050E126E146A040E136E91EC88F0B7
:101120001200C9EC89F00009D8A499EF88F09BEF70
:1011300088F0B4EF88F0010E396E0FC53AF510C58E
:101140003BF5446A11C53CF512C53DF513C53EF5A6
:1011500014C53FF5000E406E000E416E436A000E4E
:10116000426E456AD4EC88F0120016EC8BF0E4EC89
:101170008AF0C0EC8AF0FDEC8AF00201949FA2ECA8
:101180008AF002019B919B95948F050EE82EFED765
:10119000000000000000000000000000000002014C
:1011A0009A919A959B8512003E503F10D8B4DBEF80
:1011B00088F0DDEF88F0EAEF88F03E50E9EC8AF045
:1011C0004450D8B4E6EF88F0E8EF88F0EAEF88F012
:1011D0000AEC8BF03A503A24EDEC8AF007EC8BF0F5
:1011E00012000EC514F50FC515F5FFEF88F014C5F4
:1011F000D9F415C5DAF410C5DFF4144A152A12061D
:10120000D8A01306122806E11328D8A40AEF89F003
:101210000CEF89F0F7EF88F01200060E0301196F4A
:10122000186B700E1B6F19510E6E1851466E0EC55D
:1012300047F5480E0501826F160E836F010E846F0D
:10124000B19EA18E900E03011A6F120005016E511E
:101250006F117011D8B42FEF89F031EF89F03EEFA4
:1012600089F002D83EEF89F00500FA6E6E51FD6EEE
:101270006F51FE6E7051FF6EFA50120012000501A0
:101280006B516C116D11D8B448EF89F04AEF89F0B9
:1012900057EF89F002D857EF89F00500FA6E6B51CD
:1012A000FD6E6C51FE6E6D51FF6EFA501200120011
:1012B0000501685169116A11D8B461EF89F063EFD3
:1012C00089F070EF89F002D870EF89F00500FA6EAE
:1012D0006851FD6E6951FE6E6A51FF6EFA50120040
:1012E000120005017B517F0B7B6F7B390F0B506E1A
:1012F0007B510F0B516E7C390F0B4F6E7C510F0BD6
:101300004E6E7D390F0B4D6E7D510F0B4C6E1200E2
:1013100001EE60F11E0EEE6AE806FDE101EE39F124
:10132000190EEE6AE806FDE10401080E5D6F000E7D
:101330005E6F000E5F6F0001E5EF85F00401006B4A
:10134000086B106B186BC00EC716C99EC99CC99A52
:10135000C998C996C89EC89CC89AC680C682C684C9
:10136000D68AD68ED68C1200106A6F0E0F6E000EC3
:10137000116E000E126E146A010E136E7B0E156E46
:10138000050E166E186A030E176E47EC88F04A6A4F
:101390001200010E0E6E3950D8A4D1EF89F0D3EFB0
:1013A00089F0DCEF89F0020198AFD9EF89F0DBEF2B
:1013B00089F0DCEF89F00E6A0E5012000DEC8BF014
:1013C00010EC8BF00009D8B4E8EF89F0EAEF89F06F
:1013D000F0EF89F0000EF5EC8AF0000EF1EC8AF0E7
:1013E000120042504310D8B4F8EF89F0FAEF89F0B8
:1013F000FDEF89F04250F5EC8AF0D8803A34F9ECF0
:101400008AF013EC8BF01200396A000E3B6E3A68DA
:10141000000E3C6E000E3D6E000E406E000E416EE2
:1014200016EC8BF0E4EC8AF0FDEC8AF012000E5022
:101430000F101010D8B41FEF8AF021EF8AF027EFB9
:101440008AF00EC571F50FC572F510C573F512005F
:10145000FAC406F5FBC407F5AF9026EC89F007C582
:10146000FBF406C5FAF41100FAC408F5FBC409F54B
:10147000B4903FEC89F009C5FBF408C5FAF41100FB
:10148000FAC40AF5FBC40BF5B89058EC89F00BC50B
:10149000FBF40AC5FAF4110098EC8AF0E3EC86F04C
:1014A0000DEC89F0F3EC87F0B4EC87F01200020148
:1014B00095BB5DEF8AF060EF8AF0010E61EF8AF074
:1014C000000E1200020198B768EF8AF06BEF8AF005
:1014D000010E6CEF8AF0000E1200020197BD73EF4F
:1014E0008AF076EF8AF0010E77EF8AF0000E120094
:1014F000020197BB7EEF8AF081EF8AF0010E82EF46
:101500008AF0000E1200020198A789EF8AF08CEF92
:101510008AF0010E8DEF8AF0000E1200A584A586D8
:10152000A580A58202019B859B839B8F97811200DA
:10153000600E0001AD6FAF6BB36B080EB16FB06B97
:10154000AC6B1200A584A586A580A58202019B85AF
:101550009B839B8F978112001CEC8BF040C5D9F4C4
:1015600041C5DAF4DF6E404A412A11003CC5D9F486
:101570003DC5DAF43C4A3D2ADF50F1EC8AF0110017
:10158000A594A596A590A59202019B6B976B12005E
:101590000EC582F50FC583F510C584F512000EC582
:1015A00068F50FC569F510C56AF512000EC56BF533
:1015B0000FC56CF510C56DF512000EC56EF50FC5A3
:1015C0006FF510C570F512000201979B979D9799D2
:1015D00012000E6E0EC58DF212000E6E0EC58FF249
:1015E0001200056E05C58CF21200026E02C58DF266
:1015F0001200016E01C58FF212000201996B9985EC
:10160000120003011A8F120003011A9F1200020137
:10161000948B12000201948D12000201949D12001D
:1016200002018D5112000201948B120002019A6B8B
:0E1630001200010E4A6E120002018B511200D0
:0A1640001100120012001200120047
:020000040030CA
:080000008CFFFFFF9FFFFFFFD3
:01000900FFF7
:00000001FF
