:0400000081EF00F09C
:10000800390F390F390F390F4000390F4000390FB8
:10001800BD0E390F390F390F390F390F390F390F15
:10002800390F400040004000390F390F390F390FA0
:10003800390F390F390F390F390F390F390FB90DFA
:10004800390F390F390F390F40004000390F390F78
:10005800390F390F390F4000390F390F390F390F60
:10006800C30E390F390F390F390F390F390F390FBF
:10007800FF0E040F3E0D5A0C4000390F390F390F8F
:10008800390F390F390F390F390F390F390F390F28
:10009800390F390F390F390F4000390F4000400030
:1000A800C90E390F390F390F390F390F390F390F79
:1000B800390F390F390F390F390F390F390F390FF8
:1000C800390F390F390F390F390F390F390F390FE8
:1000D800390F390F390F390F390F390F390F390FD8
:1000E8004000390F390F390F4000400040004000F0
:0E00F800390F390F390F390FFF00EEEF1CF0F2
:1026000000E63800000000A63C00AC3C00000000E2
:10261000000000000000000000000000343C00004A
:1026200000008A36000000007E37000000003237CC
:1026300000000000000000343A00D03A0000000022
:102640000100010101010101010000000001010080
:10265000010100010100010101010000010101016E
:10266000010101000001010001010100010100015F
:10267000010101010101000101000000000101014F
:10268000010101010101010101010100010101013B
:102690000000010101010101000000000001010032
:1026A0000001000101000101000100000101010120
:1026B0000001010000010100000101000101000111
:1026C0000001010101010001000000000001010101
:1026D00000010101010101010001010001010101ED
:0126E00000F9
:1026E200010E4E6E3A6A040E396E386A000E376E6B
:1026F200346A640E336E1A6A000E196ECEA284EF2B
:1027020013F086EF13F0D5EF13F0374A382AD00EC4
:10271200176ECA0EE82EFED7172EFCD73750335C41
:102722003450800A176E3850800A1758D8B09CEF80
:1027320013F09EEF13F00BEF14F04D6A02EC1CF055
:10274200AEEF13F0D00E176ECA0EE82EFED7172E7C
:10275200FCD7194A1A2A3F0EBF124D50D8A4B4EF23
:1027620013F0B6EF13F0C4EF13F01ABEC2EF13F07A
:102772001A5009E1640E195CD8A0C2EF13F0C4EF3D
:1027820013F0A3EF13F04E6A090E186E1E0E176EA9
:10279200E40EE82EFED7172EFCD7182EFAD700D05B
:1027A20053EC1EF048EF17F038BEE1EF13F038504B
:1027B20009E1060E375CD8A0E1EF13F0E3EF13F066
:1027C20001EF14F03350375C3850800A176E3450E2
:1027D200800A1758D8B0F0EF13F0F2EF13F001EFC0
:1027E20014F0010E39240E6E000E3A200F6E116A9B
:1027F200060E106E8AEC19F00EC539F50FC53AF5C2
:10280200386A000E376ED00E176ECA0EE82EFED74B
:10281200172EFCD7CEA010EF14F012EF14F041EFF8
:1028220015F0190E186E5A0E176EB20EE82EFED75C
:10283200172EFCD7182EFAD71BEF15F015C5D9F4B1
:1028420016C5DAF4020EDF6029EF14F02BEF14F054
:1028520039EF14F015C5D9F416C5DAF4DF50176E46
:10286200010E17241B6E1C6A000E1C223CEF14F092
:102872001C6A000E1B6E15C5D9F416C5DAF41BC509
:10288200DFF441EF15F020EE01F01550D926165075
:10289200DA22090EDF6050EF14F052EF14F062EF0B
:1028A20014F020EE01F01550D9261650DA22DF502E
:1028B200176E010E17241D6E1E6A000E1E2265EF92
:1028C20014F01E6A000E1D6E20EE01F01550D9267E
:1028D2001650DA221DC5DFF441EF15F020EE02F0AA
:1028E2001550D9261650DA22050EDF607BEF14F060
:1028F2007DEF14F08DEF14F020EE02F01550D92682
:102902001650DA22DF50176E010E17241F6E206A4E
:10291200000E202290EF14F0206A000E1F6E20EEAF
:1029220002F01550D9261650DA221FC5DFF441EF06
:1029320015F020EE03F01550D9261650DA22090EB2
:10294200DF60A6EF14F0A8EF14F0B8EF14F020EE59
:1029520003F01550D9261650DA22DF50176E010EF9
:102962001724216E226A000E2222BBEF14F0226A83
:10297200000E216E20EE03F01550D9261650DA22F1
:1029820021C5DFF441EF15F020EE04F01550D926F1
:102992001650DA22050EDF60D1EF14F0D3EF14F0F7
:1029A200E3EF14F020EE04F01550D9261650DA2287
:1029B200DF50176E010E1724236E246A000E2422A4
:1029C200E6EF14F0246A000E236E20EE04F0155098
:1029D200D9261650DA2223C5DFF441EF15F020EE96
:1029E20005F01550D9261650DA22090EDF60FCEFE9
:1029F20014F0FEEF14F00EEF15F020EE05F0155076
:102A0200D9261650DA22DF50176E010E1724256ED2
:102A1200266A000E262211EF15F0266A000E256E98
:102A220020EE05F01550D9261650DA2225C5DFF41E
:102A320041EF15F039C517F53AC518F51850000AD7
:102A4200D8B426EF15F041EF15F01750000AD8B4AC
:102A52001FEF14F0010AD8B444EF14F0030AD8B4FB
:102A62006FEF14F0010AD8B49AEF14F0070AD8B441
:102A7200C5EF14F0010AD8B4F0EF14F041EF15F0ED
:102A8200CEA446EF15F048EF15F0A1EF16F0190E9F
:102A9200186E5A0E176EB20EE82EFED7172EFCD7FE
:102AA200182EFAD77BEF16F015C5D9F416C5DAF44D
:102AB200DF50176E186AFF0E1724FF0E1820800BC6
:102AC200D8A466EF15F068EF15F076EF15F015C58E
:102AD200D9F416C5DAF4DF50176EFF0E1724276EED
:102AE200286AFF0E282279EF15F0286A020E276E57
:102AF20015C5D9F416C5DAF427C5DFF4A1EF16F02F
:102B020020EE01F01550D9261650DA22DF50176E4A
:102B1200186AFF0E1724FF0E1820800BD8A494EF1A
:102B220015F096EF15F0A6EF15F020EE01F0155016
:102B3200D9261650DA22DF50176EFF0E1724296E9F
:102B42002A6AFF0E2A22A9EF15F02A6A090E296EB7
:102B520020EE01F01550D9261650DA2229C5DFF4ED
:102B6200A1EF16F020EE02F01550D9261650DA2207
:102B7200DF50176E186AFF0E1724FF0E1820800B05
:102B8200D8A4C6EF15F0C8EF15F0D8EF15F020EE77
:102B920002F01550D9261650DA22DF50176EFF0EBA
:102BA20017242B6E2C6AFF0E2C22DBEF15F02C6AF9
:102BB200050E2B6E20EE02F01550D9261650DA22A1
:102BC2002BC5DFF4A1EF16F020EE03F01550D92645
:102BD2001650DA22DF50176E186AFF0E1724FF0E06
:102BE2001820800BD8A4F8EF15F0FAEF15F00AEFD1
:102BF20016F020EE03F01550D9261650DA22DF50D7
:102C0200176EFF0E17242D6E2E6AFF0E2E220DEF69
:102C120016F02E6A090E2D6E20EE03F01550D926FD
:102C22001650DA222DC5DFF4A1EF16F020EE04F0E3
:102C32001550D9261650DA22DF50176E186AFF0E89
:102C42001724FF0E1820800BD8A42AEF16F02CEFC1
:102C520016F03CEF16F020EE04F01550D92616506F
:102C6200DA22DF50176EFF0E17242F6E306AFF0E26
:102C720030223FEF16F0306A050E2F6E20EE04F080
:102C82001550D9261650DA222FC5DFF4A1EF16F01F
:102C920020EE05F01550D9261650DA22DF50176EB5
:102CA200186AFF0E1724FF0E1820800BD8A45CEFC1
:102CB20016F05EEF16F06EEF16F020EE05F01550EE
:102CC200D9261650DA22DF50176EFF0E1724316E06
:102CD200326AFF0E322271EF16F0326A090E316E3D
:102CE20020EE05F01550D9261650DA2231C5DFF450
:102CF200A1EF16F039C517F53AC518F51850000AB4
:102D0200D8B486EF16F0A1EF16F01750000AD8B427
:102D120055EF15F0010AD8B481EF15F0030AD8B4C3
:102D2200B3EF15F0010AD8B4E5EF15F0070AD8B4ED
:102D320017EF16F0010AD8B449EF16F0A1EF16F01A
:102D4200366A000E356E36BEB0EF16F0365009E127
:102D5200060E355CD8A0B0EF16F0B2EF16F0B4EF65
:102D620016F07FEF13F03F0EBF121EEF17F015C5DE
:102D7200D9F416C5DAF4DF50080DF350400F0E6E89
:102D820005EC18F0BF940B0E176E620EE82EFED7FC
:102D9200172EFCD700D044EF17F020EE01F01550AB
:102DA200D9261650DA22DF50080DF350400F0E6E6E
:102DB20005EC18F0BF96C4EF16F020EE02F01550A5
:102DC200D9261650DA22DF50080DF350400F0E6E4E
:102DD20005EC18F0BF98C4EF16F020EE03F0155082
:102DE200D9261650DA22DF50080DF350400F0E6E2E
:102DF20005EC18F0BF9AC4EF16F020EE04F015505F
:102E0200D9261650DA22DF50080DF350400F0E6E0D
:102E120005EC18F0BF92C4EF16F020EE05F0155045
:102E2200D9261650DA22DF50080DF350400F0E6EED
:102E320005EC18F0BF90C4EF16F039C517F53AC586
:102E420018F51850000AD8B429EF17F044EF17F01C
:102E52001750000AD8B4B8EF16F0010AD8B4CEEF72
:102E620016F0030AD8B4DEEF16F0010AD8B4EEEF7A
:102E720016F0070AD8B4FEEF16F0010AD8B40EEF26
:102E820017F044EF17F0354A362AA4EF16F0120075
:102E9200CEA24EEF17F050EF17F080EF17F056EC7E
:102EA2001EF0000E0501606F000E616F000E626F72
:102EB200000E636F756B000E746F3F0EBF12090E2A
:102EC2000501816F1E0E806FE40EE82EFED7802F63
:102ED200FCD7812FFAD70000760E156E050E166EFE
:102EE20071EC13F0090E0501816F1E0E806FE40E66
:102EF200E82EFED7802FFCD7812FFAD700000501DC
:102F0200836B000E826F3F0EBF12CDEF17F076512A
:102F1200080DF350900F0E6E05EC18F0BF940B0ED7
:102F22000501806F620EE82EFED7802FFCD70000CD
:102F3200F3EF17F07751080DF350900F0E6E05EC7A
:102F420018F0BF9690EF17F07851080DF350900FDC
:102F52000E6E05EC18F0BF9890EF17F07951080D3E
:102F6200F350900F0E6E05EC18F0BF9A90EF17F029
:102F72007A51080DF350900F0E6E05EC18F0BF92C7
:102F820090EF17F07B51080DF350900F0E6E05EC89
:102F920018F0BF9090EF17F082C580F583C581F5D8
:102FA2008151000AD8B4D8EF17F0F3EF17F080512F
:102FB200000AD8B488EF17F0010AD8B49BEF17F0D3
:102FC200030AD8B4A5EF17F0010AD8B4AFEF17F08F
:102FD200070AD8B4B9EF17F0010AD8B4C3EF17F053
:102FE200F3EF17F00501824B832B83BF02EF18F03A
:102FF200835109E1060E825DD8A002EF18F004EFBA
:1030020018F084EF17F012000EC5F6F4260EF76ED4
:10301200000EF86E0800F5C40FF5010E0F160F46EC
:103022000F460F46C1500F18F70B0F18C16E0EC591
:103032000FF5010E0F260FC5F6F4260EF76E000EE1
:10304200F86E0800F5C410F5010E10161032103299
:10305200C15010187F0B1018C16E0EC50FF5020E6D
:103062000F260FC5F6F4260EF76E000EF86E080056
:10307200F5C410F5010E1016103A10461046C15054
:103082001018BF0B1018C16E0EC50FF5030E0F26D8
:103092000FC5F6F4260EF76E000EF86E0800F5C4A2
:1030A20010F5010E1016103A1046C1501018DF0B21
:1030B2001018C16E0EC50FF5040E0F260FC5F6F4DB
:1030C200260EF76E000EF86E0800F5C410F5010E1C
:1030D2001016103AC1501018EF0B1018C16E0EC521
:1030E2000FF5050E0F260FC5F6F4260EF76E000E2D
:1030F200F86E0800F5C410F5010E101610321032E9
:10310200C05010187F0B1018C06E0EC50FF5060EBA
:103112000F260FC5F6F4260EF76E000EF86E0800A5
:10312200F5C410F5010E1016103A10461046C050A4
:103132001018BF0B1018C06E0EC50FF5070E0F2624
:103142000FC5F6F4260EF76E000EF86E0800F5C4F1
:1031520010F5010E1016103A1046C0501018DF0B71
:103162001018C06E1200FAC403F5FBC404F5CAECD1
:103172001DF00009D8B4C0EF18F0C2EF18F0CAEF82
:1031820018F0030E476E0201979BE3EC1BF012EF5F
:1031920019F0D5EC1DF00009D8B4D2EF18F0D4EF35
:1031A20018F0E6EF18F0A9EC1DF00009D8B4DCEF36
:1031B20018F0DEEF18F0E6EF18F0010E476E02018C
:1031C20097992FEC1DF012EF19F0B4EC1DF00009E5
:1031D200D8B4EEEF18F0F0EF18F000EF19F0A9EC08
:1031E2001DF00009D8B4F8EF18F0FAEF18F000EF6C
:1031F20019F0020E476E02019799E2EF18F0BFEC48
:103202001DF00009D8B408EF19F00AEF19F010EF19
:1032120019F0030E476E0201979D12EF19F0020199
:1032220097994750D8B418EF19F01AEF19F028EF10
:1032320019F002D828EF19F00500FA6E0501715154
:10324200FD6E7251FE6E7351FF6EFA50120004C58C
:10325200FBF403C5FAF411009EEC1DF006EC1BF022
:1032620045EC1BF045EC1BF004EC1DF0D60E0E6E87
:103272003C0E0F6E000E106E68EC1DF0860E0E6E88
:10328200350E0F6E000E106E1AEC1EF053EC1EF08F
:103292004E50D8A44FEF19F051EF19F084EF19F006
:1032A2004C50D8B457EF19F059EF19F05CEF19F000
:1032B200E1EC19F04C6A4B50D8B462EF19F064EFAC
:1032C20019F069EF19F0D69ED68ED7EC1CF04B6A36
:1032D2004D50D8A46FEF19F071EF19F072EF19F099
:1032E2004A6A4A50D8B478EF19F07AEF19F084EFAD
:1032F20019F04D50D8B480EF19F082EF19F084EF35
:1033020019F059EC1CF049EC17F049EF19F081EF74
:1033120000F0136A0FBE92EF19F090EF19F098EFD8
:1033220019F00E6C0F1ED8B00F2A010E136E11BECB
:103332009FEF19F09DEF19F0A3EF19F0106C111E19
:10334200D8B0112A10501110D8B4AAEF19F0ACEF6E
:1033520019F0D0EF19F0010E126EB4EF19F0D890F7
:1033620010361136122A11AEB9EF19F0BBEF19F06F
:10337200B0EF19F010500E5C11500F58D8A0C4EFE6
:1033820019F0C6EF19F0CAEF19F010500E5E115085
:103392000F5AD89011321032122EBBEF19F013507F
:1033A200D8B4D6EF19F0D8EF19F0DCEF19F00E6CA3
:1033B2000F1ED8B00F2A0EC50EF50FC50FF512005D
:1033C20005017B2B090E7B65E9EF19F0EBEF19F094
:1033D20034EF1AF07B6B7A2B050E7A65F3EF19F056
:1033E200F5EF19F034EF1AF07A6B792B090E796543
:1033F200FDEF19F0FFEF19F034EF1AF0796B782B2B
:10340200050E786507EF1AF009EF1AF034EF1AF09B
:10341200786B772B020E7619D8A412EF1AF014EFFC
:103422001AF02AEF1AF0030E77651AEF1AF01CEF62
:103432001AF02AEF1AF0760E0E6E050E0F6E116A52
:10344200000E106E136A060E126E3DEC1CF034EF85
:103452001AF0090E776530EF1AF032EF1AF034EFF6
:103462001AF0776B762B1200BE6ABF6A180EC06E16
:10347200C16AC26A0401026B0A6B180E126F1A6BE0
:10348200226BC668C768E70EC86EC9680F0ECA6E9F
:1034920000690869E70E106F1869070E206F016B4B
:1034A200096B116B196B216B03690B6913691B693A
:1034B200070E236F04690C6914691C690F0E246FCF
:1034C2000201896B886B876B866B130E716F370EE7
:1034D200146F140E706F380E156F0401056B066BB6
:1034E200076B0D6B0E6B0F6B156B166B176B256BEA
:1034F200266B276B120002019BA582EF1AF084EF64
:103502001AF08FEF1AF09AA589EF1AF08BEF1AF0E2
:103512008FEF1AF055EC1DF0C2EF1AF09BAF94EF4B
:103522001AF096EF1AF0B0EF1AF09AAF9BEF1AF07A
:103532009DEF1AF0B0EF1AF04650D8B4A3EF1AF08C
:10354200A5EF1AF0ACEF1AF0466A9A919A9F42ECF4
:103552001DF0C2EF1AF02FEC1DF08BEF1AF09BA3B7
:10356200B5EF1AF0B7EF1AF0C2EF1AF09AA3BCEF58
:103572001AF0BEEF1AF0C2EF1AF05FEC1EF0020171
:103582009A931100010E05016027000E6123622348
:103592006323744B752BE80E745D030E7559D8A026
:1035A200D5EF1AF0D7EF1AF0E4EF1AF04E50D8A484
:1035B200DDEF1AF0DFEF1AF0E4EF1AF0010E4C6EB5
:1035C200756B000E746F4E50D8A4EAEF1AF0ECEF50
:1035D2001AF005EF1BF063510DE1A00E605DBB0E0A
:1035E20061590D0E6259D8A0F9EF1AF0FBEF1AF0EB
:1035F20005EF1BF0010E4B6E000E606F000E616F47
:10360200000E626F000E636F1200D68A000ED6BEE5
:10361200010E116ED69E550E0401596FAA0E596FF6
:1036220059915F6B5E6B080E5D6F550E596FAA0E56
:10363200596F598111B002D0D69E01D0D68E0301A6
:10364200658F6981698369856987AF90D680E60E47
:103652000E6E3C0E0F6E000E106E2FEC1EF0B4902C
:10366200D682E80E0E6E3C0E0F6E000E106E28EC27
:103672001EF0B890D684EA0E0E6E3C0E0F6E000E4F
:10368200106E21EC1EF01200040E0201946F800EE7
:10369200956F280E966F020E9C6F9A6B9B6B976BC1
:1036A2008D6B510E876F510E866FE0EC1DF002019B
:1036B2009B919B95948F050EE82EFED7000000008B
:1036C2000000000000000000000002019A919A959B
:1036D2009B85000E0501716F000E726F000E736FF5
:1036E2001200FAC40CF5FBC40DF549500301196F21
:1036F20048C518F30501845185118611D8B484EFA9
:103702001BF086EF1BF093EF1BF002D893EF1BF038
:103712000500FA6E8451FD6E8551FE6E8651FF6E74
:10372200FA501200B19E0DC5FBF40CC5FAF411005B
:103732001AEC1DF00009D8A4A1EF1BF0A3EF1BF0B7
:10374200BEEF1BF0010E3B6E0FC53CF510C53DF5FB
:10375200010E466E11C53EF512C53FF513C540F583
:1037620014C541F515C542F516C543F517C544F50F
:1037720018C545F5476A20EC1CF012001AEC1DF042
:103782000009D8A4C7EF1BF0C9EF1BF0E2EF1BF052
:10379200010E3B6E0FC53CF510C53DF5466A11C5DD
:1037A2003EF512C53FF513C540F514C541F5000EAF
:1037B200426E000E436E456A000E446E476A20EC6C
:1037C2001CF0120068EC1EF036EC1EF012EC1EF03B
:1037D2004FEC1EF00201949FF4EC1DF002019B914C
:1037E2009B95948F050EE82EFED700000000000086
:1037F200000000000000000002019A919A959B854A
:10380200120005017C6B7A39F00B7B117D6F7D51C3
:1038120080097D6F7839F00B79117E6F7639F00B64
:1038220077117F6F106ADE0E0F6E7C0E116E050E21
:10383200126E146A040E136EBFEC1BF0120040509D
:103842004110D8B427EF1CF029EF1CF036EF1CF022
:1038520040503BEC1EF04650D8B432EF1CF034EF2F
:103862001CF036EF1CF05CEC1EF03C503C243FECAC
:103872001EF059EC1EF012000EC514F50FC515F519
:103882004BEF1CF014C5D9F415C5DAF410C5DFF4FA
:10389200144A152A1206D8A01306122806E1132884
:1038A200D8A456EF1CF058EF1CF043EF1CF01200A6
:1038B2004F507F0B4F6E4F380F0B05017A6F4F50F1
:1038C2000F0B7B6F50380F0B786F50500F0B796FC7
:1038D20051503F0B516E51380F0B766F51500F0BF9
:1038E200776F1200060E0301196F186B700E1B6FB3
:1038F20019510E6E1851486E0EC549F5EC0E0501B0
:10390200846F3C0E856F000E866FB19EA18E900E65
:1039120003011A6F120005016E516F117011D8B4B4
:1039220095EF1CF097EF1CF0A4EF1CF002D8A4EF67
:103932001CF00500FA6E6E51FD6E6F51FE6E7051F5
:10394200FF6EFA501200120005016B516C116D11DD
:10395200D8B4AEEF1CF0B0EF1CF0BDEF1CF002D8F3
:10396200BDEF1CF00500FA6E6B51FD6E6C51FE6EE0
:103972006D51FF6EFA501200120005016851691173
:103982006A11D8B4C7EF1CF0C9EF1CF0D6EF1CF0D7
:1039920002D8D6EF1CF00500FA6E6851FD6E69512F
:1039A200FE6E6A51FF6EFA5012001200010E4A6E4C
:1039B200106ADE0E0F6E000E116E000E126E146A89
:1039C200010E136E4F0E156E050E166E186A030E5B
:1039D200176E99EC1BF04D6A120001EE60F1200E99
:1039E200EE6AE806FDE101EE3BF1170EEE6AE8062B
:1039F200FDE10401080E5D6F000E5E6F000E5F6F49
:103A020000012DEF19F00401006B086B106B186BAD
:103A1200C00EC716C99EC99CC99AC998C996C89EA4
:103A2200C89CC89AC682C680C684D68AD68ED68CD0
:103A32001200010E0E6E3B50D8A422EF1DF024EFAF
:103A42001DF02DEF1DF0020198AF2AEF1DF02CEFB3
:103A52001DF02DEF1DF00E6A0E5012005FEC1EF0ED
:103A620062EC1EF00009D8B439EF1DF03BEF1DF0F7
:103A720041EF1DF0000E47EC1EF0000E43EC1EF06D
:103A8200120044504510D8B449EF1DF04BEF1DF021
:103A92004EEF1DF0445047EC1EF0D8803C344BEC06
:103AA2001EF065EC1EF012003B6A000E3D6E3C6893
:103AB200000E3E6E000E3F6E000E426E000E436E12
:103AC20068EC1EF036EC1EF04FEC1EF012000E50A9
:103AD2000F101010D8B470EF1DF072EF1DF078EFD8
:103AE2001DF00EC571F50FC572F510C573F5120004
:103AF400FAC406F5FBC407F5AF908CEC1CF007C5BF
:103B0400FBF406C5FAF41100FAC408F5FBC409F580
:103B1400B490A5EC1CF009C5FBF408C5FAF4110037
:103B2400FAC40AF5FBC40BF5B890BEEC1CF00BC547
:103B3400FBF40AC5FAF41100EAEC1DF035EC1AF0B6
:103B440073EC1CF045EC1BF006EC1BF012000201B8
:103B540095BBAFEF1DF0B2EF1DF0010EB3EF1DF0FA
:103B6400000E1200020198B7BAEF1DF0BDEF1DF070
:103B7400010EBEEF1DF0000E1200020197BDC5EF4D
:103B84001DF0C8EF1DF0010EC9EF1DF0000E12006C
:103B9400020197BBD0EF1DF0D3EF1DF0010ED4EF5F
:103BA4001DF0000E1200020198A7DBEF1DF0DEEFFE
:103BB4001DF0010EDFEF1DF0000E1200A584A58696
:103BC400A580A58202019B859B839B8F9781120010
:103BD400600E0001AD6FAF6BB36B080EB16FB06BCD
:103BE400AC6B1200A584A586A580A58202019B85E5
:103BF4009B839B8F978112006EEC1EF042C5D9F413
:103C040043C5DAF4DF6E424A432A11003EC5D9F4B3
:103C14003FC5DAF43E4A3F2ADF5043EC1EF0110060
:103C2400A594A596A590A59202019B6B976B120093
:103C34000EC584F50FC585F510C586F512000EC5B1
:103C440068F50FC569F510C56AF512000EC56BF568
:103C54000FC56CF510C56DF512000EC56EF50FC5D8
:103C64006FF510C570F512000201979B979D979907
:103C740012000E6E0EC58DF212000E6E0EC58FF27E
:103C84001200056E05C58CF21200026E02C58DF29B
:103C94001200016E01C58FF212000201996B998521
:103CA400120003011A8F120003011A9F120002016D
:103CB400948B12000201948D12000201949D120053
:103CC40002018D5112000201948B120002019A6BC1
:0E3CD4001200010E4D6E120002018B51120003
:0A3CE400110012001200120012007D
:020000040030CA
:080000008CFFFFFF9FFFFFFFD3
:01000900FFF7
:00000001FF
