:04000000FEEFFFF020
:102600000000030E0001B16F0401106BC790C79268
:10261000C794C796C798C79AC99EC99CC99AC998B2
:10262000C996C89EC89CC89A21EEBCF211EEA0F2D1
:102630000F0EDBC4E3F4E806FCE2C150C150C15008
:10264000C150C150C050C050C05021EE60F111EED9
:1026500000F29F0EDEC4E6F4E806FCE2A00ED95EAE
:10266000E15EB00E016E060E026E04EC14F006017F
:10267000B76B000EB66FB96B000EB86FBF80BF822C
:10268000BF84BF86BF88BF8A58EF13F0BF907EEF2C
:1026900013F0BF927EEF13F0BF947EEF13F0BF965E
:1026A0007EEF13F0BF987EEF13F0BF9A7EEF13F02A
:1026B000B8C609F5B9C60AF50A50000AD8B463EFDE
:1026C00013F07EEF13F00950000AD8B446EF13F070
:1026D000010AD8B449EF13F0030AD8B44CEF13F051
:1026E000010AD8B44FEF13F0070AD8B452EF13F031
:1026F000010AD8B455EF13F07EEF13F0B84BB92BA5
:10270000B9BF8CEF13F0B95109E1060EB85DD8A03E
:102710008CEF13F08EEF13F03EEF13F0BB6B000E57
:10272000BA6FABEF13F0C18EE2EF13F0C19CE2EF92
:1027300013F0C19AE2EF13F0C198E2EF13F0C196E3
:10274000E2EF13F0C09EE2EF13F0C09CE2EF13F053
:10275000C09AE2EF13F0D890BA35D96EBB35DA6E75
:10276000A00ED926060EDA22DEC409F5DDC40AF56C
:102770000A50000AD8B4BFEF13F0E2EF13F009508B
:10278000000AD8B493EF13F0010AD8B496EF13F00F
:10279000030AD8B499EF13F0010AD8B49CEF13F0F0
:1027A000070AD8B49FEF13F0010AD8B4A2EF13F0D0
:1027B000030AD8B4A5EF13F0010AD8B4A8EF13F0B8
:1027C000E2EF13F0BA4BBB2BBBBFF0EF13F0BB51E2
:1027D00009E1080EBA5DD8A0F0EF13F0F2EF13F0A4
:1027E000ABEF13F0B64BB72BB7BF00EF14F0B751F8
:1027F00009E1020EB65DD8A000EF14F002EF14F06C
:102800003BEF13F0FEEFFFF001C5D9F402C5DAF497
:10281000DEC403F5DDC404F520EE02F00150D92634
:102820000250DA22DEC405F5DDC406F520EE04F020
:102830000150D9260250DA22DEC407F5DDC408F5BE
:10284000C18E074A082AC19E08BE30EF14F0085016
:1028500009E13C0E075CD8A030EF14F032EF14F021
:1028600037EF14F0086A000E076E054A062A06BE06
:1028700043EF14F0065009E13C0E055CD8A043EF8D
:1028800014F045EF14F04AEF14F0066A000E056EDE
:10289000034A042A04BE56EF14F0045009E1180E4E
:1028A000035CD8A056EF14F058EF14F020EF14F0AA
:1028B000046A000E036E20EF14F012000000010005
:1028C0000100010001000100010000000000000003
:1028D00001000100000000000000000000000100F5
:1028E00001000000010001000000010000000100E3
:1028F00001000100010000000000010000000000D4
:1029000001000100000000000100010000000100C2
:1029100001000000010001000000010000000100B2
:1029200000000100010001000100010000000100A1
:102930000100010000000000000000000000010094
:102940000100010001000100010001000000010080
:10295000010001000100000001000100A20EF66E5E
:10296000290EF76E000EF86E01EEBCF210EE10F0BC
:102970000900F5C4EEF4E550E150FAE1BC0EF66E44
:10298000280EF76E000EF86E01EE60F110EEA0F06A
:102990000900F5C4EEF4E550E150FAE1000101EF61
:1029A00013F000000100020003000400050006000F
:0229B00007001E
:020000040001F9
:04FFFC00AEEF14F060
:020000040030CA
:01000000EC13
:01000200FEFF
:010004009F5C
:00000001FF
