:0400000081EF00F09C
:100008009444944494449444400094444000944458
:100018002644944494449444944494449444944486
:1000280094444000400040009444944494449444D0
:1000380094449444944494449444944494449444F8
:100048009444944494449444400040009444944418
:100058009444944494444000944494449444944470
:100068002C44944494449444944494449444944430
:1000780063446844F642BC42400094449444944427
:1000880094449444944494449444944494449444A8
:100098009444944494449444400094444000400060
:1000A80032449444944494449444944494449444EA
:1000B8009444944494449444944494449444944478
:1000C8009444944494449444944494449444944468
:1000D8009444944494449444944494449444944458
:1000E8004000944494449444400040004000400040
:0E00F8009444944494449444FF0078EF87F0BD
:10FEA000004E0E01000000000000000000000000F5
:10FEB0000000000000000000000000000000000141
:10FEC000000000010001000100010001000100012B
:10FED000000000000000000000010001000000011F
:10FEE000000100000001000100000001000100010C
:10FEF00000010000000000010001000100010001FC
:10FF000000010001000000000001000100000001EC
:10FF100000010001000000010001000000010001DB
:10FF200000010001000100010001000000010001CA
:10FF300000000000000000000001000100010001BD
:10FF400000010001000100010001000100010001A9
:10FF5000000100010000000100010001000100009B
:10FF6000000000010001000100010001000100008B
:10FF7000000000000000000000010001000000007F
:10FF8000000100000001000100000001000100006C
:10FF9000000100000000000100010001000100005C
:10FFA000000100010000000000010001000000004D
:10FFB000000100010000000100010000000100003C
:10FFC000000100010001000100010000000100002B
:10FFD000000000000000000000010001000100001E
:10FFE000000100010001000100010001000100000A
:10FFF00000010001000000010001000100010000FB
:020000040001F9
:10000000010E3F6E05017F6B040E7E6F7D6B000E4F
:100010007C6F796B640E786FCEA011EF80F013EFD8
:1000200080F04DEF80F07C4B7D2BD00E1E6ECA0E03
:10003000E82EFED71E2EFCD705017C51785D795144
:10004000800A1E6E7D51800A1E58D8B02AEF80F0BB
:100050002CEF80F084EF80F037EF80F0D00E1E6E32
:10006000CA0EE82EFED71E2EFCD73F0EBF12CEB012
:100070003CEF80F03EEF80F02EEF80F03F6A090EFB
:100080001F6E1E0E1E6EE40EE82EFED71E2EFCD72F
:100090001F2EFAD700D0F9EF83F07DBF59EF80F023
:1000A0007D5109E1060E7C5DD8A059EF80F05BEF31
:1000B00080F079EF80F078517C5D7D51800A1E6E72
:1000C0007951800A1E58D8B068EF80F06AEF80F04E
:1000D00079EF80F0010E7E25166E000E7F21176EDF
:1000E000196A060E186E4BEC86F016C57EF517C51C
:1000F0007FF505017D6B000E7C6FD00E1E6ECA0E63
:10010000E82EFED71E2EFCD7CEA289EF80F08BEF13
:1001100080F0C6EF81F0190E1F6E5A0E1E6EB20EE1
:10012000E82EFED71E2EFCD71F2EFAD7A0EF81F0A7
:100130001CC5D9F41DC5DAF4020EDF60A2EF80F011
:10014000A4EF80F0B3EF80F01CC5D9F41DC5DAF43C
:10015000DF501E6E010E1E240501606F616B000EE4
:100160006123B7EF80F00501616B000E606F1CC565
:10017000D9F41DC5DAF460C5DFF4C6EF81F020EED6
:1001800001F01C50D9261D50DA22090EDF60CBEF9A
:1001900080F0CDEF80F0DEEF80F020EE01F01C501B
:1001A000D9261D50DA22DF501E6E010E1E240501D5
:1001B000626F636B000E6323E2EF80F00501636BF7
:1001C000000E626F20EE01F01C50D9261D50DA227D
:1001D00062C5DFF4C6EF81F020EE02F01C50D92694
:1001E0001D50DA22040EDF60F8EF80F0FAEF80F0A5
:1001F0000BEF81F020EE02F01C50D9261D50DA22C0
:10020000DF501E6E010E1E240501646F656B000E2B
:1002100065230FEF81F00501656B000E646F20EE22
:1002200002F01C50D9261D50DA2264C5DFF4C6EF57
:1002300081F020EE03F01C50D9261D50DA22090E61
:10024000DF6025EF81F027EF81F038EF81F020EEBD
:1002500003F01C50D9261D50DA22DF501E6E010E0D
:100260001E240501666F676B000E67233CEF81F06B
:100270000501676B000E666F20EE03F01C50D92657
:100280001D50DA2266C5DFF4C6EF81F020EE04F0DF
:100290001C50D9261D50DA22050EDF6052EF81F086
:1002A00054EF81F065EF81F020EE04F01C50D92668
:1002B0001D50DA22DF501E6E010E1E240501686FEC
:1002C000696B000E692369EF81F00501696B000E0F
:1002D000686F20EE04F01C50D9261D50DA2268C544
:1002E000DFF4C6EF81F020EE05F01C50D9261D503A
:1002F000DA22090EDF607FEF81F081EF81F092EF6B
:1003000081F020EE05F01C50D9261D50DA22DF5076
:100310001E6E010E1E2405016A6F6B6B000E6B23AF
:1003200096EF81F005016B6B000E6A6F20EE05F011
:100330001C50D9261D50DA226AC5DFF4C6EF81F0C1
:100340007EC51EF57FC51FF51F50000AD8B4ABEF60
:1003500081F0C6EF81F01E50000AD8B498EF80F00B
:10036000010AD8B4BFEF80F0030AD8B4ECEF80F0F4
:10037000010AD8B419EF81F0070AD8B446EF81F02A
:10038000010AD8B473EF81F0C6EF81F0CEA4CBEFB1
:1003900081F0CDEF81F032EF83F0190E1F6E5A0E0F
:1003A0001E6EB20EE82EFED71E2EFCD71F2EFAD7D9
:1003B0000CEF83F01CC5D9F41DC5DAF4DF501E6EB6
:1003C0001F6AFF0E1E24FF0E1F20800BD8A4EBEF28
:1003D00081F0EDEF81F0FCEF81F01CC5D9F41DC573
:1003E000DAF4DF501E6EFF0E1E2405016C6F6D6B7C
:1003F000FF0E6D2300EF82F005016D6B020E6C6F36
:100400001CC5D9F41DC5DAF46CC5DFF432EF83F0F6
:1004100020EE01F01C50D9261D50DA22DF501E6E4E
:100420001F6AFF0E1E24FF0E1F20800BD8A41BEF97
:1004300082F01DEF82F02EEF82F020EE01F01C50D2
:10044000D9261D50DA22DF501E6EFF0E1E24050134
:100450006E6F6F6BFF0E6F2332EF82F005016F6BD3
:10046000090E6E6F20EE01F01C50D9261D50DA22C5
:100470006EC5DFF432EF83F020EE02F01C50D92677
:100480001D50DA22DF501E6E1F6AFF0E1E24FF0E63
:100490001F20800BD8A44FEF82F051EF82F062EF63
:1004A00082F020EE02F01C50D9261D50DA22DF50D7
:1004B0001E6EFF0E1E240501706F716BFF0E7123FF
:1004C00066EF82F00501716B050E706F20EE02F091
:1004D0001C50D9261D50DA2270C5DFF432EF83F0AC
:1004E00020EE03F01C50D9261D50DA22DF501E6E7C
:1004F0001F6AFF0E1E24FF0E1F20800BD8A483EF5F
:1005000082F085EF82F096EF82F020EE03F01C502F
:10051000D9261D50DA22DF501E6EFF0E1E24050163
:10052000726F736BFF0E73239AEF82F00501736B8A
:10053000090E726F20EE03F01C50D9261D50DA22EE
:1005400072C5DFF432EF83F020EE04F01C50D926A0
:100550001D50DA22DF501E6E1F6AFF0E1E24FF0E92
:100560001F20800BD8A4B7EF82F0B9EF82F0CAEF5A
:1005700082F020EE04F01C50D9261D50DA22DF5004
:100580001E6EFF0E1E240501746F756BFF0E752322
:10059000CEEF82F00501756B050E746F20EE04F04E
:1005A0001C50D9261D50DA2274C5DFF432EF83F0D7
:1005B00020EE05F01C50D9261D50DA22DF501E6EA9
:1005C0001F6AFF0E1E24FF0E1F20800BD8A4EBEF26
:1005D00082F0EDEF82F0FEEF82F020EE05F01C508D
:1005E000D9261D50DA22DF501E6EFF0E1E24050193
:1005F000766F776BFF0E772302EF83F00501776B41
:10060000090E766F20EE05F01C50D9261D50DA2217
:1006100076C5DFF432EF83F07EC51EF57FC51FF58A
:100620001F50000AD8B417EF83F032EF83F01E504A
:10063000000AD8B4DAEF81F0010AD8B408EF82F0EA
:10064000030AD8B43CEF82F0010AD8B470EF82F00C
:10065000070AD8B4A4EF82F0010AD8B4D8EF82F028
:1006600032EF83F005017B6B000E7A6F7BBF42EFA8
:1006700083F07B5109E1060E7A5DD8A042EF83F04A
:1006800044EF83F046EF83F00CEF80F03F0EBF1293
:10069000CEEF83F01CC5D9F41DC5DAF4DF501E6E11
:1006A0001E50100DBF0EF324166EFE0EF420176EB2
:1006B000BBEC84F0BF9A0B0E1E6E620EE82EFED7C6
:1006C0001E2EFCD700D0F4EF83F020EE01F01C507A
:1006D000D9261D50DA22DF501E6E1E50100DBF0E9F
:1006E000F324166EFE0EF420176EBBEC84F0BF9858
:1006F0005BEF83F020EE02F01C50D9261D50DA2269
:10070000DF501E6E1E50100DBF0EF324166EFE0E2F
:10071000F420176EBBEC84F0BF965BEF83F020EE05
:1007200003F01C50D9261D50DA22DF501E6E1E50D9
:10073000100DBF0EF324166EFE0EF420176EBBECE8
:1007400084F0BF945BEF83F020EE04F01C50D926B8
:100750001D50DA22DF501E6E1E50100DBF0EF32406
:10076000166EFE0EF420176EBBEC84F0BF925BEFAA
:1007700083F020EE05F01C50D9261D50DA22DF5000
:100780001E6E1E50100DBF0EF324166EFE0EF420CA
:10079000176EBBEC84F0BF905BEF83F07EC51EF557
:1007A0007FC51FF51F50000AD8B4D9EF83F0F4EFCE
:1007B00083F01E50000AD8B44AEF83F0010AD8B47F
:1007C00065EF83F0030AD8B47AEF83F0010AD8B456
:1007D0008FEF83F0070AD8B4A4EF83F0010AD8B4EE
:1007E000B9EF83F0F4EF83F005017A4B7B2B36EF02
:1007F00083F01200CEA0FFEF83F001EF84F021EF31
:1008000084F03F0EBF12090E216E1E0E206EE40E04
:10081000E82EFED7202EFCD7212EFAD700D0800E4E
:100820001C6E050E1D6E00EC80F0090E216E1E0E72
:10083000206EE40EE82EFED7202EFCD7212EFAD70C
:1008400000D0236A000E226E3F0EBF1284EF84F0A8
:1008500005018051100D5F0EF324166EFF0EF4207B
:10086000176EBBEC84F0BF9A0B0E206E620EE82E62
:10087000FED7202EFCD700D0AAEF84F005018151CD
:10088000100D5F0EF324166EFF0EF420176EBBECF6
:1008900084F0BF9834EF84F005018251100D5F0E93
:1008A000F324166EFF0EF420176EBBEC84F0BF9697
:1008B00034EF84F005018351100D5F0EF324166EA2
:1008C000FF0EF420176EBBEC84F0BF9434EF84F07D
:1008D00005018451100D5F0EF324166EFF0EF420F7
:1008E000176EBBEC84F0BF9234EF84F005018551A4
:1008F000100D5F0EF324166EFF0EF420176EBBEC86
:1009000084F0BF9034EF84F022C520F523C521F593
:100910002150000AD8B48FEF84F0AAEF84F0205061
:10092000000AD8B428EF84F0010AD8B43EEF84F06E
:10093000030AD8B44CEF84F0010AD8B45AEF84F01B
:10094000070AD8B468EF84F0010AD8B476EF84F0CF
:10095000AAEF84F0224A232A23BEB8EF84F0235062
:1009600009E1060E225CD8A0B8EF84F0BAEF84F05B
:1009700024EF84F0120016C5F6F417C5F7F4000E44
:10098000F86E0800F5C418F5010E18161832183262
:10099000C15018187F0B1818C16E020E1624186E5D
:1009A000000E1720196E18C5F6F419C5F7F4000EDD
:1009B000F86E0800F5C41AF5010E1A161A3A1A460E
:1009C0001A46C1501A18BF0B1A18C16E040E16240D
:1009D000186E000E1720196E18C5F6F419C5F7F435
:1009E000000EF86E0800F5C41AF5010E1A161A3A30
:1009F0001A46C1501A18DF0B1A18C16E060E1624BB
:100A0000186E000E1720196E18C5F6F419C5F7F404
:100A1000000EF86E0800F5C41AF5010E1A161A3AFF
:100A2000C1501A18EF0B1A18C16E080E1624186E52
:100A3000000E1720196E18C5F6F419C5F7F4000E4C
:100A4000F86E0800F5C41AF5010E1A161A321A3299
:100A5000C0501A187F0B1A18C06E0A0E1624186E92
:100A6000000E1720196E18C5F6F419C5F7F4000E1C
:100A7000F86E0800F5C41AF5010E1A161A3A1A464D
:100A80001A46C0501A18BF0B1A18C06E0C0E162446
:100A9000186E000E1720196E18C5F6F419C5F7F474
:100AA000000EF86E0800F5C41AF5010E1A161A3A6F
:100AB0001A46C0501A18DF0B1A18C06E0E0E1624F4
:100AC000186E000E1720196E18C5F6F419C5F7F444
:100AD000000EF86E0800F5C41AF5010E1A161A4633
:100AE0001A461A46C1501A18F70B1A18C16E12008E
:100AF000FAC409F5FBC40AF5F6C40BF5F7C40CF506
:100B0000F8C40DF5F5C40EF591EC88F00009D8B4E1
:100B10008CEF85F08EEF85F096EF85F0030E306E4A
:100B20000201979B98EC87F0DEEF85F09CEC88F053
:100B30000009D8B49EEF85F0A0EF85F0B2EF85F004
:100B400070EC88F00009D8B4A8EF85F0AAEF85F022
:100B5000B2EF85F0010E306E0201979912EC88F029
:100B6000DEEF85F07BEC88F00009D8B4BAEF85F0B1
:100B7000BCEF85F0CCEF85F070EC88F00009D8B4BC
:100B8000C4EF85F0C6EF85F0CCEF85F0020E306E35
:100B900002019799AEEF85F086EC88F00009D8B491
:100BA000D4EF85F0D6EF85F0DCEF85F0030E306EE4
:100BB0000201979DDEEF85F00201979930500EC536
:100BC000F5F40DC5F8F40CC5F7F40BC5F6F40AC539
:100BD000FBF409C5FAF41100FAC402F5FBC403F5ED
:100BE000F6C404F5F7C405F5F8C406F5F5C407F531
:100BF00002019BA5FEEF85F000EF86F00BEF86F07B
:100C00009AA505EF86F007EF86F00BEF86F038EC3B
:100C100088F03EEF86F09BAF10EF86F012EF86F083
:100C20002CEF86F09AAF17EF86F019EF86F02CEFD5
:100C300086F02F50D8B41FEF86F021EF86F028EF12
:100C400086F02F6A9A919A9F25EC88F03EEF86F005
:100C500012EC88F007EF86F09BA331EF86F033EFBC
:100C600086F03EEF86F09AA338EF86F03AEF86F0F2
:100C70003EEF86F018EC89F002019A9307C5F5F46F
:100C800006C5F8F405C5F7F404C5F6F403C5FBF48E
:100C900002C5FAF411001B6A17BE53EF86F051EF3C
:100CA00086F059EF86F0166C171ED8B0172A010E81
:100CB0001B6E19BE60EF86F05EEF86F064EF86F083
:100CC000186C191ED8B0192A18501910D8B46BEF27
:100CD00086F06DEF86F091EF86F0010E1A6E75EFDB
:100CE00086F0D890183619361A2A19AE7AEF86F09F
:100CF0007CEF86F071EF86F01850165C195017588B
:100D0000D8A085EF86F087EF86F08BEF86F018503D
:100D1000165E1950175AD890193218321A2E7CEFD5
:100D200086F01B50D8B497EF86F099EF86F09DEFD0
:100D300086F0166C171ED8B0172A16C516F517C5FB
:100D400017F51200BE6ABF6A180EC06EC16AC26A89
:100D50000401026B0A6B180E126F1A6B226BC668C5
:100D6000C768E70EC86EC9680F0ECA6E00690869C9
:100D7000E70E106F1869070E206F016B096B116B7E
:100D8000196B216B03690B6913691B69070E236FCC
:100D900004690C6914691C690F0E246F0201896BC8
:100DA000886B876B866B130E716F370E146F140E82
:100DB000706F380E156F0401056B066B076B0D6BBA
:100DC0000E6B0F6B156B166B176B256B266B276BFA
:100DD0001200D68A000ED6BE010E196ED69E550E92
:100DE0000401596FAA0E596F59915F6B5E6B080E23
:100DF0005D6F550E596FAA0E596F598119B002D007
:100E0000D69E01D0D68E0301698169836985698781
:100E1000AF90D680520E166E120E176E010E186E1F
:100E2000F9EC88F0B490D682540E166E120E176E3E
:100E3000010E186EF2EC88F0B890D684560E166E3D
:100E4000120E176E010E186EEBEC88F01200040EF5
:100E50000201946F800E956F280E966F020E9C6FA4
:100E60009A6B9B6B976B8D6B510E876F510E866FD4
:100E7000A7EC88F002019B919B95948F050EE82EBC
:100E8000FED700000000000000000000000000008D
:100E900002019A919A959B85000E3A6E000E3B6E68
:100EA000000E3C6E1200DAEC88F0E9EC86F0FFEC04
:100EB00087F03F50D8A45FEF87F061EF87F072EFC3
:100EC00087F03EBE6DEF87F0D00E3D5C070E3E58BA
:100ED000D8A06DEF87F06FEF87F072EF87F03E6A72
:100EE000000E3D6EFAEC83F059EF87F081EF00F0D1
:100EF0002A0EF66E120EF76E010EF86E01EE80F1FC
:100F000010EE06F00900F5C4EEF4E550E150FAE108
:100F100001EE24F11C0EEE6AE806FDE10401080E64
:100F20005D6F000E5E6F000E5F6F000153EF87F084
:100F300021EC89F000EC89F0E3EC88F011EC89F009
:100F40000201949FBBEC88F002019B919B95948FCA
:100F5000050EE82EFED70000000000000000000093
:100F60000000000002019A919A959B85120037506B
:100F700038103910D8B4BFEF87F0C1EF87F0CEEF4B
:100F800087F002D8CEEF87F00500FA6E3750FD6E7D
:100F90003850FE6E3950FF6EFA5012001200345075
:100FA00035103610D8B4D7EF87F0D9EF87F0E6EFD9
:100FB00087F002D8E6EF87F00500FA6E3450FD6E38
:100FC0003550FE6E3650FF6EFA501200120031504E
:100FD00032103310D8B4EFEF87F0F1EF87F0FEEF67
:100FE00087F002D8FEEF87F00500FA6E3150FD6EF3
:100FF0003250FE6E3350FF6EFA50120012000401A0
:10100000006B086B106B186BC00EC716C99EC99C8D
:10101000C99AC998C996C89EC89CC89AC680C682F3
:10102000C684120018EC89F01BEC89F00009D8B4D2
:101030001CEF88F01EEF88F024EF88F0000E09EC1A
:1010400089F0000E05EC89F012002D502E10D8B456
:101050002CEF88F02EEF88F031EF88F02D5009EC5E
:1010600089F0D88025340DEC89F01EEC89F012004F
:10107000246A000E266E2568000E276E000E286E6C
:10108000000E2B6E000E2C6E21EC89F000EC89F026
:0610900011EC89F01200D2
:10109800FAC410F5FBC411F5AF90B7EC87F011C591
:1010A800FBF410C5FAF41100FAC412F5FBC413F5E9
:1010B800B490CFEC87F013C5FBF412C5FAF4110015
:1010C800FAC414F5FBC415F5B890E7EC87F015C51C
:1010D800FBF414C5FAF41100020195BB76EF88F011
:1010E80079EF88F0010E7AEF88F0000E1200020105
:1010F80098B781EF88F084EF88F0010E85EF88F0CB
:10110800000E1200020197BD8CEF88F08FEF88F077
:10111800010E90EF88F0000E1200020197BB97EFC6
:1011280088F09AEF88F0010E9BEF88F0000E12000D
:10113800020198A7A2EF88F0A5EF88F0010EA6EFAC
:1011480088F0000E1200A584A586A580A58202015C
:101158009B859B839B8F97811200600E0001AD6F6A
:10116800AF6BB36B080EB16FB06BAC6B1200A5849C
:10117800A586A580A58202019B859B839B8F97816D
:02118800120053
:10118C0024EC89F02BC5D9F42CC5DAF4DF6E2B4A8C
:10119C002C2A110027C5D9F428C5DAF4274A282AA5
:1011AC00DF5005EC89F01100B1EC88F0A2EC86F070
:1011BC0027EC87F0E9EC86F01200A594A596A59093
:1011CC00A59202019B6B976B120016C531F517C5E2
:1011DC0032F518C533F5120016C534F517C535F5BB
:1011EC0018C536F5120016C537F517C538F518C5EC
:1011FC0039F512000201979B979D979912000F6E7B
:10120C000FC58CF21200086E08C58DF21200016E2B
:10121C0001C58FF212000201996B99851200000032
:10122C00000002090201949D120002018D5112006E
:10123C000201948B120002019A6B120002018B5175
:02124C0012008E
:0812500011001200120012004F
:020000040030CA
:080000008CFFFFFF9FFFFFFFD3
:01000900FFF7
:00000001FF
